{
  "_format": "hh-sol-artifact-1",
  "contractName": "OleanjiDAOLinkToken",
  "sourceName": "contracts/OleanjiDAOLinkToken.sol",
  "abi": [
    {
      "inputs": [
        {
          "internalType": "uint256",
          "name": "totalSupply",
          "type": "uint256"
        }
      ],
      "stateMutability": "nonpayable",
      "type": "constructor"
    },
    {
      "anonymous": false,
      "inputs": [
        {
          "indexed": true,
          "internalType": "address",
          "name": "owner",
          "type": "address"
        },
        {
          "indexed": true,
          "internalType": "address",
          "name": "spender",
          "type": "address"
        },
        {
          "indexed": false,
          "internalType": "uint256",
          "name": "value",
          "type": "uint256"
        }
      ],
      "name": "Approval",
      "type": "event"
    },
    {
      "anonymous": false,
      "inputs": [
        {
          "indexed": true,
          "internalType": "address",
          "name": "previousOwner",
          "type": "address"
        },
        {
          "indexed": true,
          "internalType": "address",
          "name": "newOwner",
          "type": "address"
        }
      ],
      "name": "OwnershipTransferred",
      "type": "event"
    },
    {
      "anonymous": false,
      "inputs": [
        {
          "indexed": true,
          "internalType": "address",
          "name": "from",
          "type": "address"
        },
        {
          "indexed": true,
          "internalType": "address",
          "name": "to",
          "type": "address"
        },
        {
          "indexed": false,
          "internalType": "uint256",
          "name": "value",
          "type": "uint256"
        }
      ],
      "name": "Transfer",
      "type": "event"
    },
    {
      "stateMutability": "payable",
      "type": "fallback"
    },
    {
      "inputs": [
        {
          "internalType": "address",
          "name": "sender",
          "type": "address"
        }
      ],
      "name": "IsAMember",
      "outputs": [
        {
          "internalType": "bool",
          "name": "",
          "type": "bool"
        }
      ],
      "stateMutability": "view",
      "type": "function"
    },
    {
      "inputs": [
        {
          "internalType": "address",
          "name": "sender",
          "type": "address"
        },
        {
          "internalType": "uint256",
          "name": "amount",
          "type": "uint256"
        }
      ],
      "name": "_mintForWinners",
      "outputs": [],
      "stateMutability": "nonpayable",
      "type": "function"
    },
    {
      "inputs": [
        {
          "internalType": "address",
          "name": "owner",
          "type": "address"
        },
        {
          "internalType": "address",
          "name": "spender",
          "type": "address"
        }
      ],
      "name": "allowance",
      "outputs": [
        {
          "internalType": "uint256",
          "name": "",
          "type": "uint256"
        }
      ],
      "stateMutability": "view",
      "type": "function"
    },
    {
      "inputs": [
        {
          "internalType": "address",
          "name": "",
          "type": "address"
        }
      ],
      "name": "alreadyAMember",
      "outputs": [
        {
          "internalType": "bool",
          "name": "",
          "type": "bool"
        }
      ],
      "stateMutability": "view",
      "type": "function"
    },
    {
      "inputs": [
        {
          "internalType": "address",
          "name": "spender",
          "type": "address"
        },
        {
          "internalType": "uint256",
          "name": "amount",
          "type": "uint256"
        }
      ],
      "name": "approve",
      "outputs": [
        {
          "internalType": "bool",
          "name": "",
          "type": "bool"
        }
      ],
      "stateMutability": "nonpayable",
      "type": "function"
    },
    {
      "inputs": [
        {
          "internalType": "address",
          "name": "account",
          "type": "address"
        }
      ],
      "name": "balanceOf",
      "outputs": [
        {
          "internalType": "uint256",
          "name": "",
          "type": "uint256"
        }
      ],
      "stateMutability": "view",
      "type": "function"
    },
    {
      "inputs": [],
      "name": "decimals",
      "outputs": [
        {
          "internalType": "uint8",
          "name": "",
          "type": "uint8"
        }
      ],
      "stateMutability": "view",
      "type": "function"
    },
    {
      "inputs": [
        {
          "internalType": "address",
          "name": "spender",
          "type": "address"
        },
        {
          "internalType": "uint256",
          "name": "subtractedValue",
          "type": "uint256"
        }
      ],
      "name": "decreaseAllowance",
      "outputs": [
        {
          "internalType": "bool",
          "name": "",
          "type": "bool"
        }
      ],
      "stateMutability": "nonpayable",
      "type": "function"
    },
    {
      "inputs": [],
      "name": "fetchMembers",
      "outputs": [
        {
          "components": [
            {
              "internalType": "uint256",
              "name": "memberId",
              "type": "uint256"
            },
            {
              "internalType": "string",
              "name": "name",
              "type": "string"
            },
            {
              "internalType": "address",
              "name": "memberAddress",
              "type": "address"
            },
            {
              "internalType": "uint256",
              "name": "balance",
              "type": "uint256"
            }
          ],
          "internalType": "struct OleanjiDAOLinkToken.Members[]",
          "name": "",
          "type": "tuple[]"
        }
      ],
      "stateMutability": "view",
      "type": "function"
    },
    {
      "inputs": [
        {
          "internalType": "address",
          "name": "sender",
          "type": "address"
        }
      ],
      "name": "getInfo",
      "outputs": [
        {
          "internalType": "string",
          "name": "",
          "type": "string"
        }
      ],
      "stateMutability": "view",
      "type": "function"
    },
    {
      "inputs": [],
      "name": "getPrice",
      "outputs": [
        {
          "internalType": "uint256",
          "name": "",
          "type": "uint256"
        }
      ],
      "stateMutability": "view",
      "type": "function"
    },
    {
      "inputs": [],
      "name": "getReserve",
      "outputs": [
        {
          "internalType": "uint256",
          "name": "",
          "type": "uint256"
        }
      ],
      "stateMutability": "view",
      "type": "function"
    },
    {
      "inputs": [
        {
          "internalType": "address",
          "name": "spender",
          "type": "address"
        },
        {
          "internalType": "uint256",
          "name": "addedValue",
          "type": "uint256"
        }
      ],
      "name": "increaseAllowance",
      "outputs": [
        {
          "internalType": "bool",
          "name": "",
          "type": "bool"
        }
      ],
      "stateMutability": "nonpayable",
      "type": "function"
    },
    {
      "inputs": [
        {
          "internalType": "string",
          "name": "_name",
          "type": "string"
        }
      ],
      "name": "joinMembership",
      "outputs": [],
      "stateMutability": "payable",
      "type": "function"
    },
    {
      "inputs": [],
      "name": "joinMembershipAward",
      "outputs": [
        {
          "internalType": "uint256",
          "name": "",
          "type": "uint256"
        }
      ],
      "stateMutability": "view",
      "type": "function"
    },
    {
      "inputs": [
        {
          "internalType": "uint256",
          "name": "",
          "type": "uint256"
        }
      ],
      "name": "memberCount",
      "outputs": [
        {
          "internalType": "uint256",
          "name": "memberId",
          "type": "uint256"
        },
        {
          "internalType": "string",
          "name": "name",
          "type": "string"
        },
        {
          "internalType": "address",
          "name": "memberAddress",
          "type": "address"
        },
        {
          "internalType": "uint256",
          "name": "balance",
          "type": "uint256"
        }
      ],
      "stateMutability": "view",
      "type": "function"
    },
    {
      "inputs": [],
      "name": "name",
      "outputs": [
        {
          "internalType": "string",
          "name": "",
          "type": "string"
        }
      ],
      "stateMutability": "view",
      "type": "function"
    },
    {
      "inputs": [],
      "name": "numberOfMembers",
      "outputs": [
        {
          "internalType": "uint256",
          "name": "",
          "type": "uint256"
        }
      ],
      "stateMutability": "view",
      "type": "function"
    },
    {
      "inputs": [],
      "name": "owner",
      "outputs": [
        {
          "internalType": "address",
          "name": "",
          "type": "address"
        }
      ],
      "stateMutability": "view",
      "type": "function"
    },
    {
      "inputs": [],
      "name": "renounceOwnership",
      "outputs": [],
      "stateMutability": "nonpayable",
      "type": "function"
    },
    {
      "inputs": [],
      "name": "symbol",
      "outputs": [
        {
          "internalType": "string",
          "name": "",
          "type": "string"
        }
      ],
      "stateMutability": "view",
      "type": "function"
    },
    {
      "inputs": [],
      "name": "totalSupply",
      "outputs": [
        {
          "internalType": "uint256",
          "name": "",
          "type": "uint256"
        }
      ],
      "stateMutability": "view",
      "type": "function"
    },
    {
      "inputs": [
        {
          "internalType": "address",
          "name": "to",
          "type": "address"
        },
        {
          "internalType": "uint256",
          "name": "amount",
          "type": "uint256"
        }
      ],
      "name": "transfer",
      "outputs": [
        {
          "internalType": "bool",
          "name": "",
          "type": "bool"
        }
      ],
      "stateMutability": "nonpayable",
      "type": "function"
    },
    {
      "inputs": [
        {
          "internalType": "address",
          "name": "from",
          "type": "address"
        },
        {
          "internalType": "address",
          "name": "to",
          "type": "address"
        },
        {
          "internalType": "uint256",
          "name": "amount",
          "type": "uint256"
        }
      ],
      "name": "transferFrom",
      "outputs": [
        {
          "internalType": "bool",
          "name": "",
          "type": "bool"
        }
      ],
      "stateMutability": "nonpayable",
      "type": "function"
    },
    {
      "inputs": [
        {
          "internalType": "address",
          "name": "newOwner",
          "type": "address"
        }
      ],
      "name": "transferOwnership",
      "outputs": [],
      "stateMutability": "nonpayable",
      "type": "function"
    },
    {
      "inputs": [],
      "name": "withdraw",
      "outputs": [],
      "stateMutability": "nonpayable",
      "type": "function"
    },
    {
      "stateMutability": "payable",
      "type": "receive"
    }
  ],
  "bytecode": "0x60806040526658d15e17628000600755681b1ae4d6e2ef5000006008553480156200002957600080fd5b50604051620038023803806200380283398181016040528101906200004f9190620004be565b6040518060400160405280601081526020017f4f6c65616e6a694c696e6b546f6b656e000000000000000000000000000000008152506040518060400160405280600381526020017f4f4c5400000000000000000000000000000000000000000000000000000000008152508160039080519060200190620000d3929190620003f7565b508060049080519060200190620000ec929190620003f7565b5050506200010f62000103620001a660201b60201c565b620001ae60201b60201c565b6000670de0b6b3a764000082620001279190620005d5565b905033600660006101000a81548173ffffffffffffffffffffffffffffffffffffffff021916908373ffffffffffffffffffffffffffffffffffffffff1602179055506200019e600660009054906101000a900473ffffffffffffffffffffffffffffffffffffffff16826200027460201b60201c565b50506200071c565b600033905090565b6000600560009054906101000a900473ffffffffffffffffffffffffffffffffffffffff16905081600560006101000a81548173ffffffffffffffffffffffffffffffffffffffff021916908373ffffffffffffffffffffffffffffffffffffffff1602179055508173ffffffffffffffffffffffffffffffffffffffff168173ffffffffffffffffffffffffffffffffffffffff167f8be0079c531659141344cd1fd0a4f28419497f9722a3daafe3b4186f6b6457e060405160405180910390a35050565b600073ffffffffffffffffffffffffffffffffffffffff168273ffffffffffffffffffffffffffffffffffffffff161415620002e7576040517f08c379a0000000000000000000000000000000000000000000000000000000008152600401620002de9062000528565b60405180910390fd5b620002fb60008383620003ed60201b60201c565b80600260008282546200030f919062000578565b92505081905550806000808473ffffffffffffffffffffffffffffffffffffffff1673ffffffffffffffffffffffffffffffffffffffff168152602001908152602001600020600082825462000366919062000578565b925050819055508173ffffffffffffffffffffffffffffffffffffffff16600073ffffffffffffffffffffffffffffffffffffffff167fddf252ad1be2c89b69c2b068fc378daa952ba7f163c4a11628f55a4df523b3ef83604051620003cd91906200054a565b60405180910390a3620003e960008383620003f260201b60201c565b5050565b505050565b505050565b828054620004059062000640565b90600052602060002090601f01602090048101928262000429576000855562000475565b82601f106200044457805160ff191683800117855562000475565b8280016001018555821562000475579182015b828111156200047457825182559160200191906001019062000457565b5b50905062000484919062000488565b5090565b5b80821115620004a357600081600090555060010162000489565b5090565b600081519050620004b88162000702565b92915050565b600060208284031215620004d757620004d6620006d4565b5b6000620004e784828501620004a7565b91505092915050565b6000620004ff601f8362000567565b91506200050c82620006d9565b602082019050919050565b620005228162000636565b82525050565b600060208201905081810360008301526200054381620004f0565b9050919050565b600060208201905062000561600083018462000517565b92915050565b600082825260208201905092915050565b6000620005858262000636565b9150620005928362000636565b9250827fffffffffffffffffffffffffffffffffffffffffffffffffffffffffffffffff03821115620005ca57620005c962000676565b5b828201905092915050565b6000620005e28262000636565b9150620005ef8362000636565b9250817fffffffffffffffffffffffffffffffffffffffffffffffffffffffffffffffff04831182151516156200062b576200062a62000676565b5b828202905092915050565b6000819050919050565b600060028204905060018216806200065957607f821691505b6020821081141562000670576200066f620006a5565b5b50919050565b7f4e487b7100000000000000000000000000000000000000000000000000000000600052601160045260246000fd5b7f4e487b7100000000000000000000000000000000000000000000000000000000600052602260045260246000fd5b600080fd5b7f45524332303a206d696e7420746f20746865207a65726f206164647265737300600082015250565b6200070d8162000636565b81146200071957600080fd5b50565b6130d6806200072c6000396000f3fe6080604052600436106101855760003560e01c8063715018a6116100d1578063a457c2d71161008a578063dd62ed3e11610064578063dd62ed3e146105ae578063f2fde38b146105eb578063fc56868114610614578063ffdd5cf11461063d5761018c565b8063a457c2d714610509578063a9059cbb14610546578063d8f197b6146105835761018c565b8063715018a61461042a57806380e99ffb146104415780638da5cb5b1461045d57806395d89b411461048857806398d5fdca146104b3578063a30e3fa9146104de5761018c565b8063395093511161013e57806359bf5d391161011857806359bf5d391461034557806364b3f3c5146103705780636e8165e8146103ad57806370a08231146103ed5761018c565b806339509351146102c65780633ccfd60b1461030357806345a175041461031a5761018c565b806306fdde031461018e578063095ea7b3146101b957806318160ddd146101f657806323b872dd14610221578063313ce5671461025e57806335f1b834146102895761018c565b3661018c57005b005b34801561019a57600080fd5b506101a361067a565b6040516101b0919061264a565b60405180910390f35b3480156101c557600080fd5b506101e060048036038101906101db919061211c565b61070c565b6040516101ed919061262f565b60405180910390f35b34801561020257600080fd5b5061020b61072f565b604051610218919061286c565b60405180910390f35b34801561022d57600080fd5b50610248600480360381019061024391906120c9565b610739565b604051610255919061262f565b60405180910390f35b34801561026a57600080fd5b50610273610768565b60405161028091906128d3565b60405180910390f35b34801561029557600080fd5b506102b060048036038101906102ab919061205c565b610771565b6040516102bd919061262f565b60405180910390f35b3480156102d257600080fd5b506102ed60048036038101906102e8919061211c565b6107cc565b6040516102fa919061262f565b60405180910390f35b34801561030f57600080fd5b50610318610876565b005b34801561032657600080fd5b5061032f6109b4565b60405161033c919061286c565b60405180910390f35b34801561035157600080fd5b5061035a6109ba565b604051610367919061286c565b60405180910390f35b34801561037c57600080fd5b506103976004803603810190610392919061205c565b6109ca565b6040516103a4919061262f565b60405180910390f35b3480156103b957600080fd5b506103d460048036038101906103cf91906121a5565b6109ea565b6040516103e49493929190612887565b60405180910390f35b3480156103f957600080fd5b50610414600480360381019061040f919061205c565b610ac2565b604051610421919061286c565b60405180910390f35b34801561043657600080fd5b5061043f610b0a565b005b61045b6004803603810190610456919061215c565b610b92565b005b34801561046957600080fd5b50610472610eab565b60405161047f91906125f2565b60405180910390f35b34801561049457600080fd5b5061049d610ed5565b6040516104aa919061264a565b60405180910390f35b3480156104bf57600080fd5b506104c8610f67565b6040516104d5919061286c565b60405180910390f35b3480156104ea57600080fd5b506104f3610f71565b604051610500919061286c565b60405180910390f35b34801561051557600080fd5b50610530600480360381019061052b919061211c565b610f77565b60405161053d919061262f565b60405180910390f35b34801561055257600080fd5b5061056d6004803603810190610568919061211c565b611061565b60405161057a919061262f565b60405180910390f35b34801561058f57600080fd5b50610598611084565b6040516105a5919061260d565b60405180910390f35b3480156105ba57600080fd5b506105d560048036038101906105d09190612089565b6112fb565b6040516105e2919061286c565b60405180910390f35b3480156105f757600080fd5b50610612600480360381019061060d919061205c565b611382565b005b34801561062057600080fd5b5061063b6004803603810190610636919061211c565b61147a565b005b34801561064957600080fd5b50610664600480360381019061065f919061205c565b611488565b604051610671919061264a565b60405180910390f35b60606003805461068990612ad6565b80601f01602080910402602001604051908101604052809291908181526020018280546106b590612ad6565b80156107025780601f106106d757610100808354040283529160200191610702565b820191906000526020600020905b8154815290600101906020018083116106e557829003601f168201915b5050505050905090565b6000806107176115fa565b9050610724818585611602565b600191505092915050565b6000600254905090565b6000806107446115fa565b90506107518582856117cd565b61075c858585611859565b60019150509392505050565b60006012905090565b600080600a60008473ffffffffffffffffffffffffffffffffffffffff1673ffffffffffffffffffffffffffffffffffffffff16815260200190815260200160002060009054906101000a900460ff16905080915050919050565b6000806107d76115fa565b905061086b818585600160008673ffffffffffffffffffffffffffffffffffffffff1673ffffffffffffffffffffffffffffffffffffffff16815260200190815260200160002060008973ffffffffffffffffffffffffffffffffffffffff1673ffffffffffffffffffffffffffffffffffffffff1681526020019081526020016000205461086691906129b5565b611602565b600191505092915050565b61087e6115fa565b73ffffffffffffffffffffffffffffffffffffffff1661089c610eab565b73ffffffffffffffffffffffffffffffffffffffff16146108f2576040517f08c379a00000000000000000000000000000000000000000000000000000000081526004016108e99061276c565b60405180910390fd5b60006108fc610eab565b9050600047905060008273ffffffffffffffffffffffffffffffffffffffff1682604051610929906125dd565b60006040518083038185875af1925050503d8060008114610966576040519150601f19603f3d011682016040523d82523d6000602084013e61096b565b606091505b50509050806109af576040517f08c379a00000000000000000000000000000000000000000000000000000000081526004016109a69061272c565b60405180910390fd5b505050565b60085481565b60006109c530610ac2565b905090565b600a6020528060005260406000206000915054906101000a900460ff1681565b600b602052806000526040600020600091509050806000015490806001018054610a1390612ad6565b80601f0160208091040260200160405190810160405280929190818152602001828054610a3f90612ad6565b8015610a8c5780601f10610a6157610100808354040283529160200191610a8c565b820191906000526020600020905b815481529060010190602001808311610a6f57829003601f168201915b5050505050908060020160009054906101000a900473ffffffffffffffffffffffffffffffffffffffff16908060030154905084565b60008060008373ffffffffffffffffffffffffffffffffffffffff1673ffffffffffffffffffffffffffffffffffffffff168152602001908152602001600020549050919050565b610b126115fa565b73ffffffffffffffffffffffffffffffffffffffff16610b30610eab565b73ffffffffffffffffffffffffffffffffffffffff1614610b86576040517f08c379a0000000000000000000000000000000000000000000000000000000008152600401610b7d9061276c565b60405180910390fd5b610b906000611ada565b565b60001515600a60003373ffffffffffffffffffffffffffffffffffffffff1673ffffffffffffffffffffffffffffffffffffffff16815260200190815260200160002060009054906101000a900460ff16151514610c25576040517f08c379a0000000000000000000000000000000000000000000000000000000008152600401610c1c9061278c565b60405180910390fd5b6007543414610c69576040517f08c379a0000000000000000000000000000000000000000000000000000000008152600401610c60906127cc565b60405180910390fd5b6000610c7433610ac2565b14610cb4576040517f08c379a0000000000000000000000000000000000000000000000000000000008152600401610cab9061274c565b60405180910390fd5b6000611388905080610ce7600660009054906101000a900473ffffffffffffffffffffffffffffffffffffffff16610ac2565b1015610d2a57600069021e19e0c9bab24000009050610d28600660009054906101000a900473ffffffffffffffffffffffffffffffffffffffff1682611ba0565b505b610d3633600854611ba0565b610d64600660009054906101000a900473ffffffffffffffffffffffffffffffffffffffff16600854611d00565b6001600a60003373ffffffffffffffffffffffffffffffffffffffff1673ffffffffffffffffffffffffffffffffffffffff16815260200190815260200160002060006101000a81548160ff021916908315150217905550600160096000828254610dcf91906129b5565b92505081905550604051806080016040528060095481526020018381526020013373ffffffffffffffffffffffffffffffffffffffff168152602001610e1433610ac2565b815250600b60006009548152602001908152602001600020600082015181600001556020820151816001019080519060200190610e52929190611ee1565b5060408201518160020160006101000a81548173ffffffffffffffffffffffffffffffffffffffff021916908373ffffffffffffffffffffffffffffffffffffffff160217905550606082015181600301559050505050565b6000600560009054906101000a900473ffffffffffffffffffffffffffffffffffffffff16905090565b606060048054610ee490612ad6565b80601f0160208091040260200160405190810160405280929190818152602001828054610f1090612ad6565b8015610f5d5780601f10610f3257610100808354040283529160200191610f5d565b820191906000526020600020905b815481529060010190602001808311610f4057829003601f168201915b5050505050905090565b6000600754905090565b60095481565b600080610f826115fa565b90506000600160008373ffffffffffffffffffffffffffffffffffffffff1673ffffffffffffffffffffffffffffffffffffffff16815260200190815260200160002060008673ffffffffffffffffffffffffffffffffffffffff1673ffffffffffffffffffffffffffffffffffffffff16815260200190815260200160002054905083811015611048576040517f08c379a000000000000000000000000000000000000000000000000000000000815260040161103f9061282c565b60405180910390fd5b6110558286868403611602565b60019250505092915050565b60008061106c6115fa565b9050611079818585611859565b600191505092915050565b606061108e6115fa565b73ffffffffffffffffffffffffffffffffffffffff166110ac610eab565b73ffffffffffffffffffffffffffffffffffffffff1614611102576040517f08c379a00000000000000000000000000000000000000000000000000000000081526004016110f99061276c565b60405180910390fd5b600060095467ffffffffffffffff8111156111205761111f612c0f565b5b60405190808252806020026020018201604052801561115957816020015b611146611f67565b81526020019060019003908161113e5790505b5090506000805b6009548110156112f2576000600b600060018461117d91906129b5565b81526020019081526020016000206000015490506000600b6000838152602001908152602001600020905080604051806080016040529081600082015481526020016001820180546111ce90612ad6565b80601f01602080910402602001604051908101604052809291908181526020018280546111fa90612ad6565b80156112475780601f1061121c57610100808354040283529160200191611247565b820191906000526020600020905b81548152906001019060200180831161122a57829003601f168201915b505050505081526020016002820160009054906101000a900473ffffffffffffffffffffffffffffffffffffffff1673ffffffffffffffffffffffffffffffffffffffff1673ffffffffffffffffffffffffffffffffffffffff1681526020016003820154815250508585815181106112c3576112c2612be0565b5b60200260200101819052506001846112db91906129b5565b9350505080806112ea90612b39565b915050611160565b50819250505090565b6000600160008473ffffffffffffffffffffffffffffffffffffffff1673ffffffffffffffffffffffffffffffffffffffff16815260200190815260200160002060008373ffffffffffffffffffffffffffffffffffffffff1673ffffffffffffffffffffffffffffffffffffffff16815260200190815260200160002054905092915050565b61138a6115fa565b73ffffffffffffffffffffffffffffffffffffffff166113a8610eab565b73ffffffffffffffffffffffffffffffffffffffff16146113fe576040517f08c379a00000000000000000000000000000000000000000000000000000000081526004016113f59061276c565b60405180910390fd5b600073ffffffffffffffffffffffffffffffffffffffff168173ffffffffffffffffffffffffffffffffffffffff16141561146e576040517f08c379a0000000000000000000000000000000000000000000000000000000008152600401611465906126ac565b60405180910390fd5b61147781611ada565b50565b6114848282611ba0565b5050565b606060006060600091505b6009548210156115f057600b60006001846114ae91906129b5565b815260200190815260200160002060020160009054906101000a900473ffffffffffffffffffffffffffffffffffffffff1673ffffffffffffffffffffffffffffffffffffffff168473ffffffffffffffffffffffffffffffffffffffff1614156115dd576000600b600060018561152691906129b5565b8152602001908152602001600020600001549050600b6000828152602001908152602001600020600101805461155b90612ad6565b80601f016020809104026020016040519081016040528092919081815260200182805461158790612ad6565b80156115d45780601f106115a9576101008083540402835291602001916115d4565b820191906000526020600020905b8154815290600101906020018083116115b757829003601f168201915b50505050509150505b81806115e890612b39565b925050611493565b8092505050919050565b600033905090565b600073ffffffffffffffffffffffffffffffffffffffff168373ffffffffffffffffffffffffffffffffffffffff161415611672576040517f08c379a00000000000000000000000000000000000000000000000000000000081526004016116699061280c565b60405180910390fd5b600073ffffffffffffffffffffffffffffffffffffffff168273ffffffffffffffffffffffffffffffffffffffff1614156116e2576040517f08c379a00000000000000000000000000000000000000000000000000000000081526004016116d9906126cc565b60405180910390fd5b80600160008573ffffffffffffffffffffffffffffffffffffffff1673ffffffffffffffffffffffffffffffffffffffff16815260200190815260200160002060008473ffffffffffffffffffffffffffffffffffffffff1673ffffffffffffffffffffffffffffffffffffffff168152602001908152602001600020819055508173ffffffffffffffffffffffffffffffffffffffff168373ffffffffffffffffffffffffffffffffffffffff167f8c5be1e5ebec7d5bd14f71427d1e84f3dd0314c0f7b2291e5b200ac8c7c3b925836040516117c0919061286c565b60405180910390a3505050565b60006117d984846112fb565b90507fffffffffffffffffffffffffffffffffffffffffffffffffffffffffffffffff81146118535781811015611845576040517f08c379a000000000000000000000000000000000000000000000000000000000815260040161183c906126ec565b60405180910390fd5b6118528484848403611602565b5b50505050565b600073ffffffffffffffffffffffffffffffffffffffff168373ffffffffffffffffffffffffffffffffffffffff1614156118c9576040517f08c379a00000000000000000000000000000000000000000000000000000000081526004016118c0906127ec565b60405180910390fd5b600073ffffffffffffffffffffffffffffffffffffffff168273ffffffffffffffffffffffffffffffffffffffff161415611939576040517f08c379a00000000000000000000000000000000000000000000000000000000081526004016119309061266c565b60405180910390fd5b611944838383611ed7565b60008060008573ffffffffffffffffffffffffffffffffffffffff1673ffffffffffffffffffffffffffffffffffffffff168152602001908152602001600020549050818110156119ca576040517f08c379a00000000000000000000000000000000000000000000000000000000081526004016119c19061270c565b60405180910390fd5b8181036000808673ffffffffffffffffffffffffffffffffffffffff1673ffffffffffffffffffffffffffffffffffffffff16815260200190815260200160002081905550816000808573ffffffffffffffffffffffffffffffffffffffff1673ffffffffffffffffffffffffffffffffffffffff1681526020019081526020016000206000828254611a5d91906129b5565b925050819055508273ffffffffffffffffffffffffffffffffffffffff168473ffffffffffffffffffffffffffffffffffffffff167fddf252ad1be2c89b69c2b068fc378daa952ba7f163c4a11628f55a4df523b3ef84604051611ac1919061286c565b60405180910390a3611ad4848484611edc565b50505050565b6000600560009054906101000a900473ffffffffffffffffffffffffffffffffffffffff16905081600560006101000a81548173ffffffffffffffffffffffffffffffffffffffff021916908373ffffffffffffffffffffffffffffffffffffffff1602179055508173ffffffffffffffffffffffffffffffffffffffff168173ffffffffffffffffffffffffffffffffffffffff167f8be0079c531659141344cd1fd0a4f28419497f9722a3daafe3b4186f6b6457e060405160405180910390a35050565b600073ffffffffffffffffffffffffffffffffffffffff168273ffffffffffffffffffffffffffffffffffffffff161415611c10576040517f08c379a0000000000000000000000000000000000000000000000000000000008152600401611c079061284c565b60405180910390fd5b611c1c60008383611ed7565b8060026000828254611c2e91906129b5565b92505081905550806000808473ffffffffffffffffffffffffffffffffffffffff1673ffffffffffffffffffffffffffffffffffffffff1681526020019081526020016000206000828254611c8391906129b5565b925050819055508173ffffffffffffffffffffffffffffffffffffffff16600073ffffffffffffffffffffffffffffffffffffffff167fddf252ad1be2c89b69c2b068fc378daa952ba7f163c4a11628f55a4df523b3ef83604051611ce8919061286c565b60405180910390a3611cfc60008383611edc565b5050565b600073ffffffffffffffffffffffffffffffffffffffff168273ffffffffffffffffffffffffffffffffffffffff161415611d70576040517f08c379a0000000000000000000000000000000000000000000000000000000008152600401611d67906127ac565b60405180910390fd5b611d7c82600083611ed7565b60008060008473ffffffffffffffffffffffffffffffffffffffff1673ffffffffffffffffffffffffffffffffffffffff16815260200190815260200160002054905081811015611e02576040517f08c379a0000000000000000000000000000000000000000000000000000000008152600401611df99061268c565b60405180910390fd5b8181036000808573ffffffffffffffffffffffffffffffffffffffff1673ffffffffffffffffffffffffffffffffffffffff168152602001908152602001600020819055508160026000828254611e599190612a0b565b92505081905550600073ffffffffffffffffffffffffffffffffffffffff168373ffffffffffffffffffffffffffffffffffffffff167fddf252ad1be2c89b69c2b068fc378daa952ba7f163c4a11628f55a4df523b3ef84604051611ebe919061286c565b60405180910390a3611ed283600084611edc565b505050565b505050565b505050565b828054611eed90612ad6565b90600052602060002090601f016020900481019282611f0f5760008555611f56565b82601f10611f2857805160ff1916838001178555611f56565b82800160010185558215611f56579182015b82811115611f55578251825591602001919060010190611f3a565b5b509050611f639190611fa5565b5090565b60405180608001604052806000815260200160608152602001600073ffffffffffffffffffffffffffffffffffffffff168152602001600081525090565b5b80821115611fbe576000816000905550600101611fa6565b5090565b6000611fd5611fd084612913565b6128ee565b905082815260208101848484011115611ff157611ff0612c43565b5b611ffc848285612a94565b509392505050565b60008135905061201381613072565b92915050565b600082601f83011261202e5761202d612c3e565b5b813561203e848260208601611fc2565b91505092915050565b60008135905061205681613089565b92915050565b60006020828403121561207257612071612c4d565b5b600061208084828501612004565b91505092915050565b600080604083850312156120a05761209f612c4d565b5b60006120ae85828601612004565b92505060206120bf85828601612004565b9150509250929050565b6000806000606084860312156120e2576120e1612c4d565b5b60006120f086828701612004565b935050602061210186828701612004565b925050604061211286828701612047565b9150509250925092565b6000806040838503121561213357612132612c4d565b5b600061214185828601612004565b925050602061215285828601612047565b9150509250929050565b60006020828403121561217257612171612c4d565b5b600082013567ffffffffffffffff8111156121905761218f612c48565b5b61219c84828501612019565b91505092915050565b6000602082840312156121bb576121ba612c4d565b5b60006121c984828501612047565b91505092915050565b60006121de838361254d565b905092915050565b6121ef81612a3f565b82525050565b6121fe81612a3f565b82525050565b600061220f82612954565b6122198185612977565b93508360208202850161222b85612944565b8060005b85811015612267578484038952815161224885826121d2565b94506122538361296a565b925060208a0199505060018101905061222f565b50829750879550505050505092915050565b61228281612a51565b82525050565b60006122938261295f565b61229d8185612993565b93506122ad818560208601612aa3565b6122b681612c52565b840191505092915050565b60006122cc8261295f565b6122d681856129a4565b93506122e6818560208601612aa3565b6122ef81612c52565b840191505092915050565b60006123076023836129a4565b915061231282612c63565b604082019050919050565b600061232a6022836129a4565b915061233582612cb2565b604082019050919050565b600061234d6026836129a4565b915061235882612d01565b604082019050919050565b60006123706022836129a4565b915061237b82612d50565b604082019050919050565b6000612393601d836129a4565b915061239e82612d9f565b602082019050919050565b60006123b66026836129a4565b91506123c182612dc8565b604082019050919050565b60006123d96014836129a4565b91506123e482612e17565b602082019050919050565b60006123fc6027836129a4565b915061240782612e40565b604082019050919050565b600061241f6020836129a4565b915061242a82612e8f565b602082019050919050565b60006124426018836129a4565b915061244d82612eb8565b602082019050919050565b60006124656021836129a4565b915061247082612ee1565b604082019050919050565b60006124886013836129a4565b915061249382612f30565b602082019050919050565b60006124ab6025836129a4565b91506124b682612f59565b604082019050919050565b60006124ce600083612988565b91506124d982612fa8565b600082019050919050565b60006124f16024836129a4565b91506124fc82612fab565b604082019050919050565b60006125146025836129a4565b915061251f82612ffa565b604082019050919050565b6000612537601f836129a4565b915061254282613049565b602082019050919050565b600060808301600083015161256560008601826125b0565b506020830151848203602086015261257d8282612288565b915050604083015161259260408601826121e6565b5060608301516125a560608601826125b0565b508091505092915050565b6125b981612a7d565b82525050565b6125c881612a7d565b82525050565b6125d781612a87565b82525050565b60006125e8826124c1565b9150819050919050565b600060208201905061260760008301846121f5565b92915050565b600060208201905081810360008301526126278184612204565b905092915050565b60006020820190506126446000830184612279565b92915050565b6000602082019050818103600083015261266481846122c1565b905092915050565b60006020820190508181036000830152612685816122fa565b9050919050565b600060208201905081810360008301526126a58161231d565b9050919050565b600060208201905081810360008301526126c581612340565b9050919050565b600060208201905081810360008301526126e581612363565b9050919050565b6000602082019050818103600083015261270581612386565b9050919050565b60006020820190508181036000830152612725816123a9565b9050919050565b60006020820190508181036000830152612745816123cc565b9050919050565b60006020820190508181036000830152612765816123ef565b9050919050565b6000602082019050818103600083015261278581612412565b9050919050565b600060208201905081810360008301526127a581612435565b9050919050565b600060208201905081810360008301526127c581612458565b9050919050565b600060208201905081810360008301526127e58161247b565b9050919050565b600060208201905081810360008301526128058161249e565b9050919050565b60006020820190508181036000830152612825816124e4565b9050919050565b6000602082019050818103600083015261284581612507565b9050919050565b600060208201905081810360008301526128658161252a565b9050919050565b600060208201905061288160008301846125bf565b92915050565b600060808201905061289c60008301876125bf565b81810360208301526128ae81866122c1565b90506128bd60408301856121f5565b6128ca60608301846125bf565b95945050505050565b60006020820190506128e860008301846125ce565b92915050565b60006128f8612909565b90506129048282612b08565b919050565b6000604051905090565b600067ffffffffffffffff82111561292e5761292d612c0f565b5b61293782612c52565b9050602081019050919050565b6000819050602082019050919050565b600081519050919050565b600081519050919050565b6000602082019050919050565b600082825260208201905092915050565b600081905092915050565b600082825260208201905092915050565b600082825260208201905092915050565b60006129c082612a7d565b91506129cb83612a7d565b9250827fffffffffffffffffffffffffffffffffffffffffffffffffffffffffffffffff03821115612a00576129ff612b82565b5b828201905092915050565b6000612a1682612a7d565b9150612a2183612a7d565b925082821015612a3457612a33612b82565b5b828203905092915050565b6000612a4a82612a5d565b9050919050565b60008115159050919050565b600073ffffffffffffffffffffffffffffffffffffffff82169050919050565b6000819050919050565b600060ff82169050919050565b82818337600083830152505050565b60005b83811015612ac1578082015181840152602081019050612aa6565b83811115612ad0576000848401525b50505050565b60006002820490506001821680612aee57607f821691505b60208210811415612b0257612b01612bb1565b5b50919050565b612b1182612c52565b810181811067ffffffffffffffff82111715612b3057612b2f612c0f565b5b80604052505050565b6000612b4482612a7d565b91507fffffffffffffffffffffffffffffffffffffffffffffffffffffffffffffffff821415612b7757612b76612b82565b5b600182019050919050565b7f4e487b7100000000000000000000000000000000000000000000000000000000600052601160045260246000fd5b7f4e487b7100000000000000000000000000000000000000000000000000000000600052602260045260246000fd5b7f4e487b7100000000000000000000000000000000000000000000000000000000600052603260045260246000fd5b7f4e487b7100000000000000000000000000000000000000000000000000000000600052604160045260246000fd5b600080fd5b600080fd5b600080fd5b600080fd5b6000601f19601f8301169050919050565b7f45524332303a207472616e7366657220746f20746865207a65726f206164647260008201527f6573730000000000000000000000000000000000000000000000000000000000602082015250565b7f45524332303a206275726e20616d6f756e7420657863656564732062616c616e60008201527f6365000000000000000000000000000000000000000000000000000000000000602082015250565b7f4f776e61626c653a206e6577206f776e657220697320746865207a65726f206160008201527f6464726573730000000000000000000000000000000000000000000000000000602082015250565b7f45524332303a20617070726f766520746f20746865207a65726f20616464726560008201527f7373000000000000000000000000000000000000000000000000000000000000602082015250565b7f45524332303a20696e73756666696369656e7420616c6c6f77616e6365000000600082015250565b7f45524332303a207472616e7366657220616d6f756e742065786365656473206260008201527f616c616e63650000000000000000000000000000000000000000000000000000602082015250565b7f4661696c656420746f2073656e64204574686572000000000000000000000000600082015250565b7f486d6d6d2077686572652064696420796f7520676574207468697320746f6b6560008201527f6e2066726f6d3f00000000000000000000000000000000000000000000000000602082015250565b7f4f776e61626c653a2063616c6c6572206973206e6f7420746865206f776e6572600082015250565b7f596f752061726520616c72656164792061206d656d6265720000000000000000600082015250565b7f45524332303a206275726e2066726f6d20746865207a65726f2061646472657360008201527f7300000000000000000000000000000000000000000000000000000000000000602082015250565b7f5072696365206973206e6f7420456e6f75676800000000000000000000000000600082015250565b7f45524332303a207472616e736665722066726f6d20746865207a65726f20616460008201527f6472657373000000000000000000000000000000000000000000000000000000602082015250565b50565b7f45524332303a20617070726f76652066726f6d20746865207a65726f2061646460008201527f7265737300000000000000000000000000000000000000000000000000000000602082015250565b7f45524332303a2064656372656173656420616c6c6f77616e63652062656c6f7760008201527f207a65726f000000000000000000000000000000000000000000000000000000602082015250565b7f45524332303a206d696e7420746f20746865207a65726f206164647265737300600082015250565b61307b81612a3f565b811461308657600080fd5b50565b61309281612a7d565b811461309d57600080fd5b5056fea2646970667358221220363e7e1f9f1791843854be4844d0b03918f153fe8d32fd843890293f81870a9864736f6c63430008070033",
  "linkReferences": {},
  "deployedLinkReferences": {}
}