{
  "_format": "hh-sol-artifact-1",
  "contractName": "OCH",
  "sourceName": "contracts/OCH.sol",
  "abi": [
    {
      "inputs": [
        {
          "internalType": "string",
          "name": "baseURI",
          "type": "string"
        },
        {
          "internalType": "address",
          "name": "_tokenAddress",
          "type": "address"
        }
      ],
      "stateMutability": "nonpayable",
      "type": "constructor"
    },
    {
      "anonymous": false,
      "inputs": [
        {
          "indexed": true,
          "internalType": "address",
          "name": "owner",
          "type": "address"
        },
        {
          "indexed": true,
          "internalType": "address",
          "name": "approved",
          "type": "address"
        },
        {
          "indexed": true,
          "internalType": "uint256",
          "name": "tokenId",
          "type": "uint256"
        }
      ],
      "name": "Approval",
      "type": "event"
    },
    {
      "anonymous": false,
      "inputs": [
        {
          "indexed": true,
          "internalType": "address",
          "name": "owner",
          "type": "address"
        },
        {
          "indexed": true,
          "internalType": "address",
          "name": "operator",
          "type": "address"
        },
        {
          "indexed": false,
          "internalType": "bool",
          "name": "approved",
          "type": "bool"
        }
      ],
      "name": "ApprovalForAll",
      "type": "event"
    },
    {
      "anonymous": false,
      "inputs": [
        {
          "indexed": true,
          "internalType": "address",
          "name": "previousOwner",
          "type": "address"
        },
        {
          "indexed": true,
          "internalType": "address",
          "name": "newOwner",
          "type": "address"
        }
      ],
      "name": "OwnershipTransferred",
      "type": "event"
    },
    {
      "anonymous": false,
      "inputs": [
        {
          "indexed": true,
          "internalType": "address",
          "name": "from",
          "type": "address"
        },
        {
          "indexed": true,
          "internalType": "address",
          "name": "to",
          "type": "address"
        },
        {
          "indexed": true,
          "internalType": "uint256",
          "name": "tokenId",
          "type": "uint256"
        }
      ],
      "name": "Transfer",
      "type": "event"
    },
    {
      "stateMutability": "payable",
      "type": "fallback"
    },
    {
      "inputs": [],
      "name": "Maximum",
      "outputs": [
        {
          "internalType": "uint256",
          "name": "",
          "type": "uint256"
        }
      ],
      "stateMutability": "view",
      "type": "function"
    },
    {
      "inputs": [
        {
          "internalType": "uint256",
          "name": "_amount",
          "type": "uint256"
        }
      ],
      "name": "Mint",
      "outputs": [],
      "stateMutability": "payable",
      "type": "function"
    },
    {
      "inputs": [],
      "name": "NftPrice",
      "outputs": [
        {
          "internalType": "uint256",
          "name": "",
          "type": "uint256"
        }
      ],
      "stateMutability": "view",
      "type": "function"
    },
    {
      "inputs": [
        {
          "internalType": "address",
          "name": "to",
          "type": "address"
        },
        {
          "internalType": "uint256",
          "name": "tokenId",
          "type": "uint256"
        }
      ],
      "name": "approve",
      "outputs": [],
      "stateMutability": "nonpayable",
      "type": "function"
    },
    {
      "inputs": [
        {
          "internalType": "address",
          "name": "owner",
          "type": "address"
        }
      ],
      "name": "balanceOf",
      "outputs": [
        {
          "internalType": "uint256",
          "name": "",
          "type": "uint256"
        }
      ],
      "stateMutability": "view",
      "type": "function"
    },
    {
      "inputs": [
        {
          "internalType": "uint256",
          "name": "tokenId",
          "type": "uint256"
        }
      ],
      "name": "getApproved",
      "outputs": [
        {
          "internalType": "address",
          "name": "",
          "type": "address"
        }
      ],
      "stateMutability": "view",
      "type": "function"
    },
    {
      "inputs": [],
      "name": "getMintingPrice",
      "outputs": [
        {
          "internalType": "uint256",
          "name": "",
          "type": "uint256"
        }
      ],
      "stateMutability": "view",
      "type": "function"
    },
    {
      "inputs": [
        {
          "internalType": "address",
          "name": "owner",
          "type": "address"
        },
        {
          "internalType": "address",
          "name": "operator",
          "type": "address"
        }
      ],
      "name": "isApprovedForAll",
      "outputs": [
        {
          "internalType": "bool",
          "name": "",
          "type": "bool"
        }
      ],
      "stateMutability": "view",
      "type": "function"
    },
    {
      "inputs": [],
      "name": "name",
      "outputs": [
        {
          "internalType": "string",
          "name": "",
          "type": "string"
        }
      ],
      "stateMutability": "view",
      "type": "function"
    },
    {
      "inputs": [],
      "name": "owner",
      "outputs": [
        {
          "internalType": "address",
          "name": "",
          "type": "address"
        }
      ],
      "stateMutability": "view",
      "type": "function"
    },
    {
      "inputs": [
        {
          "internalType": "uint256",
          "name": "tokenId",
          "type": "uint256"
        }
      ],
      "name": "ownerOf",
      "outputs": [
        {
          "internalType": "address",
          "name": "",
          "type": "address"
        }
      ],
      "stateMutability": "view",
      "type": "function"
    },
    {
      "inputs": [],
      "name": "renounceOwnership",
      "outputs": [],
      "stateMutability": "nonpayable",
      "type": "function"
    },
    {
      "inputs": [
        {
          "internalType": "address",
          "name": "from",
          "type": "address"
        },
        {
          "internalType": "address",
          "name": "to",
          "type": "address"
        },
        {
          "internalType": "uint256",
          "name": "tokenId",
          "type": "uint256"
        }
      ],
      "name": "safeTransferFrom",
      "outputs": [],
      "stateMutability": "nonpayable",
      "type": "function"
    },
    {
      "inputs": [
        {
          "internalType": "address",
          "name": "from",
          "type": "address"
        },
        {
          "internalType": "address",
          "name": "to",
          "type": "address"
        },
        {
          "internalType": "uint256",
          "name": "tokenId",
          "type": "uint256"
        },
        {
          "internalType": "bytes",
          "name": "_data",
          "type": "bytes"
        }
      ],
      "name": "safeTransferFrom",
      "outputs": [],
      "stateMutability": "nonpayable",
      "type": "function"
    },
    {
      "inputs": [
        {
          "internalType": "address",
          "name": "operator",
          "type": "address"
        },
        {
          "internalType": "bool",
          "name": "approved",
          "type": "bool"
        }
      ],
      "name": "setApprovalForAll",
      "outputs": [],
      "stateMutability": "nonpayable",
      "type": "function"
    },
    {
      "inputs": [
        {
          "internalType": "bytes4",
          "name": "interfaceId",
          "type": "bytes4"
        }
      ],
      "name": "supportsInterface",
      "outputs": [
        {
          "internalType": "bool",
          "name": "",
          "type": "bool"
        }
      ],
      "stateMutability": "view",
      "type": "function"
    },
    {
      "inputs": [],
      "name": "symbol",
      "outputs": [
        {
          "internalType": "string",
          "name": "",
          "type": "string"
        }
      ],
      "stateMutability": "view",
      "type": "function"
    },
    {
      "inputs": [
        {
          "internalType": "uint256",
          "name": "index",
          "type": "uint256"
        }
      ],
      "name": "tokenByIndex",
      "outputs": [
        {
          "internalType": "uint256",
          "name": "",
          "type": "uint256"
        }
      ],
      "stateMutability": "view",
      "type": "function"
    },
    {
      "inputs": [],
      "name": "tokenIds",
      "outputs": [
        {
          "internalType": "uint256",
          "name": "",
          "type": "uint256"
        }
      ],
      "stateMutability": "view",
      "type": "function"
    },
    {
      "inputs": [
        {
          "internalType": "address",
          "name": "owner",
          "type": "address"
        },
        {
          "internalType": "uint256",
          "name": "index",
          "type": "uint256"
        }
      ],
      "name": "tokenOfOwnerByIndex",
      "outputs": [
        {
          "internalType": "uint256",
          "name": "",
          "type": "uint256"
        }
      ],
      "stateMutability": "view",
      "type": "function"
    },
    {
      "inputs": [
        {
          "internalType": "uint256",
          "name": "tokenId",
          "type": "uint256"
        }
      ],
      "name": "tokenURI",
      "outputs": [
        {
          "internalType": "string",
          "name": "",
          "type": "string"
        }
      ],
      "stateMutability": "view",
      "type": "function"
    },
    {
      "inputs": [],
      "name": "totalSupply",
      "outputs": [
        {
          "internalType": "uint256",
          "name": "",
          "type": "uint256"
        }
      ],
      "stateMutability": "view",
      "type": "function"
    },
    {
      "inputs": [
        {
          "internalType": "address",
          "name": "from",
          "type": "address"
        },
        {
          "internalType": "address",
          "name": "to",
          "type": "address"
        },
        {
          "internalType": "uint256",
          "name": "tokenId",
          "type": "uint256"
        }
      ],
      "name": "transferFrom",
      "outputs": [],
      "stateMutability": "nonpayable",
      "type": "function"
    },
    {
      "inputs": [
        {
          "internalType": "address",
          "name": "newOwner",
          "type": "address"
        }
      ],
      "name": "transferOwnership",
      "outputs": [],
      "stateMutability": "nonpayable",
      "type": "function"
    },
    {
      "inputs": [],
      "name": "withdraw",
      "outputs": [],
      "stateMutability": "nonpayable",
      "type": "function"
    },
    {
      "stateMutability": "payable",
      "type": "receive"
    }
  ],
  "bytecode": "0x608060405260c8600b55600c600e553480156200001b57600080fd5b50604051620040e2380380620040e28339818101604052810190620000419190620003b7565b6040518060400160405280601b81526020017f4f6c65616e6a6920436861696e4c696e6b204861636b6174686f6e00000000008152506040518060400160405280600381526020017f4f434800000000000000000000000000000000000000000000000000000000008152508160009080519060200190620000c592919062000272565b508060019080519060200190620000de92919062000272565b50505062000101620000f5620001a460201b60201c565b620001ac60201b60201c565b81600d90805190602001906200011992919062000272565b5080600f60006101000a81548173ffffffffffffffffffffffffffffffffffffffff021916908373ffffffffffffffffffffffffffffffffffffffff16021790555080601060006101000a81548173ffffffffffffffffffffffffffffffffffffffff021916908373ffffffffffffffffffffffffffffffffffffffff1602179055505050620005ef565b600033905090565b6000600a60009054906101000a900473ffffffffffffffffffffffffffffffffffffffff16905081600a60006101000a81548173ffffffffffffffffffffffffffffffffffffffff021916908373ffffffffffffffffffffffffffffffffffffffff1602179055508173ffffffffffffffffffffffffffffffffffffffff168173ffffffffffffffffffffffffffffffffffffffff167f8be0079c531659141344cd1fd0a4f28419497f9722a3daafe3b4186f6b6457e060405160405180910390a35050565b8280546200028090620004e6565b90600052602060002090601f016020900481019282620002a45760008555620002f0565b82601f10620002bf57805160ff1916838001178555620002f0565b82800160010185558215620002f0579182015b82811115620002ef578251825591602001919060010190620002d2565b5b509050620002ff919062000303565b5090565b5b808211156200031e57600081600090555060010162000304565b5090565b600062000339620003338462000446565b6200041d565b905082815260208101848484011115620003585762000357620005b5565b5b62000365848285620004b0565b509392505050565b6000815190506200037e81620005d5565b92915050565b600082601f8301126200039c576200039b620005b0565b5b8151620003ae84826020860162000322565b91505092915050565b60008060408385031215620003d157620003d0620005bf565b5b600083015167ffffffffffffffff811115620003f257620003f1620005ba565b5b620004008582860162000384565b925050602062000413858286016200036d565b9150509250929050565b6000620004296200043c565b90506200043782826200051c565b919050565b6000604051905090565b600067ffffffffffffffff82111562000464576200046362000581565b5b6200046f82620005c4565b9050602081019050919050565b6000620004898262000490565b9050919050565b600073ffffffffffffffffffffffffffffffffffffffff82169050919050565b60005b83811015620004d0578082015181840152602081019050620004b3565b83811115620004e0576000848401525b50505050565b60006002820490506001821680620004ff57607f821691505b6020821081141562000516576200051562000552565b5b50919050565b6200052782620005c4565b810181811067ffffffffffffffff8211171562000549576200054862000581565b5b80604052505050565b7f4e487b7100000000000000000000000000000000000000000000000000000000600052602260045260246000fd5b7f4e487b7100000000000000000000000000000000000000000000000000000000600052604160045260246000fd5b600080fd5b600080fd5b600080fd5b600080fd5b6000601f19601f8301169050919050565b620005e0816200047c565b8114620005ec57600080fd5b50565b613ae380620005ff6000396000f3fe60806040526004361061016a5760003560e01c80634f6ccce7116100d15780638da5cb5b1161008a578063b88d4fde11610064578063b88d4fde14610527578063c87b56dd14610550578063e985e9c51461058d578063f2fde38b146105ca57610171565b80638da5cb5b146104a857806395d89b41146104d3578063a22cb465146104fe57610171565b80634f6ccce7146103845780636352211e146103c157806370a08231146103fe578063714cff561461043b578063715018a61461046657806377d247621461047d57610171565b8063181af9d611610123578063181af9d61461028857806323b872dd146102b35780632f745c59146102dc57806330ae979c146103195780633ccfd60b1461034457806342842e0e1461035b57610171565b806301ffc9a71461017357806306fdde03146101b057806307883703146101db578063081812fc146101f7578063095ea7b31461023457806318160ddd1461025d57610171565b3661017157005b005b34801561017f57600080fd5b5061019a60048036038101906101959190612853565b6105f3565b6040516101a79190612db1565b60405180910390f35b3480156101bc57600080fd5b506101c561066d565b6040516101d29190612dcc565b60405180910390f35b6101f560048036038101906101f091906128ad565b6106ff565b005b34801561020357600080fd5b5061021e600480360381019061021991906128ad565b610911565b60405161022b9190612d13565b60405180910390f35b34801561024057600080fd5b5061025b600480360381019061025691906127e6565b610996565b005b34801561026957600080fd5b50610272610aae565b60405161027f919061308e565b60405180910390f35b34801561029457600080fd5b5061029d610abb565b6040516102aa919061308e565b60405180910390f35b3480156102bf57600080fd5b506102da60048036038101906102d591906126d0565b610ac1565b005b3480156102e857600080fd5b5061030360048036038101906102fe91906127e6565b610b21565b604051610310919061308e565b60405180910390f35b34801561032557600080fd5b5061032e610bc6565b60405161033b919061308e565b60405180910390f35b34801561035057600080fd5b50610359610bcc565b005b34801561036757600080fd5b50610382600480360381019061037d91906126d0565b610d0a565b005b34801561039057600080fd5b506103ab60048036038101906103a691906128ad565b610d2a565b6040516103b8919061308e565b60405180910390f35b3480156103cd57600080fd5b506103e860048036038101906103e391906128ad565b610d9b565b6040516103f59190612d13565b60405180910390f35b34801561040a57600080fd5b5061042560048036038101906104209190612663565b610e4d565b604051610432919061308e565b60405180910390f35b34801561044757600080fd5b50610450610f05565b60405161045d919061308e565b60405180910390f35b34801561047257600080fd5b5061047b610f0b565b005b34801561048957600080fd5b50610492610f93565b60405161049f919061308e565b60405180910390f35b3480156104b457600080fd5b506104bd610f9d565b6040516104ca9190612d13565b60405180910390f35b3480156104df57600080fd5b506104e8610fc7565b6040516104f59190612dcc565b60405180910390f35b34801561050a57600080fd5b50610525600480360381019061052091906127a6565b611059565b005b34801561053357600080fd5b5061054e60048036038101906105499190612723565b61106f565b005b34801561055c57600080fd5b50610577600480360381019061057291906128ad565b6110d1565b6040516105849190612dcc565b60405180910390f35b34801561059957600080fd5b506105b460048036038101906105af9190612690565b611178565b6040516105c19190612db1565b60405180910390f35b3480156105d657600080fd5b506105f160048036038101906105ec9190612663565b61120c565b005b60007f780e9d63000000000000000000000000000000000000000000000000000000007bffffffffffffffffffffffffffffffffffffffffffffffffffffffff1916827bffffffffffffffffffffffffffffffffffffffffffffffffffffffff19161480610666575061066582611304565b5b9050919050565b60606000805461067c906132be565b80601f01602080910402602001604051908101604052809291908181526020018280546106a8906132be565b80156106f55780601f106106ca576101008083540402835291602001916106f5565b820191906000526020600020905b8154815290600101906020018083116106d857829003601f168201915b5050505050905090565b60011515601060009054906101000a900473ffffffffffffffffffffffffffffffffffffffff1673ffffffffffffffffffffffffffffffffffffffff166335f1b834336040518263ffffffff1660e01b815260040161075e9190612d13565b60206040518083038186803b15801561077657600080fd5b505afa15801561078a573d6000803e3d6000fd5b505050506040513d601f19601f820116820180604052508101906107ae9190612826565b1515146107f0576040517f08c379a00000000000000000000000000000000000000000000000000000000081526004016107e790612f2e565b60405180910390fd5b600e54600c5410610836576040517f08c379a000000000000000000000000000000000000000000000000000000000815260040161082d90612fae565b60405180910390fd5b6001600c6000828254610849919061314d565b92505081905550600f60009054906101000a900473ffffffffffffffffffffffffffffffffffffffff1673ffffffffffffffffffffffffffffffffffffffff166323b872dd3330846040518463ffffffff1660e01b81526004016108af93929190612d2e565b602060405180830381600087803b1580156108c957600080fd5b505af11580156108dd573d6000803e3d6000fd5b505050506040513d601f19601f820116820180604052508101906109019190612826565b5061090e33600c546113e6565b50565b600061091c82611404565b61095b576040517f08c379a000000000000000000000000000000000000000000000000000000000815260040161095290612fee565b60405180910390fd5b6004600083815260200190815260200160002060009054906101000a900473ffffffffffffffffffffffffffffffffffffffff169050919050565b60006109a182610d9b565b90508073ffffffffffffffffffffffffffffffffffffffff168373ffffffffffffffffffffffffffffffffffffffff161415610a12576040517f08c379a0000000000000000000000000000000000000000000000000000000008152600401610a099061302e565b60405180910390fd5b8073ffffffffffffffffffffffffffffffffffffffff16610a31611470565b73ffffffffffffffffffffffffffffffffffffffff161480610a605750610a5f81610a5a611470565b611178565b5b610a9f576040517f08c379a0000000000000000000000000000000000000000000000000000000008152600401610a9690612f4e565b60405180910390fd5b610aa98383611478565b505050565b6000600880549050905090565b600e5481565b610ad2610acc611470565b82611531565b610b11576040517f08c379a0000000000000000000000000000000000000000000000000000000008152600401610b089061304e565b60405180910390fd5b610b1c83838361160f565b505050565b6000610b2c83610e4d565b8210610b6d576040517f08c379a0000000000000000000000000000000000000000000000000000000008152600401610b6490612e0e565b60405180910390fd5b600660008473ffffffffffffffffffffffffffffffffffffffff1673ffffffffffffffffffffffffffffffffffffffff168152602001908152602001600020600083815260200190815260200160002054905092915050565b600b5481565b610bd4611470565b73ffffffffffffffffffffffffffffffffffffffff16610bf2610f9d565b73ffffffffffffffffffffffffffffffffffffffff1614610c48576040517f08c379a0000000000000000000000000000000000000000000000000000000008152600401610c3f9061300e565b60405180910390fd5b6000610c52610f9d565b9050600047905060008273ffffffffffffffffffffffffffffffffffffffff1682604051610c7f90612cfe565b60006040518083038185875af1925050503d8060008114610cbc576040519150601f19603f3d011682016040523d82523d6000602084013e610cc1565b606091505b5050905080610d05576040517f08c379a0000000000000000000000000000000000000000000000000000000008152600401610cfc90612eae565b60405180910390fd5b505050565b610d258383836040518060200160405280600081525061106f565b505050565b6000610d34610aae565b8210610d75576040517f08c379a0000000000000000000000000000000000000000000000000000000008152600401610d6c9061306e565b60405180910390fd5b60088281548110610d8957610d88613457565b5b90600052602060002001549050919050565b6000806002600084815260200190815260200160002060009054906101000a900473ffffffffffffffffffffffffffffffffffffffff169050600073ffffffffffffffffffffffffffffffffffffffff168173ffffffffffffffffffffffffffffffffffffffff161415610e44576040517f08c379a0000000000000000000000000000000000000000000000000000000008152600401610e3b90612f8e565b60405180910390fd5b80915050919050565b60008073ffffffffffffffffffffffffffffffffffffffff168273ffffffffffffffffffffffffffffffffffffffff161415610ebe576040517f08c379a0000000000000000000000000000000000000000000000000000000008152600401610eb590612f6e565b60405180910390fd5b600360008373ffffffffffffffffffffffffffffffffffffffff1673ffffffffffffffffffffffffffffffffffffffff168152602001908152602001600020549050919050565b600c5481565b610f13611470565b73ffffffffffffffffffffffffffffffffffffffff16610f31610f9d565b73ffffffffffffffffffffffffffffffffffffffff1614610f87576040517f08c379a0000000000000000000000000000000000000000000000000000000008152600401610f7e9061300e565b60405180910390fd5b610f916000611876565b565b6000600b54905090565b6000600a60009054906101000a900473ffffffffffffffffffffffffffffffffffffffff16905090565b606060018054610fd6906132be565b80601f0160208091040260200160405190810160405280929190818152602001828054611002906132be565b801561104f5780601f106110245761010080835404028352916020019161104f565b820191906000526020600020905b81548152906001019060200180831161103257829003601f168201915b5050505050905090565b61106b611064611470565b838361193c565b5050565b61108061107a611470565b83611531565b6110bf576040517f08c379a00000000000000000000000000000000000000000000000000000000081526004016110b69061304e565b60405180910390fd5b6110cb84848484611aa9565b50505050565b60606110dc82611404565b61111b576040517f08c379a000000000000000000000000000000000000000000000000000000000815260040161111290612dee565b60405180910390fd5b6000611125611b05565b905060008151116111455760405180602001604052806000815250611170565b8061114f84611b97565b604051602001611160929190612ccf565b6040516020818303038152906040525b915050919050565b6000600560008473ffffffffffffffffffffffffffffffffffffffff1673ffffffffffffffffffffffffffffffffffffffff16815260200190815260200160002060008373ffffffffffffffffffffffffffffffffffffffff1673ffffffffffffffffffffffffffffffffffffffff16815260200190815260200160002060009054906101000a900460ff16905092915050565b611214611470565b73ffffffffffffffffffffffffffffffffffffffff16611232610f9d565b73ffffffffffffffffffffffffffffffffffffffff1614611288576040517f08c379a000000000000000000000000000000000000000000000000000000000815260040161127f9061300e565b60405180910390fd5b600073ffffffffffffffffffffffffffffffffffffffff168173ffffffffffffffffffffffffffffffffffffffff1614156112f8576040517f08c379a00000000000000000000000000000000000000000000000000000000081526004016112ef90612e4e565b60405180910390fd5b61130181611876565b50565b60007f80ac58cd000000000000000000000000000000000000000000000000000000007bffffffffffffffffffffffffffffffffffffffffffffffffffffffff1916827bffffffffffffffffffffffffffffffffffffffffffffffffffffffff191614806113cf57507f5b5e139f000000000000000000000000000000000000000000000000000000007bffffffffffffffffffffffffffffffffffffffffffffffffffffffff1916827bffffffffffffffffffffffffffffffffffffffffffffffffffffffff1916145b806113df57506113de82611cf8565b5b9050919050565b611400828260405180602001604052806000815250611d62565b5050565b60008073ffffffffffffffffffffffffffffffffffffffff166002600084815260200190815260200160002060009054906101000a900473ffffffffffffffffffffffffffffffffffffffff1673ffffffffffffffffffffffffffffffffffffffff1614159050919050565b600033905090565b816004600083815260200190815260200160002060006101000a81548173ffffffffffffffffffffffffffffffffffffffff021916908373ffffffffffffffffffffffffffffffffffffffff160217905550808273ffffffffffffffffffffffffffffffffffffffff166114eb83610d9b565b73ffffffffffffffffffffffffffffffffffffffff167f8c5be1e5ebec7d5bd14f71427d1e84f3dd0314c0f7b2291e5b200ac8c7c3b92560405160405180910390a45050565b600061153c82611404565b61157b576040517f08c379a000000000000000000000000000000000000000000000000000000000815260040161157290612f0e565b60405180910390fd5b600061158683610d9b565b90508073ffffffffffffffffffffffffffffffffffffffff168473ffffffffffffffffffffffffffffffffffffffff1614806115f557508373ffffffffffffffffffffffffffffffffffffffff166115dd84610911565b73ffffffffffffffffffffffffffffffffffffffff16145b8061160657506116058185611178565b5b91505092915050565b8273ffffffffffffffffffffffffffffffffffffffff1661162f82610d9b565b73ffffffffffffffffffffffffffffffffffffffff1614611685576040517f08c379a000000000000000000000000000000000000000000000000000000000815260040161167c90612e6e565b60405180910390fd5b600073ffffffffffffffffffffffffffffffffffffffff168273ffffffffffffffffffffffffffffffffffffffff1614156116f5576040517f08c379a00000000000000000000000000000000000000000000000000000000081526004016116ec90612ece565b60405180910390fd5b611700838383611dbd565b61170b600082611478565b6001600360008573ffffffffffffffffffffffffffffffffffffffff1673ffffffffffffffffffffffffffffffffffffffff168152602001908152602001600020600082825461175b91906131d4565b925050819055506001600360008473ffffffffffffffffffffffffffffffffffffffff1673ffffffffffffffffffffffffffffffffffffffff16815260200190815260200160002060008282546117b2919061314d565b92505081905550816002600083815260200190815260200160002060006101000a81548173ffffffffffffffffffffffffffffffffffffffff021916908373ffffffffffffffffffffffffffffffffffffffff160217905550808273ffffffffffffffffffffffffffffffffffffffff168473ffffffffffffffffffffffffffffffffffffffff167fddf252ad1be2c89b69c2b068fc378daa952ba7f163c4a11628f55a4df523b3ef60405160405180910390a4611871838383611ed1565b505050565b6000600a60009054906101000a900473ffffffffffffffffffffffffffffffffffffffff16905081600a60006101000a81548173ffffffffffffffffffffffffffffffffffffffff021916908373ffffffffffffffffffffffffffffffffffffffff1602179055508173ffffffffffffffffffffffffffffffffffffffff168173ffffffffffffffffffffffffffffffffffffffff167f8be0079c531659141344cd1fd0a4f28419497f9722a3daafe3b4186f6b6457e060405160405180910390a35050565b8173ffffffffffffffffffffffffffffffffffffffff168373ffffffffffffffffffffffffffffffffffffffff1614156119ab576040517f08c379a00000000000000000000000000000000000000000000000000000000081526004016119a290612eee565b60405180910390fd5b80600560008573ffffffffffffffffffffffffffffffffffffffff1673ffffffffffffffffffffffffffffffffffffffff16815260200190815260200160002060008473ffffffffffffffffffffffffffffffffffffffff1673ffffffffffffffffffffffffffffffffffffffff16815260200190815260200160002060006101000a81548160ff0219169083151502179055508173ffffffffffffffffffffffffffffffffffffffff168373ffffffffffffffffffffffffffffffffffffffff167f17307eab39ab6107e8899845ad3d59bd9653f200f220920489ca2b5937696c3183604051611a9c9190612db1565b60405180910390a3505050565b611ab484848461160f565b611ac084848484611ed6565b611aff576040517f08c379a0000000000000000000000000000000000000000000000000000000008152600401611af690612e2e565b60405180910390fd5b50505050565b6060600d8054611b14906132be565b80601f0160208091040260200160405190810160405280929190818152602001828054611b40906132be565b8015611b8d5780601f10611b6257610100808354040283529160200191611b8d565b820191906000526020600020905b815481529060010190602001808311611b7057829003601f168201915b5050505050905090565b60606000821415611bdf576040518060400160405280600181526020017f30000000000000000000000000000000000000000000000000000000000000008152509050611cf3565b600082905060005b60008214611c11578080611bfa90613321565b915050600a82611c0a91906131a3565b9150611be7565b60008167ffffffffffffffff811115611c2d57611c2c613486565b5b6040519080825280601f01601f191660200182016040528015611c5f5781602001600182028036833780820191505090505b5090505b60008514611cec57600182611c7891906131d4565b9150600a85611c87919061336a565b6030611c93919061314d565b60f81b818381518110611ca957611ca8613457565b5b60200101907effffffffffffffffffffffffffffffffffffffffffffffffffffffffffffff1916908160001a905350600a85611ce591906131a3565b9450611c63565b8093505050505b919050565b60007f01ffc9a7000000000000000000000000000000000000000000000000000000007bffffffffffffffffffffffffffffffffffffffffffffffffffffffff1916827bffffffffffffffffffffffffffffffffffffffffffffffffffffffff1916149050919050565b611d6c838361206d565b611d796000848484611ed6565b611db8576040517f08c379a0000000000000000000000000000000000000000000000000000000008152600401611daf90612e2e565b60405180910390fd5b505050565b611dc8838383612247565b600073ffffffffffffffffffffffffffffffffffffffff168373ffffffffffffffffffffffffffffffffffffffff161415611e0b57611e068161224c565b611e4a565b8173ffffffffffffffffffffffffffffffffffffffff168373ffffffffffffffffffffffffffffffffffffffff1614611e4957611e488382612295565b5b5b600073ffffffffffffffffffffffffffffffffffffffff168273ffffffffffffffffffffffffffffffffffffffff161415611e8d57611e8881612402565b611ecc565b8273ffffffffffffffffffffffffffffffffffffffff168273ffffffffffffffffffffffffffffffffffffffff1614611ecb57611eca82826124d3565b5b5b505050565b505050565b6000611ef78473ffffffffffffffffffffffffffffffffffffffff16612552565b15612060578373ffffffffffffffffffffffffffffffffffffffff1663150b7a02611f20611470565b8786866040518563ffffffff1660e01b8152600401611f429493929190612d65565b602060405180830381600087803b158015611f5c57600080fd5b505af1925050508015611f8d57506040513d601f19601f82011682018060405250810190611f8a9190612880565b60015b612010573d8060008114611fbd576040519150601f19603f3d011682016040523d82523d6000602084013e611fc2565b606091505b50600081511415612008576040517f08c379a0000000000000000000000000000000000000000000000000000000008152600401611fff90612e2e565b60405180910390fd5b805181602001fd5b63150b7a0260e01b7bffffffffffffffffffffffffffffffffffffffffffffffffffffffff1916817bffffffffffffffffffffffffffffffffffffffffffffffffffffffff191614915050612065565b600190505b949350505050565b600073ffffffffffffffffffffffffffffffffffffffff168273ffffffffffffffffffffffffffffffffffffffff1614156120dd576040517f08c379a00000000000000000000000000000000000000000000000000000000081526004016120d490612fce565b60405180910390fd5b6120e681611404565b15612126576040517f08c379a000000000000000000000000000000000000000000000000000000000815260040161211d90612e8e565b60405180910390fd5b61213260008383611dbd565b6001600360008473ffffffffffffffffffffffffffffffffffffffff1673ffffffffffffffffffffffffffffffffffffffff1681526020019081526020016000206000828254612182919061314d565b92505081905550816002600083815260200190815260200160002060006101000a81548173ffffffffffffffffffffffffffffffffffffffff021916908373ffffffffffffffffffffffffffffffffffffffff160217905550808273ffffffffffffffffffffffffffffffffffffffff16600073ffffffffffffffffffffffffffffffffffffffff167fddf252ad1be2c89b69c2b068fc378daa952ba7f163c4a11628f55a4df523b3ef60405160405180910390a461224360008383611ed1565b5050565b505050565b6008805490506009600083815260200190815260200160002081905550600881908060018154018082558091505060019003906000526020600020016000909190919091505550565b600060016122a284610e4d565b6122ac91906131d4565b9050600060076000848152602001908152602001600020549050818114612391576000600660008673ffffffffffffffffffffffffffffffffffffffff1673ffffffffffffffffffffffffffffffffffffffff168152602001908152602001600020600084815260200190815260200160002054905080600660008773ffffffffffffffffffffffffffffffffffffffff1673ffffffffffffffffffffffffffffffffffffffff168152602001908152602001600020600084815260200190815260200160002081905550816007600083815260200190815260200160002081905550505b6007600084815260200190815260200160002060009055600660008573ffffffffffffffffffffffffffffffffffffffff1673ffffffffffffffffffffffffffffffffffffffff16815260200190815260200160002060008381526020019081526020016000206000905550505050565b6000600160088054905061241691906131d4565b905060006009600084815260200190815260200160002054905060006008838154811061244657612445613457565b5b90600052602060002001549050806008838154811061246857612467613457565b5b9060005260206000200181905550816009600083815260200190815260200160002081905550600960008581526020019081526020016000206000905560088054806124b7576124b6613428565b5b6001900381819060005260206000200160009055905550505050565b60006124de83610e4d565b905081600660008573ffffffffffffffffffffffffffffffffffffffff1673ffffffffffffffffffffffffffffffffffffffff168152602001908152602001600020600083815260200190815260200160002081905550806007600084815260200190815260200160002081905550505050565b6000808273ffffffffffffffffffffffffffffffffffffffff163b119050919050565b6000612588612583846130ce565b6130a9565b9050828152602081018484840111156125a4576125a36134ba565b5b6125af84828561327c565b509392505050565b6000813590506125c681613a51565b92915050565b6000813590506125db81613a68565b92915050565b6000815190506125f081613a68565b92915050565b60008135905061260581613a7f565b92915050565b60008151905061261a81613a7f565b92915050565b600082601f830112612635576126346134b5565b5b8135612645848260208601612575565b91505092915050565b60008135905061265d81613a96565b92915050565b600060208284031215612679576126786134c4565b5b6000612687848285016125b7565b91505092915050565b600080604083850312156126a7576126a66134c4565b5b60006126b5858286016125b7565b92505060206126c6858286016125b7565b9150509250929050565b6000806000606084860312156126e9576126e86134c4565b5b60006126f7868287016125b7565b9350506020612708868287016125b7565b92505060406127198682870161264e565b9150509250925092565b6000806000806080858703121561273d5761273c6134c4565b5b600061274b878288016125b7565b945050602061275c878288016125b7565b935050604061276d8782880161264e565b925050606085013567ffffffffffffffff81111561278e5761278d6134bf565b5b61279a87828801612620565b91505092959194509250565b600080604083850312156127bd576127bc6134c4565b5b60006127cb858286016125b7565b92505060206127dc858286016125cc565b9150509250929050565b600080604083850312156127fd576127fc6134c4565b5b600061280b858286016125b7565b925050602061281c8582860161264e565b9150509250929050565b60006020828403121561283c5761283b6134c4565b5b600061284a848285016125e1565b91505092915050565b600060208284031215612869576128686134c4565b5b6000612877848285016125f6565b91505092915050565b600060208284031215612896576128956134c4565b5b60006128a48482850161260b565b91505092915050565b6000602082840312156128c3576128c26134c4565b5b60006128d18482850161264e565b91505092915050565b6128e381613208565b82525050565b6128f28161321a565b82525050565b6000612903826130ff565b61290d8185613115565b935061291d81856020860161328b565b612926816134c9565b840191505092915050565b600061293c8261310a565b6129468185613131565b935061295681856020860161328b565b61295f816134c9565b840191505092915050565b60006129758261310a565b61297f8185613142565b935061298f81856020860161328b565b80840191505092915050565b60006129a8600983613131565b91506129b3826134da565b602082019050919050565b60006129cb602b83613131565b91506129d682613503565b604082019050919050565b60006129ee603283613131565b91506129f982613552565b604082019050919050565b6000612a11602683613131565b9150612a1c826135a1565b604082019050919050565b6000612a34602583613131565b9150612a3f826135f0565b604082019050919050565b6000612a57601c83613131565b9150612a628261363f565b602082019050919050565b6000612a7a601483613131565b9150612a8582613668565b602082019050919050565b6000612a9d602483613131565b9150612aa882613691565b604082019050919050565b6000612ac0601983613131565b9150612acb826136e0565b602082019050919050565b6000612ae3602c83613131565b9150612aee82613709565b604082019050919050565b6000612b06601783613131565b9150612b1182613758565b602082019050919050565b6000612b29603883613131565b9150612b3482613781565b604082019050919050565b6000612b4c602a83613131565b9150612b57826137d0565b604082019050919050565b6000612b6f602983613131565b9150612b7a8261381f565b604082019050919050565b6000612b92601883613131565b9150612b9d8261386e565b602082019050919050565b6000612bb5602083613131565b9150612bc082613897565b602082019050919050565b6000612bd8602c83613131565b9150612be3826138c0565b604082019050919050565b6000612bfb600583613142565b9150612c068261390f565b600582019050919050565b6000612c1e602083613131565b9150612c2982613938565b602082019050919050565b6000612c41602183613131565b9150612c4c82613961565b604082019050919050565b6000612c64600083613126565b9150612c6f826139b0565b600082019050919050565b6000612c87603183613131565b9150612c92826139b3565b604082019050919050565b6000612caa602c83613131565b9150612cb582613a02565b604082019050919050565b612cc981613272565b82525050565b6000612cdb828561296a565b9150612ce7828461296a565b9150612cf282612bee565b91508190509392505050565b6000612d0982612c57565b9150819050919050565b6000602082019050612d2860008301846128da565b92915050565b6000606082019050612d4360008301866128da565b612d5060208301856128da565b612d5d6040830184612cc0565b949350505050565b6000608082019050612d7a60008301876128da565b612d8760208301866128da565b612d946040830185612cc0565b8181036060830152612da681846128f8565b905095945050505050565b6000602082019050612dc660008301846128e9565b92915050565b60006020820190508181036000830152612de68184612931565b905092915050565b60006020820190508181036000830152612e078161299b565b9050919050565b60006020820190508181036000830152612e27816129be565b9050919050565b60006020820190508181036000830152612e47816129e1565b9050919050565b60006020820190508181036000830152612e6781612a04565b9050919050565b60006020820190508181036000830152612e8781612a27565b9050919050565b60006020820190508181036000830152612ea781612a4a565b9050919050565b60006020820190508181036000830152612ec781612a6d565b9050919050565b60006020820190508181036000830152612ee781612a90565b9050919050565b60006020820190508181036000830152612f0781612ab3565b9050919050565b60006020820190508181036000830152612f2781612ad6565b9050919050565b60006020820190508181036000830152612f4781612af9565b9050919050565b60006020820190508181036000830152612f6781612b1c565b9050919050565b60006020820190508181036000830152612f8781612b3f565b9050919050565b60006020820190508181036000830152612fa781612b62565b9050919050565b60006020820190508181036000830152612fc781612b85565b9050919050565b60006020820190508181036000830152612fe781612ba8565b9050919050565b6000602082019050818103600083015261300781612bcb565b9050919050565b6000602082019050818103600083015261302781612c11565b9050919050565b6000602082019050818103600083015261304781612c34565b9050919050565b6000602082019050818103600083015261306781612c7a565b9050919050565b6000602082019050818103600083015261308781612c9d565b9050919050565b60006020820190506130a36000830184612cc0565b92915050565b60006130b36130c4565b90506130bf82826132f0565b919050565b6000604051905090565b600067ffffffffffffffff8211156130e9576130e8613486565b5b6130f2826134c9565b9050602081019050919050565b600081519050919050565b600081519050919050565b600082825260208201905092915050565b600081905092915050565b600082825260208201905092915050565b600081905092915050565b600061315882613272565b915061316383613272565b9250827fffffffffffffffffffffffffffffffffffffffffffffffffffffffffffffffff038211156131985761319761339b565b5b828201905092915050565b60006131ae82613272565b91506131b983613272565b9250826131c9576131c86133ca565b5b828204905092915050565b60006131df82613272565b91506131ea83613272565b9250828210156131fd576131fc61339b565b5b828203905092915050565b600061321382613252565b9050919050565b60008115159050919050565b60007fffffffff0000000000000000000000000000000000000000000000000000000082169050919050565b600073ffffffffffffffffffffffffffffffffffffffff82169050919050565b6000819050919050565b82818337600083830152505050565b60005b838110156132a957808201518184015260208101905061328e565b838111156132b8576000848401525b50505050565b600060028204905060018216806132d657607f821691505b602082108114156132ea576132e96133f9565b5b50919050565b6132f9826134c9565b810181811067ffffffffffffffff8211171561331857613317613486565b5b80604052505050565b600061332c82613272565b91507fffffffffffffffffffffffffffffffffffffffffffffffffffffffffffffffff82141561335f5761335e61339b565b5b600182019050919050565b600061337582613272565b915061338083613272565b9250826133905761338f6133ca565b5b828206905092915050565b7f4e487b7100000000000000000000000000000000000000000000000000000000600052601160045260246000fd5b7f4e487b7100000000000000000000000000000000000000000000000000000000600052601260045260246000fd5b7f4e487b7100000000000000000000000000000000000000000000000000000000600052602260045260246000fd5b7f4e487b7100000000000000000000000000000000000000000000000000000000600052603160045260246000fd5b7f4e487b7100000000000000000000000000000000000000000000000000000000600052603260045260246000fd5b7f4e487b7100000000000000000000000000000000000000000000000000000000600052604160045260246000fd5b600080fd5b600080fd5b600080fd5b600080fd5b6000601f19601f8301169050919050565b7f4e6f742045786973740000000000000000000000000000000000000000000000600082015250565b7f455243373231456e756d657261626c653a206f776e657220696e646578206f7560008201527f74206f6620626f756e6473000000000000000000000000000000000000000000602082015250565b7f4552433732313a207472616e7366657220746f206e6f6e20455243373231526560008201527f63656976657220696d706c656d656e7465720000000000000000000000000000602082015250565b7f4f776e61626c653a206e6577206f776e657220697320746865207a65726f206160008201527f6464726573730000000000000000000000000000000000000000000000000000602082015250565b7f4552433732313a207472616e736665722066726f6d20696e636f72726563742060008201527f6f776e6572000000000000000000000000000000000000000000000000000000602082015250565b7f4552433732313a20746f6b656e20616c7265616479206d696e74656400000000600082015250565b7f4661696c656420746f2073656e64204574686572000000000000000000000000600082015250565b7f4552433732313a207472616e7366657220746f20746865207a65726f2061646460008201527f7265737300000000000000000000000000000000000000000000000000000000602082015250565b7f4552433732313a20617070726f766520746f2063616c6c657200000000000000600082015250565b7f4552433732313a206f70657261746f7220717565727920666f72206e6f6e657860008201527f697374656e7420746f6b656e0000000000000000000000000000000000000000602082015250565b7f596f75206172652020612066616c7365206d656d626572000000000000000000600082015250565b7f4552433732313a20617070726f76652063616c6c6572206973206e6f74206f7760008201527f6e6572206e6f7220617070726f76656420666f7220616c6c0000000000000000602082015250565b7f4552433732313a2062616c616e636520717565727920666f7220746865207a6560008201527f726f206164647265737300000000000000000000000000000000000000000000602082015250565b7f4552433732313a206f776e657220717565727920666f72206e6f6e657869737460008201527f656e7420746f6b656e0000000000000000000000000000000000000000000000602082015250565b7f536f7272792062726f20697473206861732066696e6973680000000000000000600082015250565b7f4552433732313a206d696e7420746f20746865207a65726f2061646472657373600082015250565b7f4552433732313a20617070726f76656420717565727920666f72206e6f6e657860008201527f697374656e7420746f6b656e0000000000000000000000000000000000000000602082015250565b7f2e6a736f6e000000000000000000000000000000000000000000000000000000600082015250565b7f4f776e61626c653a2063616c6c6572206973206e6f7420746865206f776e6572600082015250565b7f4552433732313a20617070726f76616c20746f2063757272656e74206f776e6560008201527f7200000000000000000000000000000000000000000000000000000000000000602082015250565b50565b7f4552433732313a207472616e736665722063616c6c6572206973206e6f74206f60008201527f776e6572206e6f7220617070726f766564000000000000000000000000000000602082015250565b7f455243373231456e756d657261626c653a20676c6f62616c20696e646578206f60008201527f7574206f6620626f756e64730000000000000000000000000000000000000000602082015250565b613a5a81613208565b8114613a6557600080fd5b50565b613a718161321a565b8114613a7c57600080fd5b50565b613a8881613226565b8114613a9357600080fd5b50565b613a9f81613272565b8114613aaa57600080fd5b5056fea2646970667358221220052416029649192b742ba49b976b591199728730bfdf3b38ea3da217ee5b111464736f6c63430008070033",
  "linkReferences": {},
  "deployedLinkReferences": {}
}