{
  "_format": "hh-sol-artifact-1",
  "contractName": "OCH",
  "sourceName": "contracts/OCH.sol",
  "abi": [
    {
      "inputs": [
        {
          "internalType": "string",
          "name": "baseURI",
          "type": "string"
        },
        {
          "internalType": "address",
          "name": "_tokenAddress",
          "type": "address"
        }
      ],
      "stateMutability": "nonpayable",
      "type": "constructor"
    },
    {
      "anonymous": false,
      "inputs": [
        {
          "indexed": true,
          "internalType": "address",
          "name": "owner",
          "type": "address"
        },
        {
          "indexed": true,
          "internalType": "address",
          "name": "approved",
          "type": "address"
        },
        {
          "indexed": true,
          "internalType": "uint256",
          "name": "tokenId",
          "type": "uint256"
        }
      ],
      "name": "Approval",
      "type": "event"
    },
    {
      "anonymous": false,
      "inputs": [
        {
          "indexed": true,
          "internalType": "address",
          "name": "owner",
          "type": "address"
        },
        {
          "indexed": true,
          "internalType": "address",
          "name": "operator",
          "type": "address"
        },
        {
          "indexed": false,
          "internalType": "bool",
          "name": "approved",
          "type": "bool"
        }
      ],
      "name": "ApprovalForAll",
      "type": "event"
    },
    {
      "anonymous": false,
      "inputs": [
        {
          "indexed": true,
          "internalType": "address",
          "name": "previousOwner",
          "type": "address"
        },
        {
          "indexed": true,
          "internalType": "address",
          "name": "newOwner",
          "type": "address"
        }
      ],
      "name": "OwnershipTransferred",
      "type": "event"
    },
    {
      "anonymous": false,
      "inputs": [
        {
          "indexed": true,
          "internalType": "address",
          "name": "from",
          "type": "address"
        },
        {
          "indexed": true,
          "internalType": "address",
          "name": "to",
          "type": "address"
        },
        {
          "indexed": true,
          "internalType": "uint256",
          "name": "tokenId",
          "type": "uint256"
        }
      ],
      "name": "Transfer",
      "type": "event"
    },
    {
      "stateMutability": "payable",
      "type": "fallback"
    },
    {
      "inputs": [
        {
          "internalType": "address",
          "name": "sender",
          "type": "address"
        }
      ],
      "name": "AlreadyMinted",
      "outputs": [
        {
          "internalType": "bool",
          "name": "",
          "type": "bool"
        }
      ],
      "stateMutability": "view",
      "type": "function"
    },
    {
      "inputs": [],
      "name": "Maximum",
      "outputs": [
        {
          "internalType": "uint256",
          "name": "",
          "type": "uint256"
        }
      ],
      "stateMutability": "view",
      "type": "function"
    },
    {
      "inputs": [
        {
          "internalType": "uint256",
          "name": "_amount",
          "type": "uint256"
        }
      ],
      "name": "Mint",
      "outputs": [],
      "stateMutability": "payable",
      "type": "function"
    },
    {
      "inputs": [],
      "name": "NftPrice",
      "outputs": [
        {
          "internalType": "uint256",
          "name": "",
          "type": "uint256"
        }
      ],
      "stateMutability": "view",
      "type": "function"
    },
    {
      "inputs": [
        {
          "internalType": "address",
          "name": "to",
          "type": "address"
        },
        {
          "internalType": "uint256",
          "name": "tokenId",
          "type": "uint256"
        }
      ],
      "name": "approve",
      "outputs": [],
      "stateMutability": "nonpayable",
      "type": "function"
    },
    {
      "inputs": [
        {
          "internalType": "address",
          "name": "owner",
          "type": "address"
        }
      ],
      "name": "balanceOf",
      "outputs": [
        {
          "internalType": "uint256",
          "name": "",
          "type": "uint256"
        }
      ],
      "stateMutability": "view",
      "type": "function"
    },
    {
      "inputs": [
        {
          "internalType": "uint256",
          "name": "tokenId",
          "type": "uint256"
        }
      ],
      "name": "getApproved",
      "outputs": [
        {
          "internalType": "address",
          "name": "",
          "type": "address"
        }
      ],
      "stateMutability": "view",
      "type": "function"
    },
    {
      "inputs": [],
      "name": "getMintingPrice",
      "outputs": [
        {
          "internalType": "uint256",
          "name": "",
          "type": "uint256"
        }
      ],
      "stateMutability": "view",
      "type": "function"
    },
    {
      "inputs": [
        {
          "internalType": "address",
          "name": "owner",
          "type": "address"
        },
        {
          "internalType": "address",
          "name": "operator",
          "type": "address"
        }
      ],
      "name": "isApprovedForAll",
      "outputs": [
        {
          "internalType": "bool",
          "name": "",
          "type": "bool"
        }
      ],
      "stateMutability": "view",
      "type": "function"
    },
    {
      "inputs": [],
      "name": "name",
      "outputs": [
        {
          "internalType": "string",
          "name": "",
          "type": "string"
        }
      ],
      "stateMutability": "view",
      "type": "function"
    },
    {
      "inputs": [],
      "name": "owner",
      "outputs": [
        {
          "internalType": "address",
          "name": "",
          "type": "address"
        }
      ],
      "stateMutability": "view",
      "type": "function"
    },
    {
      "inputs": [
        {
          "internalType": "uint256",
          "name": "tokenId",
          "type": "uint256"
        }
      ],
      "name": "ownerOf",
      "outputs": [
        {
          "internalType": "address",
          "name": "",
          "type": "address"
        }
      ],
      "stateMutability": "view",
      "type": "function"
    },
    {
      "inputs": [],
      "name": "renounceOwnership",
      "outputs": [],
      "stateMutability": "nonpayable",
      "type": "function"
    },
    {
      "inputs": [
        {
          "internalType": "address",
          "name": "from",
          "type": "address"
        },
        {
          "internalType": "address",
          "name": "to",
          "type": "address"
        },
        {
          "internalType": "uint256",
          "name": "tokenId",
          "type": "uint256"
        }
      ],
      "name": "safeTransferFrom",
      "outputs": [],
      "stateMutability": "nonpayable",
      "type": "function"
    },
    {
      "inputs": [
        {
          "internalType": "address",
          "name": "from",
          "type": "address"
        },
        {
          "internalType": "address",
          "name": "to",
          "type": "address"
        },
        {
          "internalType": "uint256",
          "name": "tokenId",
          "type": "uint256"
        },
        {
          "internalType": "bytes",
          "name": "_data",
          "type": "bytes"
        }
      ],
      "name": "safeTransferFrom",
      "outputs": [],
      "stateMutability": "nonpayable",
      "type": "function"
    },
    {
      "inputs": [
        {
          "internalType": "address",
          "name": "operator",
          "type": "address"
        },
        {
          "internalType": "bool",
          "name": "approved",
          "type": "bool"
        }
      ],
      "name": "setApprovalForAll",
      "outputs": [],
      "stateMutability": "nonpayable",
      "type": "function"
    },
    {
      "inputs": [
        {
          "internalType": "bytes4",
          "name": "interfaceId",
          "type": "bytes4"
        }
      ],
      "name": "supportsInterface",
      "outputs": [
        {
          "internalType": "bool",
          "name": "",
          "type": "bool"
        }
      ],
      "stateMutability": "view",
      "type": "function"
    },
    {
      "inputs": [],
      "name": "symbol",
      "outputs": [
        {
          "internalType": "string",
          "name": "",
          "type": "string"
        }
      ],
      "stateMutability": "view",
      "type": "function"
    },
    {
      "inputs": [
        {
          "internalType": "uint256",
          "name": "index",
          "type": "uint256"
        }
      ],
      "name": "tokenByIndex",
      "outputs": [
        {
          "internalType": "uint256",
          "name": "",
          "type": "uint256"
        }
      ],
      "stateMutability": "view",
      "type": "function"
    },
    {
      "inputs": [],
      "name": "tokenIds",
      "outputs": [
        {
          "internalType": "uint256",
          "name": "",
          "type": "uint256"
        }
      ],
      "stateMutability": "view",
      "type": "function"
    },
    {
      "inputs": [
        {
          "internalType": "address",
          "name": "owner",
          "type": "address"
        },
        {
          "internalType": "uint256",
          "name": "index",
          "type": "uint256"
        }
      ],
      "name": "tokenOfOwnerByIndex",
      "outputs": [
        {
          "internalType": "uint256",
          "name": "",
          "type": "uint256"
        }
      ],
      "stateMutability": "view",
      "type": "function"
    },
    {
      "inputs": [
        {
          "internalType": "uint256",
          "name": "tokenId",
          "type": "uint256"
        }
      ],
      "name": "tokenURI",
      "outputs": [
        {
          "internalType": "string",
          "name": "",
          "type": "string"
        }
      ],
      "stateMutability": "view",
      "type": "function"
    },
    {
      "inputs": [],
      "name": "totalSupply",
      "outputs": [
        {
          "internalType": "uint256",
          "name": "",
          "type": "uint256"
        }
      ],
      "stateMutability": "view",
      "type": "function"
    },
    {
      "inputs": [
        {
          "internalType": "address",
          "name": "from",
          "type": "address"
        },
        {
          "internalType": "address",
          "name": "to",
          "type": "address"
        },
        {
          "internalType": "uint256",
          "name": "tokenId",
          "type": "uint256"
        }
      ],
      "name": "transferFrom",
      "outputs": [],
      "stateMutability": "nonpayable",
      "type": "function"
    },
    {
      "inputs": [
        {
          "internalType": "address",
          "name": "newOwner",
          "type": "address"
        }
      ],
      "name": "transferOwnership",
      "outputs": [],
      "stateMutability": "nonpayable",
      "type": "function"
    },
    {
      "inputs": [],
      "name": "withdraw",
      "outputs": [],
      "stateMutability": "nonpayable",
      "type": "function"
    },
    {
      "stateMutability": "payable",
      "type": "receive"
    }
  ],
  "bytecode": "0x608060405260c8600b55600c600e553480156200001b57600080fd5b506040516200428e3803806200428e8339818101604052810190620000419190620003b7565b6040518060400160405280601b81526020017f4f6c65616e6a6920436861696e4c696e6b204861636b6174686f6e00000000008152506040518060400160405280600381526020017f4f434800000000000000000000000000000000000000000000000000000000008152508160009080519060200190620000c592919062000272565b508060019080519060200190620000de92919062000272565b50505062000101620000f5620001a460201b60201c565b620001ac60201b60201c565b81600d90805190602001906200011992919062000272565b5080600f60006101000a81548173ffffffffffffffffffffffffffffffffffffffff021916908373ffffffffffffffffffffffffffffffffffffffff16021790555080601060006101000a81548173ffffffffffffffffffffffffffffffffffffffff021916908373ffffffffffffffffffffffffffffffffffffffff1602179055505050620005ef565b600033905090565b6000600a60009054906101000a900473ffffffffffffffffffffffffffffffffffffffff16905081600a60006101000a81548173ffffffffffffffffffffffffffffffffffffffff021916908373ffffffffffffffffffffffffffffffffffffffff1602179055508173ffffffffffffffffffffffffffffffffffffffff168173ffffffffffffffffffffffffffffffffffffffff167f8be0079c531659141344cd1fd0a4f28419497f9722a3daafe3b4186f6b6457e060405160405180910390a35050565b8280546200028090620004e6565b90600052602060002090601f016020900481019282620002a45760008555620002f0565b82601f10620002bf57805160ff1916838001178555620002f0565b82800160010185558215620002f0579182015b82811115620002ef578251825591602001919060010190620002d2565b5b509050620002ff919062000303565b5090565b5b808211156200031e57600081600090555060010162000304565b5090565b600062000339620003338462000446565b6200041d565b905082815260208101848484011115620003585762000357620005b5565b5b62000365848285620004b0565b509392505050565b6000815190506200037e81620005d5565b92915050565b600082601f8301126200039c576200039b620005b0565b5b8151620003ae84826020860162000322565b91505092915050565b60008060408385031215620003d157620003d0620005bf565b5b600083015167ffffffffffffffff811115620003f257620003f1620005ba565b5b620004008582860162000384565b925050602062000413858286016200036d565b9150509250929050565b6000620004296200043c565b90506200043782826200051c565b919050565b6000604051905090565b600067ffffffffffffffff82111562000464576200046362000581565b5b6200046f82620005c4565b9050602081019050919050565b6000620004898262000490565b9050919050565b600073ffffffffffffffffffffffffffffffffffffffff82169050919050565b60005b83811015620004d0578082015181840152602081019050620004b3565b83811115620004e0576000848401525b50505050565b60006002820490506001821680620004ff57607f821691505b6020821081141562000516576200051562000552565b5b50919050565b6200052782620005c4565b810181811067ffffffffffffffff8211171562000549576200054862000581565b5b80604052505050565b7f4e487b7100000000000000000000000000000000000000000000000000000000600052602260045260246000fd5b7f4e487b7100000000000000000000000000000000000000000000000000000000600052604160045260246000fd5b600080fd5b600080fd5b600080fd5b600080fd5b6000601f19601f8301169050919050565b620005e0816200047c565b8114620005ec57600080fd5b50565b613c8f80620005ff6000396000f3fe6080604052600436106101855760003560e01c80636352211e116100d15780638da5cb5b1161008a578063b88d4fde11610064578063b88d4fde1461057f578063c87b56dd146105a8578063e985e9c5146105e5578063f2fde38b146106225761018c565b80638da5cb5b1461050057806395d89b411461052b578063a22cb465146105565761018c565b80636352211e146103dc57806370a0823114610419578063714cff5614610456578063715018a61461048157806377d2476214610498578063893cc576146104c35761018c565b8063181af9d61161013e57806330ae979c1161011857806330ae979c146103345780633ccfd60b1461035f57806342842e0e146103765780634f6ccce71461039f5761018c565b8063181af9d6146102a357806323b872dd146102ce5780632f745c59146102f75761018c565b806301ffc9a71461018e57806306fdde03146101cb57806307883703146101f6578063081812fc14610212578063095ea7b31461024f57806318160ddd146102785761018c565b3661018c57005b005b34801561019a57600080fd5b506101b560048036038101906101b09190612993565b61064b565b6040516101c29190612f14565b60405180910390f35b3480156101d757600080fd5b506101e06106c5565b6040516101ed9190612f2f565b60405180910390f35b610210600480360381019061020b91906129ed565b610757565b005b34801561021e57600080fd5b50610239600480360381019061023491906129ed565b6109f6565b6040516102469190612e76565b60405180910390f35b34801561025b57600080fd5b5061027660048036038101906102719190612926565b610a7b565b005b34801561028457600080fd5b5061028d610b93565b60405161029a9190613211565b60405180910390f35b3480156102af57600080fd5b506102b8610ba0565b6040516102c59190613211565b60405180910390f35b3480156102da57600080fd5b506102f560048036038101906102f09190612810565b610ba6565b005b34801561030357600080fd5b5061031e60048036038101906103199190612926565b610c06565b60405161032b9190613211565b60405180910390f35b34801561034057600080fd5b50610349610cab565b6040516103569190613211565b60405180910390f35b34801561036b57600080fd5b50610374610cb1565b005b34801561038257600080fd5b5061039d60048036038101906103989190612810565b610def565b005b3480156103ab57600080fd5b506103c660048036038101906103c191906129ed565b610e0f565b6040516103d39190613211565b60405180910390f35b3480156103e857600080fd5b5061040360048036038101906103fe91906129ed565b610e80565b6040516104109190612e76565b60405180910390f35b34801561042557600080fd5b50610440600480360381019061043b91906127a3565b610f32565b60405161044d9190613211565b60405180910390f35b34801561046257600080fd5b5061046b610fea565b6040516104789190613211565b60405180910390f35b34801561048d57600080fd5b50610496610ff0565b005b3480156104a457600080fd5b506104ad611078565b6040516104ba9190613211565b60405180910390f35b3480156104cf57600080fd5b506104ea60048036038101906104e591906127a3565b611082565b6040516104f79190612f14565b60405180910390f35b34801561050c57600080fd5b506105156110dd565b6040516105229190612e76565b60405180910390f35b34801561053757600080fd5b50610540611107565b60405161054d9190612f2f565b60405180910390f35b34801561056257600080fd5b5061057d600480360381019061057891906128e6565b611199565b005b34801561058b57600080fd5b506105a660048036038101906105a19190612863565b6111af565b005b3480156105b457600080fd5b506105cf60048036038101906105ca91906129ed565b611211565b6040516105dc9190612f2f565b60405180910390f35b3480156105f157600080fd5b5061060c600480360381019061060791906127d0565b6112b8565b6040516106199190612f14565b60405180910390f35b34801561062e57600080fd5b50610649600480360381019061064491906127a3565b61134c565b005b60007f780e9d63000000000000000000000000000000000000000000000000000000007bffffffffffffffffffffffffffffffffffffffffffffffffffffffff1916827bffffffffffffffffffffffffffffffffffffffffffffffffffffffff191614806106be57506106bd82611444565b5b9050919050565b6060600080546106d490613441565b80601f016020809104026020016040519081016040528092919081815260200182805461070090613441565b801561074d5780601f106107225761010080835404028352916020019161074d565b820191906000526020600020905b81548152906001019060200180831161073057829003601f168201915b5050505050905090565b601160003373ffffffffffffffffffffffffffffffffffffffff1673ffffffffffffffffffffffffffffffffffffffff16815260200190815260200160002060009054906101000a900460ff16156107e4576040517f08c379a00000000000000000000000000000000000000000000000000000000081526004016107db90612f71565b60405180910390fd5b60011515601060009054906101000a900473ffffffffffffffffffffffffffffffffffffffff1673ffffffffffffffffffffffffffffffffffffffff166335f1b834336040518263ffffffff1660e01b81526004016108439190612e76565b60206040518083038186803b15801561085b57600080fd5b505afa15801561086f573d6000803e3d6000fd5b505050506040513d601f19601f820116820180604052508101906108939190612966565b1515146108d5576040517f08c379a00000000000000000000000000000000000000000000000000000000081526004016108cc906130b1565b60405180910390fd5b600e54600c541061091b576040517f08c379a000000000000000000000000000000000000000000000000000000000815260040161091290613131565b60405180910390fd5b6001600c600082825461092e91906132d0565b92505081905550600f60009054906101000a900473ffffffffffffffffffffffffffffffffffffffff1673ffffffffffffffffffffffffffffffffffffffff166323b872dd3330846040518463ffffffff1660e01b815260040161099493929190612e91565b602060405180830381600087803b1580156109ae57600080fd5b505af11580156109c2573d6000803e3d6000fd5b505050506040513d601f19601f820116820180604052508101906109e69190612966565b506109f333600c54611526565b50565b6000610a0182611544565b610a40576040517f08c379a0000000000000000000000000000000000000000000000000000000008152600401610a3790613171565b60405180910390fd5b6004600083815260200190815260200160002060009054906101000a900473ffffffffffffffffffffffffffffffffffffffff169050919050565b6000610a8682610e80565b90508073ffffffffffffffffffffffffffffffffffffffff168373ffffffffffffffffffffffffffffffffffffffff161415610af7576040517f08c379a0000000000000000000000000000000000000000000000000000000008152600401610aee906131b1565b60405180910390fd5b8073ffffffffffffffffffffffffffffffffffffffff16610b166115b0565b73ffffffffffffffffffffffffffffffffffffffff161480610b455750610b4481610b3f6115b0565b6112b8565b5b610b84576040517f08c379a0000000000000000000000000000000000000000000000000000000008152600401610b7b906130d1565b60405180910390fd5b610b8e83836115b8565b505050565b6000600880549050905090565b600e5481565b610bb7610bb16115b0565b82611671565b610bf6576040517f08c379a0000000000000000000000000000000000000000000000000000000008152600401610bed906131d1565b60405180910390fd5b610c0183838361174f565b505050565b6000610c1183610f32565b8210610c52576040517f08c379a0000000000000000000000000000000000000000000000000000000008152600401610c4990612f91565b60405180910390fd5b600660008473ffffffffffffffffffffffffffffffffffffffff1673ffffffffffffffffffffffffffffffffffffffff168152602001908152602001600020600083815260200190815260200160002054905092915050565b600b5481565b610cb96115b0565b73ffffffffffffffffffffffffffffffffffffffff16610cd76110dd565b73ffffffffffffffffffffffffffffffffffffffff1614610d2d576040517f08c379a0000000000000000000000000000000000000000000000000000000008152600401610d2490613191565b60405180910390fd5b6000610d376110dd565b9050600047905060008273ffffffffffffffffffffffffffffffffffffffff1682604051610d6490612e61565b60006040518083038185875af1925050503d8060008114610da1576040519150601f19603f3d011682016040523d82523d6000602084013e610da6565b606091505b5050905080610dea576040517f08c379a0000000000000000000000000000000000000000000000000000000008152600401610de190613031565b60405180910390fd5b505050565b610e0a838383604051806020016040528060008152506111af565b505050565b6000610e19610b93565b8210610e5a576040517f08c379a0000000000000000000000000000000000000000000000000000000008152600401610e51906131f1565b60405180910390fd5b60088281548110610e6e57610e6d6135da565b5b90600052602060002001549050919050565b6000806002600084815260200190815260200160002060009054906101000a900473ffffffffffffffffffffffffffffffffffffffff169050600073ffffffffffffffffffffffffffffffffffffffff168173ffffffffffffffffffffffffffffffffffffffff161415610f29576040517f08c379a0000000000000000000000000000000000000000000000000000000008152600401610f2090613111565b60405180910390fd5b80915050919050565b60008073ffffffffffffffffffffffffffffffffffffffff168273ffffffffffffffffffffffffffffffffffffffff161415610fa3576040517f08c379a0000000000000000000000000000000000000000000000000000000008152600401610f9a906130f1565b60405180910390fd5b600360008373ffffffffffffffffffffffffffffffffffffffff1673ffffffffffffffffffffffffffffffffffffffff168152602001908152602001600020549050919050565b600c5481565b610ff86115b0565b73ffffffffffffffffffffffffffffffffffffffff166110166110dd565b73ffffffffffffffffffffffffffffffffffffffff161461106c576040517f08c379a000000000000000000000000000000000000000000000000000000000815260040161106390613191565b60405180910390fd5b61107660006119b6565b565b6000600b54905090565b600080601160008473ffffffffffffffffffffffffffffffffffffffff1673ffffffffffffffffffffffffffffffffffffffff16815260200190815260200160002060009054906101000a900460ff16905080915050919050565b6000600a60009054906101000a900473ffffffffffffffffffffffffffffffffffffffff16905090565b60606001805461111690613441565b80601f016020809104026020016040519081016040528092919081815260200182805461114290613441565b801561118f5780601f106111645761010080835404028352916020019161118f565b820191906000526020600020905b81548152906001019060200180831161117257829003601f168201915b5050505050905090565b6111ab6111a46115b0565b8383611a7c565b5050565b6111c06111ba6115b0565b83611671565b6111ff576040517f08c379a00000000000000000000000000000000000000000000000000000000081526004016111f6906131d1565b60405180910390fd5b61120b84848484611be9565b50505050565b606061121c82611544565b61125b576040517f08c379a000000000000000000000000000000000000000000000000000000000815260040161125290612f51565b60405180910390fd5b6000611265611c45565b9050600081511161128557604051806020016040528060008152506112b0565b8061128f84611cd7565b6040516020016112a0929190612e32565b6040516020818303038152906040525b915050919050565b6000600560008473ffffffffffffffffffffffffffffffffffffffff1673ffffffffffffffffffffffffffffffffffffffff16815260200190815260200160002060008373ffffffffffffffffffffffffffffffffffffffff1673ffffffffffffffffffffffffffffffffffffffff16815260200190815260200160002060009054906101000a900460ff16905092915050565b6113546115b0565b73ffffffffffffffffffffffffffffffffffffffff166113726110dd565b73ffffffffffffffffffffffffffffffffffffffff16146113c8576040517f08c379a00000000000000000000000000000000000000000000000000000000081526004016113bf90613191565b60405180910390fd5b600073ffffffffffffffffffffffffffffffffffffffff168173ffffffffffffffffffffffffffffffffffffffff161415611438576040517f08c379a000000000000000000000000000000000000000000000000000000000815260040161142f90612fd1565b60405180910390fd5b611441816119b6565b50565b60007f80ac58cd000000000000000000000000000000000000000000000000000000007bffffffffffffffffffffffffffffffffffffffffffffffffffffffff1916827bffffffffffffffffffffffffffffffffffffffffffffffffffffffff1916148061150f57507f5b5e139f000000000000000000000000000000000000000000000000000000007bffffffffffffffffffffffffffffffffffffffffffffffffffffffff1916827bffffffffffffffffffffffffffffffffffffffffffffffffffffffff1916145b8061151f575061151e82611e38565b5b9050919050565b611540828260405180602001604052806000815250611ea2565b5050565b60008073ffffffffffffffffffffffffffffffffffffffff166002600084815260200190815260200160002060009054906101000a900473ffffffffffffffffffffffffffffffffffffffff1673ffffffffffffffffffffffffffffffffffffffff1614159050919050565b600033905090565b816004600083815260200190815260200160002060006101000a81548173ffffffffffffffffffffffffffffffffffffffff021916908373ffffffffffffffffffffffffffffffffffffffff160217905550808273ffffffffffffffffffffffffffffffffffffffff1661162b83610e80565b73ffffffffffffffffffffffffffffffffffffffff167f8c5be1e5ebec7d5bd14f71427d1e84f3dd0314c0f7b2291e5b200ac8c7c3b92560405160405180910390a45050565b600061167c82611544565b6116bb576040517f08c379a00000000000000000000000000000000000000000000000000000000081526004016116b290613091565b60405180910390fd5b60006116c683610e80565b90508073ffffffffffffffffffffffffffffffffffffffff168473ffffffffffffffffffffffffffffffffffffffff16148061173557508373ffffffffffffffffffffffffffffffffffffffff1661171d846109f6565b73ffffffffffffffffffffffffffffffffffffffff16145b80611746575061174581856112b8565b5b91505092915050565b8273ffffffffffffffffffffffffffffffffffffffff1661176f82610e80565b73ffffffffffffffffffffffffffffffffffffffff16146117c5576040517f08c379a00000000000000000000000000000000000000000000000000000000081526004016117bc90612ff1565b60405180910390fd5b600073ffffffffffffffffffffffffffffffffffffffff168273ffffffffffffffffffffffffffffffffffffffff161415611835576040517f08c379a000000000000000000000000000000000000000000000000000000000815260040161182c90613051565b60405180910390fd5b611840838383611efd565b61184b6000826115b8565b6001600360008573ffffffffffffffffffffffffffffffffffffffff1673ffffffffffffffffffffffffffffffffffffffff168152602001908152602001600020600082825461189b9190613357565b925050819055506001600360008473ffffffffffffffffffffffffffffffffffffffff1673ffffffffffffffffffffffffffffffffffffffff16815260200190815260200160002060008282546118f291906132d0565b92505081905550816002600083815260200190815260200160002060006101000a81548173ffffffffffffffffffffffffffffffffffffffff021916908373ffffffffffffffffffffffffffffffffffffffff160217905550808273ffffffffffffffffffffffffffffffffffffffff168473ffffffffffffffffffffffffffffffffffffffff167fddf252ad1be2c89b69c2b068fc378daa952ba7f163c4a11628f55a4df523b3ef60405160405180910390a46119b1838383612011565b505050565b6000600a60009054906101000a900473ffffffffffffffffffffffffffffffffffffffff16905081600a60006101000a81548173ffffffffffffffffffffffffffffffffffffffff021916908373ffffffffffffffffffffffffffffffffffffffff1602179055508173ffffffffffffffffffffffffffffffffffffffff168173ffffffffffffffffffffffffffffffffffffffff167f8be0079c531659141344cd1fd0a4f28419497f9722a3daafe3b4186f6b6457e060405160405180910390a35050565b8173ffffffffffffffffffffffffffffffffffffffff168373ffffffffffffffffffffffffffffffffffffffff161415611aeb576040517f08c379a0000000000000000000000000000000000000000000000000000000008152600401611ae290613071565b60405180910390fd5b80600560008573ffffffffffffffffffffffffffffffffffffffff1673ffffffffffffffffffffffffffffffffffffffff16815260200190815260200160002060008473ffffffffffffffffffffffffffffffffffffffff1673ffffffffffffffffffffffffffffffffffffffff16815260200190815260200160002060006101000a81548160ff0219169083151502179055508173ffffffffffffffffffffffffffffffffffffffff168373ffffffffffffffffffffffffffffffffffffffff167f17307eab39ab6107e8899845ad3d59bd9653f200f220920489ca2b5937696c3183604051611bdc9190612f14565b60405180910390a3505050565b611bf484848461174f565b611c0084848484612016565b611c3f576040517f08c379a0000000000000000000000000000000000000000000000000000000008152600401611c3690612fb1565b60405180910390fd5b50505050565b6060600d8054611c5490613441565b80601f0160208091040260200160405190810160405280929190818152602001828054611c8090613441565b8015611ccd5780601f10611ca257610100808354040283529160200191611ccd565b820191906000526020600020905b815481529060010190602001808311611cb057829003601f168201915b5050505050905090565b60606000821415611d1f576040518060400160405280600181526020017f30000000000000000000000000000000000000000000000000000000000000008152509050611e33565b600082905060005b60008214611d51578080611d3a906134a4565b915050600a82611d4a9190613326565b9150611d27565b60008167ffffffffffffffff811115611d6d57611d6c613609565b5b6040519080825280601f01601f191660200182016040528015611d9f5781602001600182028036833780820191505090505b5090505b60008514611e2c57600182611db89190613357565b9150600a85611dc791906134ed565b6030611dd391906132d0565b60f81b818381518110611de957611de86135da565b5b60200101907effffffffffffffffffffffffffffffffffffffffffffffffffffffffffffff1916908160001a905350600a85611e259190613326565b9450611da3565b8093505050505b919050565b60007f01ffc9a7000000000000000000000000000000000000000000000000000000007bffffffffffffffffffffffffffffffffffffffffffffffffffffffff1916827bffffffffffffffffffffffffffffffffffffffffffffffffffffffff1916149050919050565b611eac83836121ad565b611eb96000848484612016565b611ef8576040517f08c379a0000000000000000000000000000000000000000000000000000000008152600401611eef90612fb1565b60405180910390fd5b505050565b611f08838383612387565b600073ffffffffffffffffffffffffffffffffffffffff168373ffffffffffffffffffffffffffffffffffffffff161415611f4b57611f468161238c565b611f8a565b8173ffffffffffffffffffffffffffffffffffffffff168373ffffffffffffffffffffffffffffffffffffffff1614611f8957611f8883826123d5565b5b5b600073ffffffffffffffffffffffffffffffffffffffff168273ffffffffffffffffffffffffffffffffffffffff161415611fcd57611fc881612542565b61200c565b8273ffffffffffffffffffffffffffffffffffffffff168273ffffffffffffffffffffffffffffffffffffffff161461200b5761200a8282612613565b5b5b505050565b505050565b60006120378473ffffffffffffffffffffffffffffffffffffffff16612692565b156121a0578373ffffffffffffffffffffffffffffffffffffffff1663150b7a026120606115b0565b8786866040518563ffffffff1660e01b81526004016120829493929190612ec8565b602060405180830381600087803b15801561209c57600080fd5b505af19250505080156120cd57506040513d601f19601f820116820180604052508101906120ca91906129c0565b60015b612150573d80600081146120fd576040519150601f19603f3d011682016040523d82523d6000602084013e612102565b606091505b50600081511415612148576040517f08c379a000000000000000000000000000000000000000000000000000000000815260040161213f90612fb1565b60405180910390fd5b805181602001fd5b63150b7a0260e01b7bffffffffffffffffffffffffffffffffffffffffffffffffffffffff1916817bffffffffffffffffffffffffffffffffffffffffffffffffffffffff1916149150506121a5565b600190505b949350505050565b600073ffffffffffffffffffffffffffffffffffffffff168273ffffffffffffffffffffffffffffffffffffffff16141561221d576040517f08c379a000000000000000000000000000000000000000000000000000000000815260040161221490613151565b60405180910390fd5b61222681611544565b15612266576040517f08c379a000000000000000000000000000000000000000000000000000000000815260040161225d90613011565b60405180910390fd5b61227260008383611efd565b6001600360008473ffffffffffffffffffffffffffffffffffffffff1673ffffffffffffffffffffffffffffffffffffffff16815260200190815260200160002060008282546122c291906132d0565b92505081905550816002600083815260200190815260200160002060006101000a81548173ffffffffffffffffffffffffffffffffffffffff021916908373ffffffffffffffffffffffffffffffffffffffff160217905550808273ffffffffffffffffffffffffffffffffffffffff16600073ffffffffffffffffffffffffffffffffffffffff167fddf252ad1be2c89b69c2b068fc378daa952ba7f163c4a11628f55a4df523b3ef60405160405180910390a461238360008383612011565b5050565b505050565b6008805490506009600083815260200190815260200160002081905550600881908060018154018082558091505060019003906000526020600020016000909190919091505550565b600060016123e284610f32565b6123ec9190613357565b90506000600760008481526020019081526020016000205490508181146124d1576000600660008673ffffffffffffffffffffffffffffffffffffffff1673ffffffffffffffffffffffffffffffffffffffff168152602001908152602001600020600084815260200190815260200160002054905080600660008773ffffffffffffffffffffffffffffffffffffffff1673ffffffffffffffffffffffffffffffffffffffff168152602001908152602001600020600084815260200190815260200160002081905550816007600083815260200190815260200160002081905550505b6007600084815260200190815260200160002060009055600660008573ffffffffffffffffffffffffffffffffffffffff1673ffffffffffffffffffffffffffffffffffffffff16815260200190815260200160002060008381526020019081526020016000206000905550505050565b600060016008805490506125569190613357565b9050600060096000848152602001908152602001600020549050600060088381548110612586576125856135da565b5b9060005260206000200154905080600883815481106125a8576125a76135da565b5b9060005260206000200181905550816009600083815260200190815260200160002081905550600960008581526020019081526020016000206000905560088054806125f7576125f66135ab565b5b6001900381819060005260206000200160009055905550505050565b600061261e83610f32565b905081600660008573ffffffffffffffffffffffffffffffffffffffff1673ffffffffffffffffffffffffffffffffffffffff168152602001908152602001600020600083815260200190815260200160002081905550806007600084815260200190815260200160002081905550505050565b6000808273ffffffffffffffffffffffffffffffffffffffff163b119050919050565b60006126c86126c384613251565b61322c565b9050828152602081018484840111156126e4576126e361363d565b5b6126ef8482856133ff565b509392505050565b60008135905061270681613bfd565b92915050565b60008135905061271b81613c14565b92915050565b60008151905061273081613c14565b92915050565b60008135905061274581613c2b565b92915050565b60008151905061275a81613c2b565b92915050565b600082601f83011261277557612774613638565b5b81356127858482602086016126b5565b91505092915050565b60008135905061279d81613c42565b92915050565b6000602082840312156127b9576127b8613647565b5b60006127c7848285016126f7565b91505092915050565b600080604083850312156127e7576127e6613647565b5b60006127f5858286016126f7565b9250506020612806858286016126f7565b9150509250929050565b60008060006060848603121561282957612828613647565b5b6000612837868287016126f7565b9350506020612848868287016126f7565b92505060406128598682870161278e565b9150509250925092565b6000806000806080858703121561287d5761287c613647565b5b600061288b878288016126f7565b945050602061289c878288016126f7565b93505060406128ad8782880161278e565b925050606085013567ffffffffffffffff8111156128ce576128cd613642565b5b6128da87828801612760565b91505092959194509250565b600080604083850312156128fd576128fc613647565b5b600061290b858286016126f7565b925050602061291c8582860161270c565b9150509250929050565b6000806040838503121561293d5761293c613647565b5b600061294b858286016126f7565b925050602061295c8582860161278e565b9150509250929050565b60006020828403121561297c5761297b613647565b5b600061298a84828501612721565b91505092915050565b6000602082840312156129a9576129a8613647565b5b60006129b784828501612736565b91505092915050565b6000602082840312156129d6576129d5613647565b5b60006129e48482850161274b565b91505092915050565b600060208284031215612a0357612a02613647565b5b6000612a118482850161278e565b91505092915050565b612a238161338b565b82525050565b612a328161339d565b82525050565b6000612a4382613282565b612a4d8185613298565b9350612a5d81856020860161340e565b612a668161364c565b840191505092915050565b6000612a7c8261328d565b612a8681856132b4565b9350612a9681856020860161340e565b612a9f8161364c565b840191505092915050565b6000612ab58261328d565b612abf81856132c5565b9350612acf81856020860161340e565b80840191505092915050565b6000612ae86009836132b4565b9150612af38261365d565b602082019050919050565b6000612b0b6019836132b4565b9150612b1682613686565b602082019050919050565b6000612b2e602b836132b4565b9150612b39826136af565b604082019050919050565b6000612b516032836132b4565b9150612b5c826136fe565b604082019050919050565b6000612b746026836132b4565b9150612b7f8261374d565b604082019050919050565b6000612b976025836132b4565b9150612ba28261379c565b604082019050919050565b6000612bba601c836132b4565b9150612bc5826137eb565b602082019050919050565b6000612bdd6014836132b4565b9150612be882613814565b602082019050919050565b6000612c006024836132b4565b9150612c0b8261383d565b604082019050919050565b6000612c236019836132b4565b9150612c2e8261388c565b602082019050919050565b6000612c46602c836132b4565b9150612c51826138b5565b604082019050919050565b6000612c696017836132b4565b9150612c7482613904565b602082019050919050565b6000612c8c6038836132b4565b9150612c978261392d565b604082019050919050565b6000612caf602a836132b4565b9150612cba8261397c565b604082019050919050565b6000612cd26029836132b4565b9150612cdd826139cb565b604082019050919050565b6000612cf56018836132b4565b9150612d0082613a1a565b602082019050919050565b6000612d186020836132b4565b9150612d2382613a43565b602082019050919050565b6000612d3b602c836132b4565b9150612d4682613a6c565b604082019050919050565b6000612d5e6005836132c5565b9150612d6982613abb565b600582019050919050565b6000612d816020836132b4565b9150612d8c82613ae4565b602082019050919050565b6000612da46021836132b4565b9150612daf82613b0d565b604082019050919050565b6000612dc76000836132a9565b9150612dd282613b5c565b600082019050919050565b6000612dea6031836132b4565b9150612df582613b5f565b604082019050919050565b6000612e0d602c836132b4565b9150612e1882613bae565b604082019050919050565b612e2c816133f5565b82525050565b6000612e3e8285612aaa565b9150612e4a8284612aaa565b9150612e5582612d51565b91508190509392505050565b6000612e6c82612dba565b9150819050919050565b6000602082019050612e8b6000830184612a1a565b92915050565b6000606082019050612ea66000830186612a1a565b612eb36020830185612a1a565b612ec06040830184612e23565b949350505050565b6000608082019050612edd6000830187612a1a565b612eea6020830186612a1a565b612ef76040830185612e23565b8181036060830152612f098184612a38565b905095945050505050565b6000602082019050612f296000830184612a29565b92915050565b60006020820190508181036000830152612f498184612a71565b905092915050565b60006020820190508181036000830152612f6a81612adb565b9050919050565b60006020820190508181036000830152612f8a81612afe565b9050919050565b60006020820190508181036000830152612faa81612b21565b9050919050565b60006020820190508181036000830152612fca81612b44565b9050919050565b60006020820190508181036000830152612fea81612b67565b9050919050565b6000602082019050818103600083015261300a81612b8a565b9050919050565b6000602082019050818103600083015261302a81612bad565b9050919050565b6000602082019050818103600083015261304a81612bd0565b9050919050565b6000602082019050818103600083015261306a81612bf3565b9050919050565b6000602082019050818103600083015261308a81612c16565b9050919050565b600060208201905081810360008301526130aa81612c39565b9050919050565b600060208201905081810360008301526130ca81612c5c565b9050919050565b600060208201905081810360008301526130ea81612c7f565b9050919050565b6000602082019050818103600083015261310a81612ca2565b9050919050565b6000602082019050818103600083015261312a81612cc5565b9050919050565b6000602082019050818103600083015261314a81612ce8565b9050919050565b6000602082019050818103600083015261316a81612d0b565b9050919050565b6000602082019050818103600083015261318a81612d2e565b9050919050565b600060208201905081810360008301526131aa81612d74565b9050919050565b600060208201905081810360008301526131ca81612d97565b9050919050565b600060208201905081810360008301526131ea81612ddd565b9050919050565b6000602082019050818103600083015261320a81612e00565b9050919050565b60006020820190506132266000830184612e23565b92915050565b6000613236613247565b90506132428282613473565b919050565b6000604051905090565b600067ffffffffffffffff82111561326c5761326b613609565b5b6132758261364c565b9050602081019050919050565b600081519050919050565b600081519050919050565b600082825260208201905092915050565b600081905092915050565b600082825260208201905092915050565b600081905092915050565b60006132db826133f5565b91506132e6836133f5565b9250827fffffffffffffffffffffffffffffffffffffffffffffffffffffffffffffffff0382111561331b5761331a61351e565b5b828201905092915050565b6000613331826133f5565b915061333c836133f5565b92508261334c5761334b61354d565b5b828204905092915050565b6000613362826133f5565b915061336d836133f5565b9250828210156133805761337f61351e565b5b828203905092915050565b6000613396826133d5565b9050919050565b60008115159050919050565b60007fffffffff0000000000000000000000000000000000000000000000000000000082169050919050565b600073ffffffffffffffffffffffffffffffffffffffff82169050919050565b6000819050919050565b82818337600083830152505050565b60005b8381101561342c578082015181840152602081019050613411565b8381111561343b576000848401525b50505050565b6000600282049050600182168061345957607f821691505b6020821081141561346d5761346c61357c565b5b50919050565b61347c8261364c565b810181811067ffffffffffffffff8211171561349b5761349a613609565b5b80604052505050565b60006134af826133f5565b91507fffffffffffffffffffffffffffffffffffffffffffffffffffffffffffffffff8214156134e2576134e161351e565b5b600182019050919050565b60006134f8826133f5565b9150613503836133f5565b9250826135135761351261354d565b5b828206905092915050565b7f4e487b7100000000000000000000000000000000000000000000000000000000600052601160045260246000fd5b7f4e487b7100000000000000000000000000000000000000000000000000000000600052601260045260246000fd5b7f4e487b7100000000000000000000000000000000000000000000000000000000600052602260045260246000fd5b7f4e487b7100000000000000000000000000000000000000000000000000000000600052603160045260246000fd5b7f4e487b7100000000000000000000000000000000000000000000000000000000600052603260045260246000fd5b7f4e487b7100000000000000000000000000000000000000000000000000000000600052604160045260246000fd5b600080fd5b600080fd5b600080fd5b600080fd5b6000601f19601f8301169050919050565b7f4e6f742045786973740000000000000000000000000000000000000000000000600082015250565b7f596f7520616c7265616479206d696e746564206265666f726500000000000000600082015250565b7f455243373231456e756d657261626c653a206f776e657220696e646578206f7560008201527f74206f6620626f756e6473000000000000000000000000000000000000000000602082015250565b7f4552433732313a207472616e7366657220746f206e6f6e20455243373231526560008201527f63656976657220696d706c656d656e7465720000000000000000000000000000602082015250565b7f4f776e61626c653a206e6577206f776e657220697320746865207a65726f206160008201527f6464726573730000000000000000000000000000000000000000000000000000602082015250565b7f4552433732313a207472616e736665722066726f6d20696e636f72726563742060008201527f6f776e6572000000000000000000000000000000000000000000000000000000602082015250565b7f4552433732313a20746f6b656e20616c7265616479206d696e74656400000000600082015250565b7f4661696c656420746f2073656e64204574686572000000000000000000000000600082015250565b7f4552433732313a207472616e7366657220746f20746865207a65726f2061646460008201527f7265737300000000000000000000000000000000000000000000000000000000602082015250565b7f4552433732313a20617070726f766520746f2063616c6c657200000000000000600082015250565b7f4552433732313a206f70657261746f7220717565727920666f72206e6f6e657860008201527f697374656e7420746f6b656e0000000000000000000000000000000000000000602082015250565b7f596f75206172652020612066616c7365206d656d626572000000000000000000600082015250565b7f4552433732313a20617070726f76652063616c6c6572206973206e6f74206f7760008201527f6e6572206e6f7220617070726f76656420666f7220616c6c0000000000000000602082015250565b7f4552433732313a2062616c616e636520717565727920666f7220746865207a6560008201527f726f206164647265737300000000000000000000000000000000000000000000602082015250565b7f4552433732313a206f776e657220717565727920666f72206e6f6e657869737460008201527f656e7420746f6b656e0000000000000000000000000000000000000000000000602082015250565b7f536f7272792062726f20697473206861732066696e6973680000000000000000600082015250565b7f4552433732313a206d696e7420746f20746865207a65726f2061646472657373600082015250565b7f4552433732313a20617070726f76656420717565727920666f72206e6f6e657860008201527f697374656e7420746f6b656e0000000000000000000000000000000000000000602082015250565b7f2e6a736f6e000000000000000000000000000000000000000000000000000000600082015250565b7f4f776e61626c653a2063616c6c6572206973206e6f7420746865206f776e6572600082015250565b7f4552433732313a20617070726f76616c20746f2063757272656e74206f776e6560008201527f7200000000000000000000000000000000000000000000000000000000000000602082015250565b50565b7f4552433732313a207472616e736665722063616c6c6572206973206e6f74206f60008201527f776e6572206e6f7220617070726f766564000000000000000000000000000000602082015250565b7f455243373231456e756d657261626c653a20676c6f62616c20696e646578206f60008201527f7574206f6620626f756e64730000000000000000000000000000000000000000602082015250565b613c068161338b565b8114613c1157600080fd5b50565b613c1d8161339d565b8114613c2857600080fd5b50565b613c34816133a9565b8114613c3f57600080fd5b50565b613c4b816133f5565b8114613c5657600080fd5b5056fea264697066735822122037ca03920c9030bbcdbe8a248e395e5e1ad5c9bc753acd161067085505c3649364736f6c63430008070033",
  "linkReferences": {},
  "deployedLinkReferences": {}
}