{
  "_format": "hh-sol-artifact-1",
  "contractName": "OCH",
  "sourceName": "contracts/OCH.sol",
  "abi": [
    {
      "inputs": [
        {
          "internalType": "string",
          "name": "baseURI",
          "type": "string"
        },
        {
          "internalType": "address",
          "name": "_tokenAddress",
          "type": "address"
        }
      ],
      "stateMutability": "nonpayable",
      "type": "constructor"
    },
    {
      "anonymous": false,
      "inputs": [
        {
          "indexed": true,
          "internalType": "address",
          "name": "owner",
          "type": "address"
        },
        {
          "indexed": true,
          "internalType": "address",
          "name": "approved",
          "type": "address"
        },
        {
          "indexed": true,
          "internalType": "uint256",
          "name": "tokenId",
          "type": "uint256"
        }
      ],
      "name": "Approval",
      "type": "event"
    },
    {
      "anonymous": false,
      "inputs": [
        {
          "indexed": true,
          "internalType": "address",
          "name": "owner",
          "type": "address"
        },
        {
          "indexed": true,
          "internalType": "address",
          "name": "operator",
          "type": "address"
        },
        {
          "indexed": false,
          "internalType": "bool",
          "name": "approved",
          "type": "bool"
        }
      ],
      "name": "ApprovalForAll",
      "type": "event"
    },
    {
      "anonymous": false,
      "inputs": [
        {
          "indexed": true,
          "internalType": "address",
          "name": "previousOwner",
          "type": "address"
        },
        {
          "indexed": true,
          "internalType": "address",
          "name": "newOwner",
          "type": "address"
        }
      ],
      "name": "OwnershipTransferred",
      "type": "event"
    },
    {
      "anonymous": false,
      "inputs": [
        {
          "indexed": true,
          "internalType": "address",
          "name": "from",
          "type": "address"
        },
        {
          "indexed": true,
          "internalType": "address",
          "name": "to",
          "type": "address"
        },
        {
          "indexed": true,
          "internalType": "uint256",
          "name": "tokenId",
          "type": "uint256"
        }
      ],
      "name": "Transfer",
      "type": "event"
    },
    {
      "stateMutability": "payable",
      "type": "fallback"
    },
    {
      "inputs": [
        {
          "internalType": "address",
          "name": "sender",
          "type": "address"
        }
      ],
      "name": "AlreadyMintedAnNFT",
      "outputs": [
        {
          "internalType": "bool",
          "name": "",
          "type": "bool"
        }
      ],
      "stateMutability": "view",
      "type": "function"
    },
    {
      "inputs": [],
      "name": "Maximum",
      "outputs": [
        {
          "internalType": "uint256",
          "name": "",
          "type": "uint256"
        }
      ],
      "stateMutability": "view",
      "type": "function"
    },
    {
      "inputs": [
        {
          "internalType": "uint256",
          "name": "_amount",
          "type": "uint256"
        }
      ],
      "name": "Mint",
      "outputs": [],
      "stateMutability": "payable",
      "type": "function"
    },
    {
      "inputs": [],
      "name": "NftPrice",
      "outputs": [
        {
          "internalType": "uint256",
          "name": "",
          "type": "uint256"
        }
      ],
      "stateMutability": "view",
      "type": "function"
    },
    {
      "inputs": [
        {
          "internalType": "address",
          "name": "",
          "type": "address"
        }
      ],
      "name": "alreadyMinted",
      "outputs": [
        {
          "internalType": "bool",
          "name": "",
          "type": "bool"
        }
      ],
      "stateMutability": "view",
      "type": "function"
    },
    {
      "inputs": [
        {
          "internalType": "address",
          "name": "to",
          "type": "address"
        },
        {
          "internalType": "uint256",
          "name": "tokenId",
          "type": "uint256"
        }
      ],
      "name": "approve",
      "outputs": [],
      "stateMutability": "nonpayable",
      "type": "function"
    },
    {
      "inputs": [
        {
          "internalType": "address",
          "name": "owner",
          "type": "address"
        }
      ],
      "name": "balanceOf",
      "outputs": [
        {
          "internalType": "uint256",
          "name": "",
          "type": "uint256"
        }
      ],
      "stateMutability": "view",
      "type": "function"
    },
    {
      "inputs": [
        {
          "internalType": "uint256",
          "name": "tokenId",
          "type": "uint256"
        }
      ],
      "name": "getApproved",
      "outputs": [
        {
          "internalType": "address",
          "name": "",
          "type": "address"
        }
      ],
      "stateMutability": "view",
      "type": "function"
    },
    {
      "inputs": [],
      "name": "getMintingPrice",
      "outputs": [
        {
          "internalType": "uint256",
          "name": "",
          "type": "uint256"
        }
      ],
      "stateMutability": "view",
      "type": "function"
    },
    {
      "inputs": [
        {
          "internalType": "address",
          "name": "owner",
          "type": "address"
        },
        {
          "internalType": "address",
          "name": "operator",
          "type": "address"
        }
      ],
      "name": "isApprovedForAll",
      "outputs": [
        {
          "internalType": "bool",
          "name": "",
          "type": "bool"
        }
      ],
      "stateMutability": "view",
      "type": "function"
    },
    {
      "inputs": [],
      "name": "name",
      "outputs": [
        {
          "internalType": "string",
          "name": "",
          "type": "string"
        }
      ],
      "stateMutability": "view",
      "type": "function"
    },
    {
      "inputs": [],
      "name": "owner",
      "outputs": [
        {
          "internalType": "address",
          "name": "",
          "type": "address"
        }
      ],
      "stateMutability": "view",
      "type": "function"
    },
    {
      "inputs": [
        {
          "internalType": "uint256",
          "name": "tokenId",
          "type": "uint256"
        }
      ],
      "name": "ownerOf",
      "outputs": [
        {
          "internalType": "address",
          "name": "",
          "type": "address"
        }
      ],
      "stateMutability": "view",
      "type": "function"
    },
    {
      "inputs": [],
      "name": "renounceOwnership",
      "outputs": [],
      "stateMutability": "nonpayable",
      "type": "function"
    },
    {
      "inputs": [
        {
          "internalType": "address",
          "name": "from",
          "type": "address"
        },
        {
          "internalType": "address",
          "name": "to",
          "type": "address"
        },
        {
          "internalType": "uint256",
          "name": "tokenId",
          "type": "uint256"
        }
      ],
      "name": "safeTransferFrom",
      "outputs": [],
      "stateMutability": "nonpayable",
      "type": "function"
    },
    {
      "inputs": [
        {
          "internalType": "address",
          "name": "from",
          "type": "address"
        },
        {
          "internalType": "address",
          "name": "to",
          "type": "address"
        },
        {
          "internalType": "uint256",
          "name": "tokenId",
          "type": "uint256"
        },
        {
          "internalType": "bytes",
          "name": "_data",
          "type": "bytes"
        }
      ],
      "name": "safeTransferFrom",
      "outputs": [],
      "stateMutability": "nonpayable",
      "type": "function"
    },
    {
      "inputs": [
        {
          "internalType": "address",
          "name": "operator",
          "type": "address"
        },
        {
          "internalType": "bool",
          "name": "approved",
          "type": "bool"
        }
      ],
      "name": "setApprovalForAll",
      "outputs": [],
      "stateMutability": "nonpayable",
      "type": "function"
    },
    {
      "inputs": [
        {
          "internalType": "bytes4",
          "name": "interfaceId",
          "type": "bytes4"
        }
      ],
      "name": "supportsInterface",
      "outputs": [
        {
          "internalType": "bool",
          "name": "",
          "type": "bool"
        }
      ],
      "stateMutability": "view",
      "type": "function"
    },
    {
      "inputs": [],
      "name": "symbol",
      "outputs": [
        {
          "internalType": "string",
          "name": "",
          "type": "string"
        }
      ],
      "stateMutability": "view",
      "type": "function"
    },
    {
      "inputs": [
        {
          "internalType": "uint256",
          "name": "index",
          "type": "uint256"
        }
      ],
      "name": "tokenByIndex",
      "outputs": [
        {
          "internalType": "uint256",
          "name": "",
          "type": "uint256"
        }
      ],
      "stateMutability": "view",
      "type": "function"
    },
    {
      "inputs": [],
      "name": "tokenIds",
      "outputs": [
        {
          "internalType": "uint256",
          "name": "",
          "type": "uint256"
        }
      ],
      "stateMutability": "view",
      "type": "function"
    },
    {
      "inputs": [
        {
          "internalType": "address",
          "name": "owner",
          "type": "address"
        },
        {
          "internalType": "uint256",
          "name": "index",
          "type": "uint256"
        }
      ],
      "name": "tokenOfOwnerByIndex",
      "outputs": [
        {
          "internalType": "uint256",
          "name": "",
          "type": "uint256"
        }
      ],
      "stateMutability": "view",
      "type": "function"
    },
    {
      "inputs": [
        {
          "internalType": "uint256",
          "name": "tokenId",
          "type": "uint256"
        }
      ],
      "name": "tokenURI",
      "outputs": [
        {
          "internalType": "string",
          "name": "",
          "type": "string"
        }
      ],
      "stateMutability": "view",
      "type": "function"
    },
    {
      "inputs": [],
      "name": "totalSupply",
      "outputs": [
        {
          "internalType": "uint256",
          "name": "",
          "type": "uint256"
        }
      ],
      "stateMutability": "view",
      "type": "function"
    },
    {
      "inputs": [
        {
          "internalType": "address",
          "name": "from",
          "type": "address"
        },
        {
          "internalType": "address",
          "name": "to",
          "type": "address"
        },
        {
          "internalType": "uint256",
          "name": "tokenId",
          "type": "uint256"
        }
      ],
      "name": "transferFrom",
      "outputs": [],
      "stateMutability": "nonpayable",
      "type": "function"
    },
    {
      "inputs": [
        {
          "internalType": "address",
          "name": "newOwner",
          "type": "address"
        }
      ],
      "name": "transferOwnership",
      "outputs": [],
      "stateMutability": "nonpayable",
      "type": "function"
    },
    {
      "inputs": [],
      "name": "withdraw",
      "outputs": [],
      "stateMutability": "nonpayable",
      "type": "function"
    },
    {
      "stateMutability": "payable",
      "type": "receive"
    }
  ],
  "bytecode": "0x608060405260c8600b55600c600e553480156200001b57600080fd5b506040516200435e3803806200435e8339818101604052810190620000419190620003b7565b6040518060400160405280601b81526020017f4f6c65616e6a6920436861696e4c696e6b204861636b6174686f6e00000000008152506040518060400160405280600381526020017f4f434800000000000000000000000000000000000000000000000000000000008152508160009080519060200190620000c592919062000272565b508060019080519060200190620000de92919062000272565b50505062000101620000f5620001a460201b60201c565b620001ac60201b60201c565b81600d90805190602001906200011992919062000272565b5080600f60006101000a81548173ffffffffffffffffffffffffffffffffffffffff021916908373ffffffffffffffffffffffffffffffffffffffff16021790555080601060006101000a81548173ffffffffffffffffffffffffffffffffffffffff021916908373ffffffffffffffffffffffffffffffffffffffff1602179055505050620005ef565b600033905090565b6000600a60009054906101000a900473ffffffffffffffffffffffffffffffffffffffff16905081600a60006101000a81548173ffffffffffffffffffffffffffffffffffffffff021916908373ffffffffffffffffffffffffffffffffffffffff1602179055508173ffffffffffffffffffffffffffffffffffffffff168173ffffffffffffffffffffffffffffffffffffffff167f8be0079c531659141344cd1fd0a4f28419497f9722a3daafe3b4186f6b6457e060405160405180910390a35050565b8280546200028090620004e6565b90600052602060002090601f016020900481019282620002a45760008555620002f0565b82601f10620002bf57805160ff1916838001178555620002f0565b82800160010185558215620002f0579182015b82811115620002ef578251825591602001919060010190620002d2565b5b509050620002ff919062000303565b5090565b5b808211156200031e57600081600090555060010162000304565b5090565b600062000339620003338462000446565b6200041d565b905082815260208101848484011115620003585762000357620005b5565b5b62000365848285620004b0565b509392505050565b6000815190506200037e81620005d5565b92915050565b600082601f8301126200039c576200039b620005b0565b5b8151620003ae84826020860162000322565b91505092915050565b60008060408385031215620003d157620003d0620005bf565b5b600083015167ffffffffffffffff811115620003f257620003f1620005ba565b5b620004008582860162000384565b925050602062000413858286016200036d565b9150509250929050565b6000620004296200043c565b90506200043782826200051c565b919050565b6000604051905090565b600067ffffffffffffffff82111562000464576200046362000581565b5b6200046f82620005c4565b9050602081019050919050565b6000620004898262000490565b9050919050565b600073ffffffffffffffffffffffffffffffffffffffff82169050919050565b60005b83811015620004d0578082015181840152602081019050620004b3565b83811115620004e0576000848401525b50505050565b60006002820490506001821680620004ff57607f821691505b6020821081141562000516576200051562000552565b5b50919050565b6200052782620005c4565b810181811067ffffffffffffffff8211171562000549576200054862000581565b5b80604052505050565b7f4e487b7100000000000000000000000000000000000000000000000000000000600052602260045260246000fd5b7f4e487b7100000000000000000000000000000000000000000000000000000000600052604160045260246000fd5b600080fd5b600080fd5b600080fd5b600080fd5b6000601f19601f8301169050919050565b620005e0816200047c565b8114620005ec57600080fd5b50565b613d5f80620005ff6000396000f3fe6080604052600436106101a05760003560e01c80634f6ccce7116100ec57806395d89b411161008a578063ba48d0d011610064578063ba48d0d0146105c3578063c87b56dd14610600578063e985e9c51461063d578063f2fde38b1461067a576101a7565b806395d89b4114610546578063a22cb46514610571578063b88d4fde1461059a576101a7565b8063714cff56116100c6578063714cff56146104ae578063715018a6146104d957806377d24762146104f05780638da5cb5b1461051b576101a7565b80634f6ccce7146103f75780636352211e1461043457806370a0823114610471576101a7565b806318160ddd116101595780632f745c59116101335780632f745c591461034f57806330ae979c1461038c5780633ccfd60b146103b757806342842e0e146103ce576101a7565b806318160ddd146102d0578063181af9d6146102fb57806323b872dd14610326576101a7565b806301ffc9a7146101a957806306fdde03146101e65780630788370314610211578063081812fc1461022d578063095ea7b31461026a5780630a398b8814610293576101a7565b366101a757005b005b3480156101b557600080fd5b506101d060048036038101906101cb9190612a63565b6106a3565b6040516101dd9190612fe4565b60405180910390f35b3480156101f257600080fd5b506101fb61071d565b6040516102089190612fff565b60405180910390f35b61022b60048036038101906102269190612abd565b6107af565b005b34801561023957600080fd5b50610254600480360381019061024f9190612abd565b610aa6565b6040516102619190612f46565b60405180910390f35b34801561027657600080fd5b50610291600480360381019061028c91906129f6565b610b2b565b005b34801561029f57600080fd5b506102ba60048036038101906102b59190612873565b610c43565b6040516102c79190612fe4565b60405180910390f35b3480156102dc57600080fd5b506102e5610c63565b6040516102f291906132e1565b60405180910390f35b34801561030757600080fd5b50610310610c70565b60405161031d91906132e1565b60405180910390f35b34801561033257600080fd5b5061034d600480360381019061034891906128e0565b610c76565b005b34801561035b57600080fd5b50610376600480360381019061037191906129f6565b610cd6565b60405161038391906132e1565b60405180910390f35b34801561039857600080fd5b506103a1610d7b565b6040516103ae91906132e1565b60405180910390f35b3480156103c357600080fd5b506103cc610d81565b005b3480156103da57600080fd5b506103f560048036038101906103f091906128e0565b610ebf565b005b34801561040357600080fd5b5061041e60048036038101906104199190612abd565b610edf565b60405161042b91906132e1565b60405180910390f35b34801561044057600080fd5b5061045b60048036038101906104569190612abd565b610f50565b6040516104689190612f46565b60405180910390f35b34801561047d57600080fd5b5061049860048036038101906104939190612873565b611002565b6040516104a591906132e1565b60405180910390f35b3480156104ba57600080fd5b506104c36110ba565b6040516104d091906132e1565b60405180910390f35b3480156104e557600080fd5b506104ee6110c0565b005b3480156104fc57600080fd5b50610505611148565b60405161051291906132e1565b60405180910390f35b34801561052757600080fd5b50610530611152565b60405161053d9190612f46565b60405180910390f35b34801561055257600080fd5b5061055b61117c565b6040516105689190612fff565b60405180910390f35b34801561057d57600080fd5b50610598600480360381019061059391906129b6565b61120e565b005b3480156105a657600080fd5b506105c160048036038101906105bc9190612933565b611224565b005b3480156105cf57600080fd5b506105ea60048036038101906105e59190612873565b611286565b6040516105f79190612fe4565b60405180910390f35b34801561060c57600080fd5b5061062760048036038101906106229190612abd565b6112e1565b6040516106349190612fff565b60405180910390f35b34801561064957600080fd5b50610664600480360381019061065f91906128a0565b611388565b6040516106719190612fe4565b60405180910390f35b34801561068657600080fd5b506106a1600480360381019061069c9190612873565b61141c565b005b60007f780e9d63000000000000000000000000000000000000000000000000000000007bffffffffffffffffffffffffffffffffffffffffffffffffffffffff1916827bffffffffffffffffffffffffffffffffffffffffffffffffffffffff19161480610716575061071582611514565b5b9050919050565b60606000805461072c90613511565b80601f016020809104026020016040519081016040528092919081815260200182805461075890613511565b80156107a55780601f1061077a576101008083540402835291602001916107a5565b820191906000526020600020905b81548152906001019060200180831161078857829003601f168201915b5050505050905090565b601160003373ffffffffffffffffffffffffffffffffffffffff1673ffffffffffffffffffffffffffffffffffffffff16815260200190815260200160002060009054906101000a900460ff161561083c576040517f08c379a000000000000000000000000000000000000000000000000000000000815260040161083390613041565b60405180910390fd5b60011515601060009054906101000a900473ffffffffffffffffffffffffffffffffffffffff1673ffffffffffffffffffffffffffffffffffffffff166335f1b834336040518263ffffffff1660e01b815260040161089b9190612f46565b60206040518083038186803b1580156108b357600080fd5b505afa1580156108c7573d6000803e3d6000fd5b505050506040513d601f19601f820116820180604052508101906108eb9190612a36565b15151461092d576040517f08c379a000000000000000000000000000000000000000000000000000000000815260040161092490613181565b60405180910390fd5b600e54600c5410610973576040517f08c379a000000000000000000000000000000000000000000000000000000000815260040161096a90613201565b60405180910390fd5b6001600c600082825461098691906133a0565b92505081905550600f60009054906101000a900473ffffffffffffffffffffffffffffffffffffffff1673ffffffffffffffffffffffffffffffffffffffff166323b872dd3330846040518463ffffffff1660e01b81526004016109ec93929190612f61565b602060405180830381600087803b158015610a0657600080fd5b505af1158015610a1a573d6000803e3d6000fd5b505050506040513d601f19601f82011682018060405250810190610a3e9190612a36565b50610a4b33600c546115f6565b6001601160003373ffffffffffffffffffffffffffffffffffffffff1673ffffffffffffffffffffffffffffffffffffffff16815260200190815260200160002060006101000a81548160ff02191690831515021790555050565b6000610ab182611614565b610af0576040517f08c379a0000000000000000000000000000000000000000000000000000000008152600401610ae790613241565b60405180910390fd5b6004600083815260200190815260200160002060009054906101000a900473ffffffffffffffffffffffffffffffffffffffff169050919050565b6000610b3682610f50565b90508073ffffffffffffffffffffffffffffffffffffffff168373ffffffffffffffffffffffffffffffffffffffff161415610ba7576040517f08c379a0000000000000000000000000000000000000000000000000000000008152600401610b9e90613281565b60405180910390fd5b8073ffffffffffffffffffffffffffffffffffffffff16610bc6611680565b73ffffffffffffffffffffffffffffffffffffffff161480610bf55750610bf481610bef611680565b611388565b5b610c34576040517f08c379a0000000000000000000000000000000000000000000000000000000008152600401610c2b906131a1565b60405180910390fd5b610c3e8383611688565b505050565b60116020528060005260406000206000915054906101000a900460ff1681565b6000600880549050905090565b600e5481565b610c87610c81611680565b82611741565b610cc6576040517f08c379a0000000000000000000000000000000000000000000000000000000008152600401610cbd906132a1565b60405180910390fd5b610cd183838361181f565b505050565b6000610ce183611002565b8210610d22576040517f08c379a0000000000000000000000000000000000000000000000000000000008152600401610d1990613061565b60405180910390fd5b600660008473ffffffffffffffffffffffffffffffffffffffff1673ffffffffffffffffffffffffffffffffffffffff168152602001908152602001600020600083815260200190815260200160002054905092915050565b600b5481565b610d89611680565b73ffffffffffffffffffffffffffffffffffffffff16610da7611152565b73ffffffffffffffffffffffffffffffffffffffff1614610dfd576040517f08c379a0000000000000000000000000000000000000000000000000000000008152600401610df490613261565b60405180910390fd5b6000610e07611152565b9050600047905060008273ffffffffffffffffffffffffffffffffffffffff1682604051610e3490612f31565b60006040518083038185875af1925050503d8060008114610e71576040519150601f19603f3d011682016040523d82523d6000602084013e610e76565b606091505b5050905080610eba576040517f08c379a0000000000000000000000000000000000000000000000000000000008152600401610eb190613101565b60405180910390fd5b505050565b610eda83838360405180602001604052806000815250611224565b505050565b6000610ee9610c63565b8210610f2a576040517f08c379a0000000000000000000000000000000000000000000000000000000008152600401610f21906132c1565b60405180910390fd5b60088281548110610f3e57610f3d6136aa565b5b90600052602060002001549050919050565b6000806002600084815260200190815260200160002060009054906101000a900473ffffffffffffffffffffffffffffffffffffffff169050600073ffffffffffffffffffffffffffffffffffffffff168173ffffffffffffffffffffffffffffffffffffffff161415610ff9576040517f08c379a0000000000000000000000000000000000000000000000000000000008152600401610ff0906131e1565b60405180910390fd5b80915050919050565b60008073ffffffffffffffffffffffffffffffffffffffff168273ffffffffffffffffffffffffffffffffffffffff161415611073576040517f08c379a000000000000000000000000000000000000000000000000000000000815260040161106a906131c1565b60405180910390fd5b600360008373ffffffffffffffffffffffffffffffffffffffff1673ffffffffffffffffffffffffffffffffffffffff168152602001908152602001600020549050919050565b600c5481565b6110c8611680565b73ffffffffffffffffffffffffffffffffffffffff166110e6611152565b73ffffffffffffffffffffffffffffffffffffffff161461113c576040517f08c379a000000000000000000000000000000000000000000000000000000000815260040161113390613261565b60405180910390fd5b6111466000611a86565b565b6000600b54905090565b6000600a60009054906101000a900473ffffffffffffffffffffffffffffffffffffffff16905090565b60606001805461118b90613511565b80601f01602080910402602001604051908101604052809291908181526020018280546111b790613511565b80156112045780601f106111d957610100808354040283529160200191611204565b820191906000526020600020905b8154815290600101906020018083116111e757829003601f168201915b5050505050905090565b611220611219611680565b8383611b4c565b5050565b61123561122f611680565b83611741565b611274576040517f08c379a000000000000000000000000000000000000000000000000000000000815260040161126b906132a1565b60405180910390fd5b61128084848484611cb9565b50505050565b600080601160008473ffffffffffffffffffffffffffffffffffffffff1673ffffffffffffffffffffffffffffffffffffffff16815260200190815260200160002060009054906101000a900460ff16905080915050919050565b60606112ec82611614565b61132b576040517f08c379a000000000000000000000000000000000000000000000000000000000815260040161132290613021565b60405180910390fd5b6000611335611d15565b905060008151116113555760405180602001604052806000815250611380565b8061135f84611da7565b604051602001611370929190612f02565b6040516020818303038152906040525b915050919050565b6000600560008473ffffffffffffffffffffffffffffffffffffffff1673ffffffffffffffffffffffffffffffffffffffff16815260200190815260200160002060008373ffffffffffffffffffffffffffffffffffffffff1673ffffffffffffffffffffffffffffffffffffffff16815260200190815260200160002060009054906101000a900460ff16905092915050565b611424611680565b73ffffffffffffffffffffffffffffffffffffffff16611442611152565b73ffffffffffffffffffffffffffffffffffffffff1614611498576040517f08c379a000000000000000000000000000000000000000000000000000000000815260040161148f90613261565b60405180910390fd5b600073ffffffffffffffffffffffffffffffffffffffff168173ffffffffffffffffffffffffffffffffffffffff161415611508576040517f08c379a00000000000000000000000000000000000000000000000000000000081526004016114ff906130a1565b60405180910390fd5b61151181611a86565b50565b60007f80ac58cd000000000000000000000000000000000000000000000000000000007bffffffffffffffffffffffffffffffffffffffffffffffffffffffff1916827bffffffffffffffffffffffffffffffffffffffffffffffffffffffff191614806115df57507f5b5e139f000000000000000000000000000000000000000000000000000000007bffffffffffffffffffffffffffffffffffffffffffffffffffffffff1916827bffffffffffffffffffffffffffffffffffffffffffffffffffffffff1916145b806115ef57506115ee82611f08565b5b9050919050565b611610828260405180602001604052806000815250611f72565b5050565b60008073ffffffffffffffffffffffffffffffffffffffff166002600084815260200190815260200160002060009054906101000a900473ffffffffffffffffffffffffffffffffffffffff1673ffffffffffffffffffffffffffffffffffffffff1614159050919050565b600033905090565b816004600083815260200190815260200160002060006101000a81548173ffffffffffffffffffffffffffffffffffffffff021916908373ffffffffffffffffffffffffffffffffffffffff160217905550808273ffffffffffffffffffffffffffffffffffffffff166116fb83610f50565b73ffffffffffffffffffffffffffffffffffffffff167f8c5be1e5ebec7d5bd14f71427d1e84f3dd0314c0f7b2291e5b200ac8c7c3b92560405160405180910390a45050565b600061174c82611614565b61178b576040517f08c379a000000000000000000000000000000000000000000000000000000000815260040161178290613161565b60405180910390fd5b600061179683610f50565b90508073ffffffffffffffffffffffffffffffffffffffff168473ffffffffffffffffffffffffffffffffffffffff16148061180557508373ffffffffffffffffffffffffffffffffffffffff166117ed84610aa6565b73ffffffffffffffffffffffffffffffffffffffff16145b8061181657506118158185611388565b5b91505092915050565b8273ffffffffffffffffffffffffffffffffffffffff1661183f82610f50565b73ffffffffffffffffffffffffffffffffffffffff1614611895576040517f08c379a000000000000000000000000000000000000000000000000000000000815260040161188c906130c1565b60405180910390fd5b600073ffffffffffffffffffffffffffffffffffffffff168273ffffffffffffffffffffffffffffffffffffffff161415611905576040517f08c379a00000000000000000000000000000000000000000000000000000000081526004016118fc90613121565b60405180910390fd5b611910838383611fcd565b61191b600082611688565b6001600360008573ffffffffffffffffffffffffffffffffffffffff1673ffffffffffffffffffffffffffffffffffffffff168152602001908152602001600020600082825461196b9190613427565b925050819055506001600360008473ffffffffffffffffffffffffffffffffffffffff1673ffffffffffffffffffffffffffffffffffffffff16815260200190815260200160002060008282546119c291906133a0565b92505081905550816002600083815260200190815260200160002060006101000a81548173ffffffffffffffffffffffffffffffffffffffff021916908373ffffffffffffffffffffffffffffffffffffffff160217905550808273ffffffffffffffffffffffffffffffffffffffff168473ffffffffffffffffffffffffffffffffffffffff167fddf252ad1be2c89b69c2b068fc378daa952ba7f163c4a11628f55a4df523b3ef60405160405180910390a4611a818383836120e1565b505050565b6000600a60009054906101000a900473ffffffffffffffffffffffffffffffffffffffff16905081600a60006101000a81548173ffffffffffffffffffffffffffffffffffffffff021916908373ffffffffffffffffffffffffffffffffffffffff1602179055508173ffffffffffffffffffffffffffffffffffffffff168173ffffffffffffffffffffffffffffffffffffffff167f8be0079c531659141344cd1fd0a4f28419497f9722a3daafe3b4186f6b6457e060405160405180910390a35050565b8173ffffffffffffffffffffffffffffffffffffffff168373ffffffffffffffffffffffffffffffffffffffff161415611bbb576040517f08c379a0000000000000000000000000000000000000000000000000000000008152600401611bb290613141565b60405180910390fd5b80600560008573ffffffffffffffffffffffffffffffffffffffff1673ffffffffffffffffffffffffffffffffffffffff16815260200190815260200160002060008473ffffffffffffffffffffffffffffffffffffffff1673ffffffffffffffffffffffffffffffffffffffff16815260200190815260200160002060006101000a81548160ff0219169083151502179055508173ffffffffffffffffffffffffffffffffffffffff168373ffffffffffffffffffffffffffffffffffffffff167f17307eab39ab6107e8899845ad3d59bd9653f200f220920489ca2b5937696c3183604051611cac9190612fe4565b60405180910390a3505050565b611cc484848461181f565b611cd0848484846120e6565b611d0f576040517f08c379a0000000000000000000000000000000000000000000000000000000008152600401611d0690613081565b60405180910390fd5b50505050565b6060600d8054611d2490613511565b80601f0160208091040260200160405190810160405280929190818152602001828054611d5090613511565b8015611d9d5780601f10611d7257610100808354040283529160200191611d9d565b820191906000526020600020905b815481529060010190602001808311611d8057829003601f168201915b5050505050905090565b60606000821415611def576040518060400160405280600181526020017f30000000000000000000000000000000000000000000000000000000000000008152509050611f03565b600082905060005b60008214611e21578080611e0a90613574565b915050600a82611e1a91906133f6565b9150611df7565b60008167ffffffffffffffff811115611e3d57611e3c6136d9565b5b6040519080825280601f01601f191660200182016040528015611e6f5781602001600182028036833780820191505090505b5090505b60008514611efc57600182611e889190613427565b9150600a85611e9791906135bd565b6030611ea391906133a0565b60f81b818381518110611eb957611eb86136aa565b5b60200101907effffffffffffffffffffffffffffffffffffffffffffffffffffffffffffff1916908160001a905350600a85611ef591906133f6565b9450611e73565b8093505050505b919050565b60007f01ffc9a7000000000000000000000000000000000000000000000000000000007bffffffffffffffffffffffffffffffffffffffffffffffffffffffff1916827bffffffffffffffffffffffffffffffffffffffffffffffffffffffff1916149050919050565b611f7c838361227d565b611f8960008484846120e6565b611fc8576040517f08c379a0000000000000000000000000000000000000000000000000000000008152600401611fbf90613081565b60405180910390fd5b505050565b611fd8838383612457565b600073ffffffffffffffffffffffffffffffffffffffff168373ffffffffffffffffffffffffffffffffffffffff16141561201b576120168161245c565b61205a565b8173ffffffffffffffffffffffffffffffffffffffff168373ffffffffffffffffffffffffffffffffffffffff16146120595761205883826124a5565b5b5b600073ffffffffffffffffffffffffffffffffffffffff168273ffffffffffffffffffffffffffffffffffffffff16141561209d5761209881612612565b6120dc565b8273ffffffffffffffffffffffffffffffffffffffff168273ffffffffffffffffffffffffffffffffffffffff16146120db576120da82826126e3565b5b5b505050565b505050565b60006121078473ffffffffffffffffffffffffffffffffffffffff16612762565b15612270578373ffffffffffffffffffffffffffffffffffffffff1663150b7a02612130611680565b8786866040518563ffffffff1660e01b81526004016121529493929190612f98565b602060405180830381600087803b15801561216c57600080fd5b505af192505050801561219d57506040513d601f19601f8201168201806040525081019061219a9190612a90565b60015b612220573d80600081146121cd576040519150601f19603f3d011682016040523d82523d6000602084013e6121d2565b606091505b50600081511415612218576040517f08c379a000000000000000000000000000000000000000000000000000000000815260040161220f90613081565b60405180910390fd5b805181602001fd5b63150b7a0260e01b7bffffffffffffffffffffffffffffffffffffffffffffffffffffffff1916817bffffffffffffffffffffffffffffffffffffffffffffffffffffffff191614915050612275565b600190505b949350505050565b600073ffffffffffffffffffffffffffffffffffffffff168273ffffffffffffffffffffffffffffffffffffffff1614156122ed576040517f08c379a00000000000000000000000000000000000000000000000000000000081526004016122e490613221565b60405180910390fd5b6122f681611614565b15612336576040517f08c379a000000000000000000000000000000000000000000000000000000000815260040161232d906130e1565b60405180910390fd5b61234260008383611fcd565b6001600360008473ffffffffffffffffffffffffffffffffffffffff1673ffffffffffffffffffffffffffffffffffffffff168152602001908152602001600020600082825461239291906133a0565b92505081905550816002600083815260200190815260200160002060006101000a81548173ffffffffffffffffffffffffffffffffffffffff021916908373ffffffffffffffffffffffffffffffffffffffff160217905550808273ffffffffffffffffffffffffffffffffffffffff16600073ffffffffffffffffffffffffffffffffffffffff167fddf252ad1be2c89b69c2b068fc378daa952ba7f163c4a11628f55a4df523b3ef60405160405180910390a4612453600083836120e1565b5050565b505050565b6008805490506009600083815260200190815260200160002081905550600881908060018154018082558091505060019003906000526020600020016000909190919091505550565b600060016124b284611002565b6124bc9190613427565b90506000600760008481526020019081526020016000205490508181146125a1576000600660008673ffffffffffffffffffffffffffffffffffffffff1673ffffffffffffffffffffffffffffffffffffffff168152602001908152602001600020600084815260200190815260200160002054905080600660008773ffffffffffffffffffffffffffffffffffffffff1673ffffffffffffffffffffffffffffffffffffffff168152602001908152602001600020600084815260200190815260200160002081905550816007600083815260200190815260200160002081905550505b6007600084815260200190815260200160002060009055600660008573ffffffffffffffffffffffffffffffffffffffff1673ffffffffffffffffffffffffffffffffffffffff16815260200190815260200160002060008381526020019081526020016000206000905550505050565b600060016008805490506126269190613427565b9050600060096000848152602001908152602001600020549050600060088381548110612656576126556136aa565b5b906000526020600020015490508060088381548110612678576126776136aa565b5b9060005260206000200181905550816009600083815260200190815260200160002081905550600960008581526020019081526020016000206000905560088054806126c7576126c661367b565b5b6001900381819060005260206000200160009055905550505050565b60006126ee83611002565b905081600660008573ffffffffffffffffffffffffffffffffffffffff1673ffffffffffffffffffffffffffffffffffffffff168152602001908152602001600020600083815260200190815260200160002081905550806007600084815260200190815260200160002081905550505050565b6000808273ffffffffffffffffffffffffffffffffffffffff163b119050919050565b600061279861279384613321565b6132fc565b9050828152602081018484840111156127b4576127b361370d565b5b6127bf8482856134cf565b509392505050565b6000813590506127d681613ccd565b92915050565b6000813590506127eb81613ce4565b92915050565b60008151905061280081613ce4565b92915050565b60008135905061281581613cfb565b92915050565b60008151905061282a81613cfb565b92915050565b600082601f83011261284557612844613708565b5b8135612855848260208601612785565b91505092915050565b60008135905061286d81613d12565b92915050565b60006020828403121561288957612888613717565b5b6000612897848285016127c7565b91505092915050565b600080604083850312156128b7576128b6613717565b5b60006128c5858286016127c7565b92505060206128d6858286016127c7565b9150509250929050565b6000806000606084860312156128f9576128f8613717565b5b6000612907868287016127c7565b9350506020612918868287016127c7565b92505060406129298682870161285e565b9150509250925092565b6000806000806080858703121561294d5761294c613717565b5b600061295b878288016127c7565b945050602061296c878288016127c7565b935050604061297d8782880161285e565b925050606085013567ffffffffffffffff81111561299e5761299d613712565b5b6129aa87828801612830565b91505092959194509250565b600080604083850312156129cd576129cc613717565b5b60006129db858286016127c7565b92505060206129ec858286016127dc565b9150509250929050565b60008060408385031215612a0d57612a0c613717565b5b6000612a1b858286016127c7565b9250506020612a2c8582860161285e565b9150509250929050565b600060208284031215612a4c57612a4b613717565b5b6000612a5a848285016127f1565b91505092915050565b600060208284031215612a7957612a78613717565b5b6000612a8784828501612806565b91505092915050565b600060208284031215612aa657612aa5613717565b5b6000612ab48482850161281b565b91505092915050565b600060208284031215612ad357612ad2613717565b5b6000612ae18482850161285e565b91505092915050565b612af38161345b565b82525050565b612b028161346d565b82525050565b6000612b1382613352565b612b1d8185613368565b9350612b2d8185602086016134de565b612b368161371c565b840191505092915050565b6000612b4c8261335d565b612b568185613384565b9350612b668185602086016134de565b612b6f8161371c565b840191505092915050565b6000612b858261335d565b612b8f8185613395565b9350612b9f8185602086016134de565b80840191505092915050565b6000612bb8600983613384565b9150612bc38261372d565b602082019050919050565b6000612bdb601983613384565b9150612be682613756565b602082019050919050565b6000612bfe602b83613384565b9150612c098261377f565b604082019050919050565b6000612c21603283613384565b9150612c2c826137ce565b604082019050919050565b6000612c44602683613384565b9150612c4f8261381d565b604082019050919050565b6000612c67602583613384565b9150612c728261386c565b604082019050919050565b6000612c8a601c83613384565b9150612c95826138bb565b602082019050919050565b6000612cad601483613384565b9150612cb8826138e4565b602082019050919050565b6000612cd0602483613384565b9150612cdb8261390d565b604082019050919050565b6000612cf3601983613384565b9150612cfe8261395c565b602082019050919050565b6000612d16602c83613384565b9150612d2182613985565b604082019050919050565b6000612d39601783613384565b9150612d44826139d4565b602082019050919050565b6000612d5c603883613384565b9150612d67826139fd565b604082019050919050565b6000612d7f602a83613384565b9150612d8a82613a4c565b604082019050919050565b6000612da2602983613384565b9150612dad82613a9b565b604082019050919050565b6000612dc5601883613384565b9150612dd082613aea565b602082019050919050565b6000612de8602083613384565b9150612df382613b13565b602082019050919050565b6000612e0b602c83613384565b9150612e1682613b3c565b604082019050919050565b6000612e2e600583613395565b9150612e3982613b8b565b600582019050919050565b6000612e51602083613384565b9150612e5c82613bb4565b602082019050919050565b6000612e74602183613384565b9150612e7f82613bdd565b604082019050919050565b6000612e97600083613379565b9150612ea282613c2c565b600082019050919050565b6000612eba603183613384565b9150612ec582613c2f565b604082019050919050565b6000612edd602c83613384565b9150612ee882613c7e565b604082019050919050565b612efc816134c5565b82525050565b6000612f0e8285612b7a565b9150612f1a8284612b7a565b9150612f2582612e21565b91508190509392505050565b6000612f3c82612e8a565b9150819050919050565b6000602082019050612f5b6000830184612aea565b92915050565b6000606082019050612f766000830186612aea565b612f836020830185612aea565b612f906040830184612ef3565b949350505050565b6000608082019050612fad6000830187612aea565b612fba6020830186612aea565b612fc76040830185612ef3565b8181036060830152612fd98184612b08565b905095945050505050565b6000602082019050612ff96000830184612af9565b92915050565b600060208201905081810360008301526130198184612b41565b905092915050565b6000602082019050818103600083015261303a81612bab565b9050919050565b6000602082019050818103600083015261305a81612bce565b9050919050565b6000602082019050818103600083015261307a81612bf1565b9050919050565b6000602082019050818103600083015261309a81612c14565b9050919050565b600060208201905081810360008301526130ba81612c37565b9050919050565b600060208201905081810360008301526130da81612c5a565b9050919050565b600060208201905081810360008301526130fa81612c7d565b9050919050565b6000602082019050818103600083015261311a81612ca0565b9050919050565b6000602082019050818103600083015261313a81612cc3565b9050919050565b6000602082019050818103600083015261315a81612ce6565b9050919050565b6000602082019050818103600083015261317a81612d09565b9050919050565b6000602082019050818103600083015261319a81612d2c565b9050919050565b600060208201905081810360008301526131ba81612d4f565b9050919050565b600060208201905081810360008301526131da81612d72565b9050919050565b600060208201905081810360008301526131fa81612d95565b9050919050565b6000602082019050818103600083015261321a81612db8565b9050919050565b6000602082019050818103600083015261323a81612ddb565b9050919050565b6000602082019050818103600083015261325a81612dfe565b9050919050565b6000602082019050818103600083015261327a81612e44565b9050919050565b6000602082019050818103600083015261329a81612e67565b9050919050565b600060208201905081810360008301526132ba81612ead565b9050919050565b600060208201905081810360008301526132da81612ed0565b9050919050565b60006020820190506132f66000830184612ef3565b92915050565b6000613306613317565b90506133128282613543565b919050565b6000604051905090565b600067ffffffffffffffff82111561333c5761333b6136d9565b5b6133458261371c565b9050602081019050919050565b600081519050919050565b600081519050919050565b600082825260208201905092915050565b600081905092915050565b600082825260208201905092915050565b600081905092915050565b60006133ab826134c5565b91506133b6836134c5565b9250827fffffffffffffffffffffffffffffffffffffffffffffffffffffffffffffffff038211156133eb576133ea6135ee565b5b828201905092915050565b6000613401826134c5565b915061340c836134c5565b92508261341c5761341b61361d565b5b828204905092915050565b6000613432826134c5565b915061343d836134c5565b9250828210156134505761344f6135ee565b5b828203905092915050565b6000613466826134a5565b9050919050565b60008115159050919050565b60007fffffffff0000000000000000000000000000000000000000000000000000000082169050919050565b600073ffffffffffffffffffffffffffffffffffffffff82169050919050565b6000819050919050565b82818337600083830152505050565b60005b838110156134fc5780820151818401526020810190506134e1565b8381111561350b576000848401525b50505050565b6000600282049050600182168061352957607f821691505b6020821081141561353d5761353c61364c565b5b50919050565b61354c8261371c565b810181811067ffffffffffffffff8211171561356b5761356a6136d9565b5b80604052505050565b600061357f826134c5565b91507fffffffffffffffffffffffffffffffffffffffffffffffffffffffffffffffff8214156135b2576135b16135ee565b5b600182019050919050565b60006135c8826134c5565b91506135d3836134c5565b9250826135e3576135e261361d565b5b828206905092915050565b7f4e487b7100000000000000000000000000000000000000000000000000000000600052601160045260246000fd5b7f4e487b7100000000000000000000000000000000000000000000000000000000600052601260045260246000fd5b7f4e487b7100000000000000000000000000000000000000000000000000000000600052602260045260246000fd5b7f4e487b7100000000000000000000000000000000000000000000000000000000600052603160045260246000fd5b7f4e487b7100000000000000000000000000000000000000000000000000000000600052603260045260246000fd5b7f4e487b7100000000000000000000000000000000000000000000000000000000600052604160045260246000fd5b600080fd5b600080fd5b600080fd5b600080fd5b6000601f19601f8301169050919050565b7f4e6f742045786973740000000000000000000000000000000000000000000000600082015250565b7f596f7520616c7265616479206d696e746564206265666f726500000000000000600082015250565b7f455243373231456e756d657261626c653a206f776e657220696e646578206f7560008201527f74206f6620626f756e6473000000000000000000000000000000000000000000602082015250565b7f4552433732313a207472616e7366657220746f206e6f6e20455243373231526560008201527f63656976657220696d706c656d656e7465720000000000000000000000000000602082015250565b7f4f776e61626c653a206e6577206f776e657220697320746865207a65726f206160008201527f6464726573730000000000000000000000000000000000000000000000000000602082015250565b7f4552433732313a207472616e736665722066726f6d20696e636f72726563742060008201527f6f776e6572000000000000000000000000000000000000000000000000000000602082015250565b7f4552433732313a20746f6b656e20616c7265616479206d696e74656400000000600082015250565b7f4661696c656420746f2073656e64204574686572000000000000000000000000600082015250565b7f4552433732313a207472616e7366657220746f20746865207a65726f2061646460008201527f7265737300000000000000000000000000000000000000000000000000000000602082015250565b7f4552433732313a20617070726f766520746f2063616c6c657200000000000000600082015250565b7f4552433732313a206f70657261746f7220717565727920666f72206e6f6e657860008201527f697374656e7420746f6b656e0000000000000000000000000000000000000000602082015250565b7f596f75206172652020612066616c7365206d656d626572000000000000000000600082015250565b7f4552433732313a20617070726f76652063616c6c6572206973206e6f74206f7760008201527f6e6572206e6f7220617070726f76656420666f7220616c6c0000000000000000602082015250565b7f4552433732313a2062616c616e636520717565727920666f7220746865207a6560008201527f726f206164647265737300000000000000000000000000000000000000000000602082015250565b7f4552433732313a206f776e657220717565727920666f72206e6f6e657869737460008201527f656e7420746f6b656e0000000000000000000000000000000000000000000000602082015250565b7f536f7272792062726f20697473206861732066696e6973680000000000000000600082015250565b7f4552433732313a206d696e7420746f20746865207a65726f2061646472657373600082015250565b7f4552433732313a20617070726f76656420717565727920666f72206e6f6e657860008201527f697374656e7420746f6b656e0000000000000000000000000000000000000000602082015250565b7f2e6a736f6e000000000000000000000000000000000000000000000000000000600082015250565b7f4f776e61626c653a2063616c6c6572206973206e6f7420746865206f776e6572600082015250565b7f4552433732313a20617070726f76616c20746f2063757272656e74206f776e6560008201527f7200000000000000000000000000000000000000000000000000000000000000602082015250565b50565b7f4552433732313a207472616e736665722063616c6c6572206973206e6f74206f60008201527f776e6572206e6f7220617070726f766564000000000000000000000000000000602082015250565b7f455243373231456e756d657261626c653a20676c6f62616c20696e646578206f60008201527f7574206f6620626f756e64730000000000000000000000000000000000000000602082015250565b613cd68161345b565b8114613ce157600080fd5b50565b613ced8161346d565b8114613cf857600080fd5b50565b613d0481613479565b8114613d0f57600080fd5b50565b613d1b816134c5565b8114613d2657600080fd5b5056fea2646970667358221220b872266eaa12a4412629b6049f1a5a4a00a63ddb8b9ec5dda05e8022e0d7cf7f64736f6c63430008070033",
  "linkReferences": {},
  "deployedLinkReferences": {}
}