{
  "_format": "hh-sol-artifact-1",
  "contractName": "VotingDappByOleanji",
  "sourceName": "contracts/voting.sol",
  "abi": [
    {
      "inputs": [
        {
          "internalType": "address",
          "name": "_tokenAddress",
          "type": "address"
        },
        {
          "internalType": "uint256",
          "name": "updateInterval",
          "type": "uint256"
        },
        {
          "internalType": "uint64",
          "name": "subscriptionId",
          "type": "uint64"
        }
      ],
      "stateMutability": "nonpayable",
      "type": "constructor"
    },
    {
      "inputs": [
        {
          "internalType": "address",
          "name": "have",
          "type": "address"
        },
        {
          "internalType": "address",
          "name": "want",
          "type": "address"
        }
      ],
      "name": "OnlyCoordinatorCanFulfill",
      "type": "error"
    },
    {
      "inputs": [],
      "name": "UpkeepNotNeeded",
      "type": "error"
    },
    {
      "anonymous": false,
      "inputs": [
        {
          "indexed": true,
          "internalType": "address",
          "name": "previousOwner",
          "type": "address"
        },
        {
          "indexed": true,
          "internalType": "address",
          "name": "newOwner",
          "type": "address"
        }
      ],
      "name": "OwnershipTransferred",
      "type": "event"
    },
    {
      "inputs": [
        {
          "internalType": "uint256",
          "name": "id",
          "type": "uint256"
        }
      ],
      "name": "CreditWinner",
      "outputs": [],
      "stateMutability": "nonpayable",
      "type": "function"
    },
    {
      "inputs": [
        {
          "internalType": "address",
          "name": "sender",
          "type": "address"
        }
      ],
      "name": "IsACandidate",
      "outputs": [
        {
          "internalType": "bool",
          "name": "",
          "type": "bool"
        }
      ],
      "stateMutability": "view",
      "type": "function"
    },
    {
      "inputs": [],
      "name": "ResetApplication",
      "outputs": [],
      "stateMutability": "nonpayable",
      "type": "function"
    },
    {
      "inputs": [],
      "name": "applicationCalculating",
      "outputs": [
        {
          "internalType": "bool",
          "name": "",
          "type": "bool"
        }
      ],
      "stateMutability": "view",
      "type": "function"
    },
    {
      "inputs": [],
      "name": "applicationStarted",
      "outputs": [
        {
          "internalType": "bool",
          "name": "",
          "type": "bool"
        }
      ],
      "stateMutability": "view",
      "type": "function"
    },
    {
      "inputs": [
        {
          "internalType": "address",
          "name": "",
          "type": "address"
        }
      ],
      "name": "areYouACandidate",
      "outputs": [
        {
          "internalType": "bool",
          "name": "",
          "type": "bool"
        }
      ],
      "stateMutability": "view",
      "type": "function"
    },
    {
      "inputs": [
        {
          "internalType": "bytes",
          "name": "",
          "type": "bytes"
        }
      ],
      "name": "checkUpkeep",
      "outputs": [
        {
          "internalType": "bool",
          "name": "upkeepNeeded",
          "type": "bool"
        },
        {
          "internalType": "bytes",
          "name": "",
          "type": "bytes"
        }
      ],
      "stateMutability": "view",
      "type": "function"
    },
    {
      "inputs": [],
      "name": "fetchVotersList",
      "outputs": [
        {
          "components": [
            {
              "internalType": "uint256",
              "name": "votersId",
              "type": "uint256"
            },
            {
              "internalType": "address",
              "name": "candidateAddress",
              "type": "address"
            },
            {
              "internalType": "string",
              "name": "Slogan",
              "type": "string"
            },
            {
              "internalType": "string",
              "name": "name",
              "type": "string"
            }
          ],
          "internalType": "struct VotingDappByOleanji.Voters[]",
          "name": "",
          "type": "tuple[]"
        }
      ],
      "stateMutability": "view",
      "type": "function"
    },
    {
      "inputs": [],
      "name": "getNumberOfCandidates",
      "outputs": [
        {
          "internalType": "uint256",
          "name": "",
          "type": "uint256"
        }
      ],
      "stateMutability": "view",
      "type": "function"
    },
    {
      "inputs": [],
      "name": "getVotingPrice",
      "outputs": [
        {
          "internalType": "uint256",
          "name": "",
          "type": "uint256"
        }
      ],
      "stateMutability": "view",
      "type": "function"
    },
    {
      "inputs": [],
      "name": "interval",
      "outputs": [
        {
          "internalType": "uint256",
          "name": "",
          "type": "uint256"
        }
      ],
      "stateMutability": "view",
      "type": "function"
    },
    {
      "inputs": [
        {
          "internalType": "string",
          "name": "_slogan",
          "type": "string"
        },
        {
          "internalType": "uint256",
          "name": "_amount",
          "type": "uint256"
        }
      ],
      "name": "jointhecandidateList",
      "outputs": [],
      "stateMutability": "payable",
      "type": "function"
    },
    {
      "inputs": [],
      "name": "lastTimeStamp",
      "outputs": [
        {
          "internalType": "uint256",
          "name": "",
          "type": "uint256"
        }
      ],
      "stateMutability": "view",
      "type": "function"
    },
    {
      "inputs": [],
      "name": "numofappliedCandidates",
      "outputs": [
        {
          "internalType": "uint256",
          "name": "_value",
          "type": "uint256"
        }
      ],
      "stateMutability": "view",
      "type": "function"
    },
    {
      "inputs": [],
      "name": "owner",
      "outputs": [
        {
          "internalType": "address",
          "name": "",
          "type": "address"
        }
      ],
      "stateMutability": "view",
      "type": "function"
    },
    {
      "inputs": [
        {
          "internalType": "bytes",
          "name": "",
          "type": "bytes"
        }
      ],
      "name": "performUpkeep",
      "outputs": [],
      "stateMutability": "nonpayable",
      "type": "function"
    },
    {
      "inputs": [
        {
          "internalType": "uint256",
          "name": "requestId",
          "type": "uint256"
        },
        {
          "internalType": "uint256[]",
          "name": "randomWords",
          "type": "uint256[]"
        }
      ],
      "name": "rawFulfillRandomWords",
      "outputs": [],
      "stateMutability": "nonpayable",
      "type": "function"
    },
    {
      "inputs": [],
      "name": "renounceOwnership",
      "outputs": [],
      "stateMutability": "nonpayable",
      "type": "function"
    },
    {
      "inputs": [],
      "name": "s_randomLuck",
      "outputs": [
        {
          "internalType": "uint256",
          "name": "",
          "type": "uint256"
        }
      ],
      "stateMutability": "view",
      "type": "function"
    },
    {
      "inputs": [],
      "name": "s_requestId",
      "outputs": [
        {
          "internalType": "uint256",
          "name": "",
          "type": "uint256"
        }
      ],
      "stateMutability": "view",
      "type": "function"
    },
    {
      "inputs": [
        {
          "internalType": "address",
          "name": "newOwner",
          "type": "address"
        }
      ],
      "name": "transferOwnership",
      "outputs": [],
      "stateMutability": "nonpayable",
      "type": "function"
    },
    {
      "inputs": [],
      "name": "winner",
      "outputs": [
        {
          "internalType": "address",
          "name": "",
          "type": "address"
        }
      ],
      "stateMutability": "view",
      "type": "function"
    },
    {
      "inputs": [],
      "name": "withdraw",
      "outputs": [],
      "stateMutability": "nonpayable",
      "type": "function"
    }
  ],
  "bytecode": "0x60c060405260966004556001600860006101000a81548160ff0219169083151502179055506000600860016101000a81548160ff021916908315150217905550680d8d726b7177a80000600955736168499c0cffcacd319c818142124b7a15e857ab600b60006101000a81548173ffffffffffffffffffffffffffffffffffffffff021916908373ffffffffffffffffffffffffffffffffffffffff1602179055507fd89b2bf150e3b9e13446986e571fb9cab24b13cea0a43ea20a6049a85cc807cc60001b600c55620493e0600d60006101000a81548163ffffffff021916908363ffffffff1602179055506003600d60046101000a81548161ffff021916908361ffff1602179055506001600d60066101000a81548163ffffffff021916908363ffffffff1602179055503480156200013957600080fd5b50604051620030423803806200304283398181016040528101906200015f919062000452565b600b60009054906101000a900473ffffffffffffffffffffffffffffffffffffffff168073ffffffffffffffffffffffffffffffffffffffff1660808173ffffffffffffffffffffffffffffffffffffffff1660601b8152505050620001da620001ce6200034160201b60201c565b6200034960201b60201c565b8160a081815250504260018190555082600260006101000a81548173ffffffffffffffffffffffffffffffffffffffff021916908373ffffffffffffffffffffffffffffffffffffffff16021790555082600360006101000a81548173ffffffffffffffffffffffffffffffffffffffff021916908373ffffffffffffffffffffffffffffffffffffffff160217905550600b60009054906101000a900473ffffffffffffffffffffffffffffffffffffffff16600a60006101000a81548173ffffffffffffffffffffffffffffffffffffffff021916908373ffffffffffffffffffffffffffffffffffffffff16021790555033601160006101000a81548173ffffffffffffffffffffffffffffffffffffffff021916908373ffffffffffffffffffffffffffffffffffffffff16021790555080600a60146101000a81548167ffffffffffffffff021916908367ffffffffffffffff16021790555050505062000553565b600033905090565b60008060009054906101000a900473ffffffffffffffffffffffffffffffffffffffff169050816000806101000a81548173ffffffffffffffffffffffffffffffffffffffff021916908373ffffffffffffffffffffffffffffffffffffffff1602179055508173ffffffffffffffffffffffffffffffffffffffff168173ffffffffffffffffffffffffffffffffffffffff167f8be0079c531659141344cd1fd0a4f28419497f9722a3daafe3b4186f6b6457e060405160405180910390a35050565b6000815190506200041e8162000505565b92915050565b60008151905062000435816200051f565b92915050565b6000815190506200044c8162000539565b92915050565b6000806000606084860312156200046e576200046d62000500565b5b60006200047e868287016200040d565b9350506020620004918682870162000424565b9250506040620004a4868287016200043b565b9150509250925092565b6000620004bb82620004c2565b9050919050565b600073ffffffffffffffffffffffffffffffffffffffff82169050919050565b6000819050919050565b600067ffffffffffffffff82169050919050565b600080fd5b6200051081620004ae565b81146200051c57600080fd5b50565b6200052a81620004e2565b81146200053657600080fd5b50565b6200054481620004ec565b81146200055057600080fd5b50565b60805160601c60a051612ab86200058a60003960008181610cc0015261158801526000818161051a015261056e0152612ab86000f3fe6080604052600436106101405760003560e01c80637a84d13e116100b6578063a829ae7a1161006f578063a829ae7a146103f4578063a82da0061461041f578063c6be52881461045c578063dfbf53ae14610487578063e89e106a146104b2578063f2fde38b146104dd57610140565b80637a84d13e146102f15780637fed5dca1461031c57806384547dd6146103595780638a201ba4146103755780638da5cb5b1461039e578063947a36fb146103c957610140565b80634585e33b116101085780634585e33b1461020657806347e91cc51461022f5780635dd8479b1461025a5780636e04ff0d14610271578063715018a6146102af57806373f1975f146102c657610140565b8063040f10b4146101455780631b75d00f146101705780631fe543e31461019b5780633ccfd60b146101c45780633f3b3b27146101db575b600080fd5b34801561015157600080fd5b5061015a610506565b6040516101679190612407565b60405180910390f35b34801561017c57600080fd5b50610185610512565b6040516101929190612407565b60405180910390f35b3480156101a757600080fd5b506101c260048036038101906101bd9190611e4e565b610518565b005b3480156101d057600080fd5b506101d96105d8565b005b3480156101e757600080fd5b506101f0610716565b6040516101fd9190612407565b60405180910390f35b34801561021257600080fd5b5061022d60048036038101906102289190611cb9565b61071c565b005b34801561023b57600080fd5b5061024461087c565b6040516102519190612267565b60405180910390f35b34801561026657600080fd5b5061026f610b19565b005b34801561027d57600080fd5b5061029860048036038101906102939190611d06565b610ca4565b6040516102a69291906122a4565b60405180910390f35b3480156102bb57600080fd5b506102c4610d5a565b005b3480156102d257600080fd5b506102db610de2565b6040516102e89190612407565b60405180910390f35b3480156102fd57600080fd5b50610306610dec565b6040516103139190612407565b60405180910390f35b34801561032857600080fd5b50610343600480360381019061033e9190611c5f565b610dfd565b6040516103509190612289565b60405180910390f35b610373600480360381019061036e9190611d98565b610e58565b005b34801561038157600080fd5b5061039c60048036038101906103979190611df4565b6112f2565b005b3480156103aa57600080fd5b506103b361155d565b6040516103c091906121c3565b60405180910390f35b3480156103d557600080fd5b506103de611586565b6040516103eb9190612407565b60405180910390f35b34801561040057600080fd5b506104096115aa565b6040516104169190612289565b60405180910390f35b34801561042b57600080fd5b5061044660048036038101906104419190611c5f565b6115bd565b6040516104539190612289565b60405180910390f35b34801561046857600080fd5b506104716115dd565b60405161047e9190612289565b60405180910390f35b34801561049357600080fd5b5061049c6115f0565b6040516104a991906121c3565b60405180910390f35b3480156104be57600080fd5b506104c7611616565b6040516104d49190612407565b60405180910390f35b3480156104e957600080fd5b5061050460048036038101906104ff9190611c5f565b61161c565b005b60058060000154905081565b600e5481565b7f000000000000000000000000000000000000000000000000000000000000000073ffffffffffffffffffffffffffffffffffffffff163373ffffffffffffffffffffffffffffffffffffffff16146105ca57337f00000000000000000000000000000000000000000000000000000000000000006040517f1cf993f40000000000000000000000000000000000000000000000000000000081526004016105c19291906121de565b60405180910390fd5b6105d48282611714565b5050565b6105e06117a9565b73ffffffffffffffffffffffffffffffffffffffff166105fe61155d565b73ffffffffffffffffffffffffffffffffffffffff1614610654576040517f08c379a000000000000000000000000000000000000000000000000000000000815260040161064b906123a7565b60405180910390fd5b600061065e61155d565b9050600047905060008273ffffffffffffffffffffffffffffffffffffffff168260405161068b906121ae565b60006040518083038185875af1925050503d80600081146106c8576040519150601f19603f3d011682016040523d82523d6000602084013e6106cd565b606091505b5050905080610711576040517f08c379a000000000000000000000000000000000000000000000000000000000815260040161070890612347565b60405180910390fd5b505050565b60015481565b600061073660405180602001604052806000815250610ca4565b50905080610770576040517f865676e300000000000000000000000000000000000000000000000000000000815260040160405180910390fd5b600a60009054906101000a900473ffffffffffffffffffffffffffffffffffffffff1673ffffffffffffffffffffffffffffffffffffffff16635d3b1d30600c54600a60149054906101000a900467ffffffffffffffff16600d60049054906101000a900461ffff16600d60009054906101000a900463ffffffff16600d60069054906101000a900463ffffffff166040518663ffffffff1660e01b815260040161081f9594939291906122d4565b602060405180830381600087803b15801561083957600080fd5b505af115801561084d573d6000803e3d6000fd5b505050506040513d601f19601f820116820180604052508101906108719190611e21565b601081905550505050565b6060600061088a60056117b1565b905060008167ffffffffffffffff8111156108a8576108a761284b565b5b6040519080825280602002602001820160405280156108e157816020015b6108ce6118a6565b8152602001906001900390816108c65790505b5090506000806108f160056117b1565b905060005b81811015610b0e576000600760006001846109119190612562565b8152602001908152602001600020600001549050600060076000838152602001908152602001600020905080604051806080016040529081600082015481526020016001820160009054906101000a900473ffffffffffffffffffffffffffffffffffffffff1673ffffffffffffffffffffffffffffffffffffffff1673ffffffffffffffffffffffffffffffffffffffff1681526020016002820180546109b8906126b2565b80601f01602080910402602001604051908101604052809291908181526020018280546109e4906126b2565b8015610a315780601f10610a0657610100808354040283529160200191610a31565b820191906000526020600020905b815481529060010190602001808311610a1457829003601f168201915b50505050508152602001600382018054610a4a906126b2565b80601f0160208091040260200160405190810160405280929190818152602001828054610a76906126b2565b8015610ac35780601f10610a9857610100808354040283529160200191610ac3565b820191906000526020600020905b815481529060010190602001808311610aa657829003601f168201915b505050505081525050868681518110610adf57610ade61281c565b5b6020026020010181905250600185610af79190612562565b945050508080610b0690612715565b9150506108f6565b508294505050505090565b6001600860006101000a81548160ff0219169083151502179055506000600860016101000a81548160ff02191690831515021790555042600181905550600080610b6360056117b1565b9050600091505b80821015610c9657600060076000600185610b859190612562565b815260200190815260200160002060010160009054906101000a900473ffffffffffffffffffffffffffffffffffffffff1690506000600660008373ffffffffffffffffffffffffffffffffffffffff1673ffffffffffffffffffffffffffffffffffffffff16815260200190815260200160002060006101000a81548160ff02191690831515021790555060076000600185610c229190612562565b81526020019081526020016000206000808201600090556001820160006101000a81549073ffffffffffffffffffffffffffffffffffffffff0219169055600282016000610c7091906118e4565b600382016000610c8091906118e4565b5050508180610c8e90612715565b925050610b6a565b610ca060056117bf565b5050565b600060606000600860009054906101000a900460ff16905060007f000000000000000000000000000000000000000000000000000000000000000060015442610ced91906125b8565b11905060006001610cfe60056117b1565b10159050828015610d0c5750815b8015610d155750805b9450846040518060400160405280600381526020017f307830000000000000000000000000000000000000000000000000000000000081525094509450505050915091565b610d626117a9565b73ffffffffffffffffffffffffffffffffffffffff16610d8061155d565b73ffffffffffffffffffffffffffffffffffffffff1614610dd6576040517f08c379a0000000000000000000000000000000000000000000000000000000008152600401610dcd906123a7565b60405180910390fd5b610de060006117cc565b565b6000600454905090565b6000610df860056117b1565b905090565b600080600660008473ffffffffffffffffffffffffffffffffffffffff1673ffffffffffffffffffffffffffffffffffffffff16815260200190815260200160002060009054906101000a900460ff16905080915050919050565b600860009054906101000a900460ff168015610e815750600860019054906101000a900460ff16155b610ec0576040517f08c379a0000000000000000000000000000000000000000000000000000000008152600401610eb790612387565b60405180910390fd5b600660003373ffffffffffffffffffffffffffffffffffffffff1673ffffffffffffffffffffffffffffffffffffffff16815260200190815260200160002060009054906101000a900460ff1615610f4d576040517f08c379a0000000000000000000000000000000000000000000000000000000008152600401610f44906123c7565b60405180910390fd5b60011515600360009054906101000a900473ffffffffffffffffffffffffffffffffffffffff1673ffffffffffffffffffffffffffffffffffffffff166335f1b834336040518263ffffffff1660e01b8152600401610fac91906121c3565b60206040518083038186803b158015610fc457600080fd5b505afa158015610fd8573d6000803e3d6000fd5b505050506040513d601f19601f82011682018060405250810190610ffc9190611c8c565b15151461103e576040517f08c379a000000000000000000000000000000000000000000000000000000000815260040161103590612367565b60405180910390fd5b6110486005611890565b600061105460056117b1565b90506000600360009054906101000a900473ffffffffffffffffffffffffffffffffffffffff1673ffffffffffffffffffffffffffffffffffffffff1663ffdd5cf1336040518263ffffffff1660e01b81526004016110b391906121c3565b60006040518083038186803b1580156110cb57600080fd5b505afa1580156110df573d6000803e3d6000fd5b505050506040513d6000823e3d601f19601f820116820180604052508101906111089190611d4f565b905060405180608001604052808381526020013373ffffffffffffffffffffffffffffffffffffffff16815260200185815260200182815250600760008481526020019081526020016000206000820151816000015560208201518160010160006101000a81548173ffffffffffffffffffffffffffffffffffffffff021916908373ffffffffffffffffffffffffffffffffffffffff16021790555060408201518160020190805190602001906111c1929190611924565b5060608201518160030190805190602001906111de929190611924565b509050506001600660003373ffffffffffffffffffffffffffffffffffffffff1673ffffffffffffffffffffffffffffffffffffffff16815260200190815260200160002060006101000a81548160ff021916908315150217905550600260009054906101000a900473ffffffffffffffffffffffffffffffffffffffff1673ffffffffffffffffffffffffffffffffffffffff166323b872dd3330866040518463ffffffff1660e01b815260040161129993929190612207565b602060405180830381600087803b1580156112b357600080fd5b505af11580156112c7573d6000803e3d6000fd5b505050506040513d601f19601f820116820180604052508101906112eb9190611c8c565b5050505050565b600860009054906101000a900460ff1615801561131b5750600860019054906101000a900460ff165b61135a576040517f08c379a0000000000000000000000000000000000000000000000000000000008152600401611351906123e7565b60405180910390fd5b60008061136760056117b1565b9050600091505b8082101561155857600760006001846113879190612562565b815260200190815260200160002060000154831415611545576007600084815260200190815260200160002060010160009054906101000a900473ffffffffffffffffffffffffffffffffffffffff16600f60006101000a81548173ffffffffffffffffffffffffffffffffffffffff021916908373ffffffffffffffffffffffffffffffffffffffff160217905550600360009054906101000a900473ffffffffffffffffffffffffffffffffffffffff1673ffffffffffffffffffffffffffffffffffffffff1663fc568681600f60009054906101000a900473ffffffffffffffffffffffffffffffffffffffff166009546040518363ffffffff1660e01b815260040161149892919061223e565b600060405180830381600087803b1580156114b257600080fd5b505af11580156114c6573d6000803e3d6000fd5b50505050600060066000600f60009054906101000a900473ffffffffffffffffffffffffffffffffffffffff1673ffffffffffffffffffffffffffffffffffffffff1673ffffffffffffffffffffffffffffffffffffffff16815260200190815260200160002060006101000a81548160ff0219169083151502179055505b818061155090612715565b92505061136e565b505050565b60008060009054906101000a900473ffffffffffffffffffffffffffffffffffffffff16905090565b7f000000000000000000000000000000000000000000000000000000000000000081565b600860009054906101000a900460ff1681565b60066020528060005260406000206000915054906101000a900460ff1681565b600860019054906101000a900460ff1681565b600f60009054906101000a900473ffffffffffffffffffffffffffffffffffffffff1681565b60105481565b6116246117a9565b73ffffffffffffffffffffffffffffffffffffffff1661164261155d565b73ffffffffffffffffffffffffffffffffffffffff1614611698576040517f08c379a000000000000000000000000000000000000000000000000000000000815260040161168f906123a7565b60405180910390fd5b600073ffffffffffffffffffffffffffffffffffffffff168173ffffffffffffffffffffffffffffffffffffffff161415611708576040517f08c379a00000000000000000000000000000000000000000000000000000000081526004016116ff90612327565b60405180910390fd5b611711816117cc565b50565b600061172060056117b1565b9050600181836000815181106117395761173861281c565b5b602002602001015161174b919061275e565b6117559190612562565b600e819055506000600860006101000a81548160ff0219169083151502179055506001600860016101000a81548160ff02191690831515021790555061179c600e546112f2565b6117a4610b19565b505050565b600033905090565b600081600001549050919050565b6000816000018190555050565b60008060009054906101000a900473ffffffffffffffffffffffffffffffffffffffff169050816000806101000a81548173ffffffffffffffffffffffffffffffffffffffff021916908373ffffffffffffffffffffffffffffffffffffffff1602179055508173ffffffffffffffffffffffffffffffffffffffff168173ffffffffffffffffffffffffffffffffffffffff167f8be0079c531659141344cd1fd0a4f28419497f9722a3daafe3b4186f6b6457e060405160405180910390a35050565b6001816000016000828254019250508190555050565b604051806080016040528060008152602001600073ffffffffffffffffffffffffffffffffffffffff16815260200160608152602001606081525090565b5080546118f0906126b2565b6000825580601f106119025750611921565b601f01602090049060005260206000209081019061192091906119aa565b5b50565b828054611930906126b2565b90600052602060002090601f0160209004810192826119525760008555611999565b82601f1061196b57805160ff1916838001178555611999565b82800160010185558215611999579182015b8281111561199857825182559160200191906001019061197d565b5b5090506119a691906119aa565b5090565b5b808211156119c35760008160009055506001016119ab565b5090565b60006119da6119d584612447565b612422565b905080838252602082019050828560208602820111156119fd576119fc612884565b5b60005b85811015611a2d5781611a138882611c35565b845260208401935060208301925050600181019050611a00565b5050509392505050565b6000611a4a611a4584612473565b612422565b905082815260208101848484011115611a6657611a65612889565b5b611a71848285612670565b509392505050565b6000611a8c611a87846124a4565b612422565b905082815260208101848484011115611aa857611aa7612889565b5b611ab3848285612670565b509392505050565b6000611ace611ac9846124a4565b612422565b905082815260208101848484011115611aea57611ae9612889565b5b611af584828561267f565b509392505050565b600081359050611b0c81612a3d565b92915050565b600082601f830112611b2757611b2661287f565b5b8135611b378482602086016119c7565b91505092915050565b600081519050611b4f81612a54565b92915050565b60008083601f840112611b6b57611b6a61287f565b5b8235905067ffffffffffffffff811115611b8857611b8761287a565b5b602083019150836001820283011115611ba457611ba3612884565b5b9250929050565b600082601f830112611bc057611bbf61287f565b5b8135611bd0848260208601611a37565b91505092915050565b600082601f830112611bee57611bed61287f565b5b8135611bfe848260208601611a79565b91505092915050565b600082601f830112611c1c57611c1b61287f565b5b8151611c2c848260208601611abb565b91505092915050565b600081359050611c4481612a6b565b92915050565b600081519050611c5981612a6b565b92915050565b600060208284031215611c7557611c74612893565b5b6000611c8384828501611afd565b91505092915050565b600060208284031215611ca257611ca1612893565b5b6000611cb084828501611b40565b91505092915050565b60008060208385031215611cd057611ccf612893565b5b600083013567ffffffffffffffff811115611cee57611ced61288e565b5b611cfa85828601611b55565b92509250509250929050565b600060208284031215611d1c57611d1b612893565b5b600082013567ffffffffffffffff811115611d3a57611d3961288e565b5b611d4684828501611bab565b91505092915050565b600060208284031215611d6557611d64612893565b5b600082015167ffffffffffffffff811115611d8357611d8261288e565b5b611d8f84828501611c07565b91505092915050565b60008060408385031215611daf57611dae612893565b5b600083013567ffffffffffffffff811115611dcd57611dcc61288e565b5b611dd985828601611bd9565b9250506020611dea85828601611c35565b9150509250929050565b600060208284031215611e0a57611e09612893565b5b6000611e1884828501611c35565b91505092915050565b600060208284031215611e3757611e36612893565b5b6000611e4584828501611c4a565b91505092915050565b60008060408385031215611e6557611e64612893565b5b6000611e7385828601611c35565b925050602083013567ffffffffffffffff811115611e9457611e9361288e565b5b611ea085828601611b12565b9150509250929050565b6000611eb683836120f9565b905092915050565b611ec7816125ec565b82525050565b611ed6816125ec565b82525050565b6000611ee7826124e5565b611ef18185612513565b935083602082028501611f03856124d5565b8060005b85811015611f3f5784840389528151611f208582611eaa565b9450611f2b83612506565b925060208a01995050600181019050611f07565b50829750879550505050505092915050565b611f5a816125fe565b82525050565b611f698161260a565b82525050565b6000611f7a826124f0565b611f848185612524565b9350611f9481856020860161267f565b611f9d81612898565b840191505092915050565b6000611fb3826124fb565b611fbd8185612540565b9350611fcd81856020860161267f565b611fd681612898565b840191505092915050565b6000611fee602683612551565b9150611ff9826128a9565b604082019050919050565b6000612011601483612551565b915061201c826128f8565b602082019050919050565b6000612034601783612551565b915061203f82612921565b602082019050919050565b6000612057601b83612551565b91506120628261294a565b602082019050919050565b600061207a602083612551565b915061208582612973565b602082019050919050565b600061209d600083612535565b91506120a88261299c565b600082019050919050565b60006120c0602b83612551565b91506120cb8261299f565b604082019050919050565b60006120e3602483612551565b91506120ee826129ee565b604082019050919050565b60006080830160008301516121116000860182612172565b5060208301516121246020860182611ebe565b506040830151848203604086015261213c8282611fa8565b915050606083015184820360608601526121568282611fa8565b9150508091505092915050565b61216c81612614565b82525050565b61217b81612642565b82525050565b61218a81612642565b82525050565b6121998161264c565b82525050565b6121a88161265c565b82525050565b60006121b982612090565b9150819050919050565b60006020820190506121d86000830184611ecd565b92915050565b60006040820190506121f36000830185611ecd565b6122006020830184611ecd565b9392505050565b600060608201905061221c6000830186611ecd565b6122296020830185611ecd565b6122366040830184612181565b949350505050565b60006040820190506122536000830185611ecd565b6122606020830184612181565b9392505050565b600060208201905081810360008301526122818184611edc565b905092915050565b600060208201905061229e6000830184611f51565b92915050565b60006040820190506122b96000830185611f51565b81810360208301526122cb8184611f6f565b90509392505050565b600060a0820190506122e96000830188611f60565b6122f6602083018761219f565b6123036040830186612163565b6123106060830185612190565b61231d6080830184612190565b9695505050505050565b6000602082019050818103600083015261234081611fe1565b9050919050565b6000602082019050818103600083015261236081612004565b9050919050565b6000602082019050818103600083015261238081612027565b9050919050565b600060208201905081810360008301526123a08161204a565b9050919050565b600060208201905081810360008301526123c08161206d565b9050919050565b600060208201905081810360008301526123e0816120b3565b9050919050565b60006020820190508181036000830152612400816120d6565b9050919050565b600060208201905061241c6000830184612181565b92915050565b600061242c61243d565b905061243882826126e4565b919050565b6000604051905090565b600067ffffffffffffffff8211156124625761246161284b565b5b602082029050602081019050919050565b600067ffffffffffffffff82111561248e5761248d61284b565b5b61249782612898565b9050602081019050919050565b600067ffffffffffffffff8211156124bf576124be61284b565b5b6124c882612898565b9050602081019050919050565b6000819050602082019050919050565b600081519050919050565b600081519050919050565b600081519050919050565b6000602082019050919050565b600082825260208201905092915050565b600082825260208201905092915050565b600081905092915050565b600082825260208201905092915050565b600082825260208201905092915050565b600061256d82612642565b915061257883612642565b9250827fffffffffffffffffffffffffffffffffffffffffffffffffffffffffffffffff038211156125ad576125ac61278f565b5b828201905092915050565b60006125c382612642565b91506125ce83612642565b9250828210156125e1576125e061278f565b5b828203905092915050565b60006125f782612622565b9050919050565b60008115159050919050565b6000819050919050565b600061ffff82169050919050565b600073ffffffffffffffffffffffffffffffffffffffff82169050919050565b6000819050919050565b600063ffffffff82169050919050565b600067ffffffffffffffff82169050919050565b82818337600083830152505050565b60005b8381101561269d578082015181840152602081019050612682565b838111156126ac576000848401525b50505050565b600060028204905060018216806126ca57607f821691505b602082108114156126de576126dd6127ed565b5b50919050565b6126ed82612898565b810181811067ffffffffffffffff8211171561270c5761270b61284b565b5b80604052505050565b600061272082612642565b91507fffffffffffffffffffffffffffffffffffffffffffffffffffffffffffffffff8214156127535761275261278f565b5b600182019050919050565b600061276982612642565b915061277483612642565b925082612784576127836127be565b5b828206905092915050565b7f4e487b7100000000000000000000000000000000000000000000000000000000600052601160045260246000fd5b7f4e487b7100000000000000000000000000000000000000000000000000000000600052601260045260246000fd5b7f4e487b7100000000000000000000000000000000000000000000000000000000600052602260045260246000fd5b7f4e487b7100000000000000000000000000000000000000000000000000000000600052603260045260246000fd5b7f4e487b7100000000000000000000000000000000000000000000000000000000600052604160045260246000fd5b600080fd5b600080fd5b600080fd5b600080fd5b600080fd5b600080fd5b6000601f19601f8301169050919050565b7f4f776e61626c653a206e6577206f776e657220697320746865207a65726f206160008201527f6464726573730000000000000000000000000000000000000000000000000000602082015250565b7f4661696c656420746f2073656e64204574686572000000000000000000000000600082015250565b7f596f75206172652020612066616c7365206d656d626572000000000000000000600082015250565b7f4170706c69636174696f6e20686173206e6f7420737461727465640000000000600082015250565b7f4f776e61626c653a2063616c6c6572206973206e6f7420746865206f776e6572600082015250565b50565b7f596f752061726520616c726561647920612063616e64696461746520746f206260008201527f6520766f74656420666f72000000000000000000000000000000000000000000602082015250565b7f546865206170706c69636174696f6e20686173206e6f74206576656e2073746160008201527f7274656400000000000000000000000000000000000000000000000000000000602082015250565b612a46816125ec565b8114612a5157600080fd5b50565b612a5d816125fe565b8114612a6857600080fd5b50565b612a7481612642565b8114612a7f57600080fd5b5056fea2646970667358221220b804c761d7a78538a52cd858180ccea3450f20f6fd881ca744288889f7a444a364736f6c63430008070033",
  "linkReferences": {},
  "deployedLinkReferences": {}
}